{
  "_format": "hh-sol-artifact-1",
  "contractName": "ClaimToken",
  "sourceName": "contracts/ClaimToken.sol",
  "abi": [
    {
      "inputs": [
        {
          "internalType": "address",
          "name": "_xtrTokenAddress",
          "type": "address"
        }
      ],
      "stateMutability": "payable",
      "type": "constructor"
    },
    {
      "anonymous": false,
      "inputs": [
        {
          "indexed": true,
          "internalType": "address",
          "name": "claimers",
          "type": "address"
        },
        {
          "indexed": false,
          "internalType": "uint256",
          "name": "amount",
          "type": "uint256"
        },
        {
          "indexed": false,
          "internalType": "uint256",
          "name": "fee",
          "type": "uint256"
        }
      ],
      "name": "Claim",
      "type": "event"
    },
    {
      "inputs": [],
      "name": "MAX_CLAIM_AMOUNT",
      "outputs": [
        {
          "internalType": "uint256",
          "name": "",
          "type": "uint256"
        }
      ],
      "stateMutability": "view",
      "type": "function"
    },
    {
      "inputs": [],
      "name": "claimFee",
      "outputs": [
        {
          "internalType": "uint256",
          "name": "",
          "type": "uint256"
        }
      ],
      "stateMutability": "view",
      "type": "function"
    },
    {
      "inputs": [],
      "name": "claimXTR",
      "outputs": [],
      "stateMutability": "payable",
      "type": "function"
    },
    {
      "inputs": [
        {
          "internalType": "uint256",
          "name": "",
          "type": "uint256"
        }
      ],
      "name": "claimers",
      "outputs": [
        {
          "internalType": "address",
          "name": "",
          "type": "address"
        }
      ],
      "stateMutability": "view",
      "type": "function"
    },
    {
      "inputs": [
        {
          "internalType": "address",
          "name": "",
          "type": "address"
        }
      ],
      "name": "hasClaimed",
      "outputs": [
        {
          "internalType": "bool",
          "name": "",
          "type": "bool"
        }
      ],
      "stateMutability": "view",
      "type": "function"
    },
    {
      "inputs": [],
      "name": "owner",
      "outputs": [
        {
          "internalType": "address",
          "name": "",
          "type": "address"
        }
      ],
      "stateMutability": "view",
      "type": "function"
    },
    {
      "inputs": [
        {
          "internalType": "uint256",
          "name": "_amount",
          "type": "uint256"
        }
      ],
      "name": "transferXTRContract",
      "outputs": [],
      "stateMutability": "nonpayable",
      "type": "function"
    },
    {
      "inputs": [
        {
          "internalType": "uint256",
          "name": "_newFee",
          "type": "uint256"
        }
      ],
      "name": "updateClaimFee",
      "outputs": [],
      "stateMutability": "nonpayable",
      "type": "function"
    },
    {
      "inputs": [],
      "name": "xtrToken",
      "outputs": [
        {
          "internalType": "contract IERC20",
          "name": "",
          "type": "address"
        }
      ],
      "stateMutability": "view",
      "type": "function"
    }
  ],
  "bytecode": "0x608060405264e8d4a510006004556040516107f93803806107f983398101604081905261002b91610059565b600080546001600160a01b039092166001600160a01b03199283161790556001805490911633179055610089565b60006020828403121561006b57600080fd5b81516001600160a01b038116811461008257600080fd5b9392505050565b610761806100986000396000f3fe6080604052600436106100865760003560e01c806399d32fc41161005957806399d32fc414610132578063b20b840314610156578063b8ff804a14610176578063be1667c614610196578063e362b4f7146101b657600080fd5b806373b2e80e1461008b5780638da5cb5b146100d05780638f2248001461010857806399ae559d14610112575b600080fd5b34801561009757600080fd5b506100bb6100a636600461065b565b60026020526000908152604090205460ff1681565b60405190151581526020015b60405180910390f35b3480156100dc57600080fd5b506001546100f0906001600160a01b031681565b6040516001600160a01b0390911681526020016100c7565b6101106101d3565b005b34801561011e57600080fd5b506100f061012d36600461068b565b6104cf565b34801561013e57600080fd5b5061014860045481565b6040519081526020016100c7565b34801561016257600080fd5b5061011061017136600461068b565b6104f9565b34801561018257600080fd5b506000546100f0906001600160a01b031681565b3480156101a257600080fd5b506101106101b136600461068b565b610528565b3480156101c257600080fd5b50610148680ad78ebc5ac620000081565b3360009081526002602052604090205460ff16156102435760405162461bcd60e51b815260206004820152602260248201527f596f75206861766520616c726561647920636c61696d65642058545220546f6b60448201526132b760f11b60648201526084015b60405180910390fd5b6000546040516370a0823160e01b8152306004820152680ad78ebc5ac6200000916001600160a01b0316906370a0823190602401602060405180830381865afa158015610294573d6000803e3d6000fd5b505050506040513d601f19601f820116820180604052508101906102b891906106a4565b101561031a5760405162461bcd60e51b815260206004820152602b60248201527f496e73756666696369656e742058545220746f6b656e7320617661696c61626c60448201526a6520666f7220636c61696d60a81b606482015260840161023a565b60045434101561036c5760405162461bcd60e51b815260206004820152601960248201527f496e73756666696369656e74206665652070726f766964656400000000000000604482015260640161023a565b33600081815260026020526040808220805460ff1916600190811790915560038054918201815583527fc2575a0e9e593c00f959f8c92f12db2869c3395a3b0502d05e2516446f71f85b0180546001600160a01b031916841790559054905163a9059cbb60e01b81526004810192909252680ad78ebc5ac620000060248301526001600160a01b03169063a9059cbb906044016020604051808303816000875af115801561041e573d6000803e3d6000fd5b505050506040513d601f19601f8201168201806040525081019061044291906106bd565b5060045460405133917f34fcbac0073d7c3d388e51312faf357774904998eeb8fca628b9e6f65ee1cbf79161048891680ad78ebc5ac62000008252602082015260400190565b60405180910390a26001546004546040516001600160a01b039092169181156108fc0291906000818181858888f193505050501580156104cc573d6000803e3d6000fd5b50565b600381815481106104df57600080fd5b6000918252602090912001546001600160a01b0316905081565b6001546001600160a01b031633146105235760405162461bcd60e51b815260040161023a906106df565b600455565b6001546001600160a01b031633146105525760405162461bcd60e51b815260040161023a906106df565b600081116105a25760405162461bcd60e51b815260206004820152601f60248201527f5472616e73666572206d7573742062652067726561746572207468616e203000604482015260640161023a565b6000546040516323b872dd60e01b8152336004820152306024820152604481018390526001600160a01b03909116906323b872dd906064016020604051808303816000875af11580156105f9573d6000803e3d6000fd5b505050506040513d601f19601f8201168201806040525081019061061d91906106bd565b6104cc5760405162461bcd60e51b815260206004820152600f60248201526e151c985b9cd9995c8819985a5b1959608a1b604482015260640161023a565b60006020828403121561066d57600080fd5b81356001600160a01b038116811461068457600080fd5b9392505050565b60006020828403121561069d57600080fd5b5035919050565b6000602082840312156106b657600080fd5b5051919050565b6000602082840312156106cf57600080fd5b8151801515811461068457600080fd5b6020808252602c908201527f4f6e6c79206f776e657220616464726573732063616e20706572666f726d207460408201526b3434b990333ab731ba34b7b760a11b60608201526080019056fea26469706673582212200239ba2af5dd8fba853257c5f18df9794d8f522e2a4e9cef2f4f00d13372c9fb64736f6c63430008180033",
  "linkReferences": {},
  "deployedLinkReferences": {}
}