{
  "_format": "hh-sol-artifact-1",
  "contractName": "Crowdfunding",
  "sourceName": "contracts/Crowdfunding.sol",
  "abi": [
    {
      "inputs": [
        {
          "internalType": "address",
          "name": "_tokenAddress",
          "type": "address"
        },
        {
          "internalType": "address",
          "name": "initialOwner",
          "type": "address"
        }
      ],
      "stateMutability": "nonpayable",
      "type": "constructor"
    },
    {
      "inputs": [
        {
          "internalType": "address",
          "name": "target",
          "type": "address"
        }
      ],
      "name": "AddressEmptyCode",
      "type": "error"
    },
    {
      "inputs": [
        {
          "internalType": "address",
          "name": "account",
          "type": "address"
        }
      ],
      "name": "AddressInsufficientBalance",
      "type": "error"
    },
    {
      "inputs": [],
      "name": "FailedInnerCall",
      "type": "error"
    },
    {
      "inputs": [
        {
          "internalType": "address",
          "name": "owner",
          "type": "address"
        }
      ],
      "name": "OwnableInvalidOwner",
      "type": "error"
    },
    {
      "inputs": [
        {
          "internalType": "address",
          "name": "account",
          "type": "address"
        }
      ],
      "name": "OwnableUnauthorizedAccount",
      "type": "error"
    },
    {
      "inputs": [
        {
          "internalType": "address",
          "name": "token",
          "type": "address"
        }
      ],
      "name": "SafeERC20FailedOperation",
      "type": "error"
    },
    {
      "anonymous": false,
      "inputs": [
        {
          "indexed": true,
          "internalType": "uint256",
          "name": "campaignId",
          "type": "uint256"
        },
        {
          "indexed": false,
          "internalType": "string",
          "name": "name",
          "type": "string"
        },
        {
          "indexed": false,
          "internalType": "uint256",
          "name": "amountRaised",
          "type": "uint256"
        }
      ],
      "name": "CampaignClosed",
      "type": "event"
    },
    {
      "anonymous": false,
      "inputs": [
        {
          "indexed": true,
          "internalType": "uint256",
          "name": "id",
          "type": "uint256"
        },
        {
          "indexed": false,
          "internalType": "string",
          "name": "name",
          "type": "string"
        },
        {
          "indexed": false,
          "internalType": "uint256",
          "name": "goal",
          "type": "uint256"
        },
        {
          "indexed": false,
          "internalType": "uint256",
          "name": "duration",
          "type": "uint256"
        }
      ],
      "name": "CampaignCreated",
      "type": "event"
    },
    {
      "anonymous": false,
      "inputs": [
        {
          "indexed": true,
          "internalType": "uint256",
          "name": "campaignId",
          "type": "uint256"
        },
        {
          "indexed": false,
          "internalType": "address",
          "name": "contributor",
          "type": "address"
        },
        {
          "indexed": false,
          "internalType": "uint256",
          "name": "amount",
          "type": "uint256"
        }
      ],
      "name": "ContributionMade",
      "type": "event"
    },
    {
      "anonymous": false,
      "inputs": [
        {
          "indexed": true,
          "internalType": "uint256",
          "name": "campaignId",
          "type": "uint256"
        },
        {
          "indexed": true,
          "internalType": "address",
          "name": "contributor",
          "type": "address"
        },
        {
          "indexed": false,
          "internalType": "uint256",
          "name": "amount",
          "type": "uint256"
        }
      ],
      "name": "ContributionRefunded",
      "type": "event"
    },
    {
      "anonymous": false,
      "inputs": [
        {
          "indexed": true,
          "internalType": "address",
          "name": "previousOwner",
          "type": "address"
        },
        {
          "indexed": true,
          "internalType": "address",
          "name": "newOwner",
          "type": "address"
        }
      ],
      "name": "OwnershipTransferred",
      "type": "event"
    },
    {
      "inputs": [
        {
          "internalType": "string",
          "name": "name",
          "type": "string"
        },
        {
          "internalType": "uint256",
          "name": "goal",
          "type": "uint256"
        },
        {
          "internalType": "uint256",
          "name": "maxContribution",
          "type": "uint256"
        },
        {
          "internalType": "uint256",
          "name": "maxContributor",
          "type": "uint256"
        },
        {
          "internalType": "uint256",
          "name": "duration",
          "type": "uint256"
        }
      ],
      "name": "addCampaign",
      "outputs": [],
      "stateMutability": "nonpayable",
      "type": "function"
    },
    {
      "inputs": [
        {
          "internalType": "uint256",
          "name": "",
          "type": "uint256"
        }
      ],
      "name": "campaigns",
      "outputs": [
        {
          "internalType": "uint256",
          "name": "id",
          "type": "uint256"
        },
        {
          "internalType": "string",
          "name": "name",
          "type": "string"
        },
        {
          "internalType": "uint256",
          "name": "goal",
          "type": "uint256"
        },
        {
          "internalType": "uint256",
          "name": "maxContribution",
          "type": "uint256"
        },
        {
          "internalType": "uint256",
          "name": "maxContributor",
          "type": "uint256"
        },
        {
          "internalType": "uint256",
          "name": "duration",
          "type": "uint256"
        },
        {
          "internalType": "uint256",
          "name": "startTime",
          "type": "uint256"
        },
        {
          "internalType": "uint256",
          "name": "endTime",
          "type": "uint256"
        },
        {
          "internalType": "bool",
          "name": "isOpen",
          "type": "bool"
        }
      ],
      "stateMutability": "view",
      "type": "function"
    },
    {
      "inputs": [
        {
          "internalType": "uint256",
          "name": "campaignId",
          "type": "uint256"
        }
      ],
      "name": "closeCampaign",
      "outputs": [],
      "stateMutability": "nonpayable",
      "type": "function"
    },
    {
      "inputs": [
        {
          "internalType": "uint256",
          "name": "campaignId",
          "type": "uint256"
        },
        {
          "internalType": "uint256",
          "name": "amount",
          "type": "uint256"
        }
      ],
      "name": "contribute",
      "outputs": [],
      "stateMutability": "nonpayable",
      "type": "function"
    },
    {
      "inputs": [
        {
          "internalType": "address",
          "name": "",
          "type": "address"
        }
      ],
      "name": "contributorCampaigns",
      "outputs": [
        {
          "internalType": "uint256",
          "name": "",
          "type": "uint256"
        }
      ],
      "stateMutability": "view",
      "type": "function"
    },
    {
      "inputs": [],
      "name": "getCampaignCount",
      "outputs": [
        {
          "internalType": "uint256",
          "name": "",
          "type": "uint256"
        }
      ],
      "stateMutability": "view",
      "type": "function"
    },
    {
      "inputs": [
        {
          "internalType": "uint256",
          "name": "campaignId",
          "type": "uint256"
        }
      ],
      "name": "getCampaignDetails",
      "outputs": [
        {
          "internalType": "string",
          "name": "name",
          "type": "string"
        },
        {
          "internalType": "uint256",
          "name": "goal",
          "type": "uint256"
        },
        {
          "internalType": "uint256",
          "name": "maxContribution",
          "type": "uint256"
        },
        {
          "internalType": "uint256",
          "name": "maxContributor",
          "type": "uint256"
        },
        {
          "internalType": "uint256",
          "name": "duration",
          "type": "uint256"
        },
        {
          "internalType": "uint256",
          "name": "startTime",
          "type": "uint256"
        },
        {
          "internalType": "uint256",
          "name": "endTime",
          "type": "uint256"
        },
        {
          "internalType": "bool",
          "name": "isOpen",
          "type": "bool"
        },
        {
          "internalType": "address[]",
          "name": "contributors",
          "type": "address[]"
        },
        {
          "internalType": "uint256[]",
          "name": "contributions",
          "type": "uint256[]"
        }
      ],
      "stateMutability": "view",
      "type": "function"
    },
    {
      "inputs": [
        {
          "internalType": "address",
          "name": "account",
          "type": "address"
        }
      ],
      "name": "getContributorStatus",
      "outputs": [
        {
          "internalType": "bool",
          "name": "",
          "type": "bool"
        },
        {
          "internalType": "uint256",
          "name": "",
          "type": "uint256"
        }
      ],
      "stateMutability": "view",
      "type": "function"
    },
    {
      "inputs": [
        {
          "internalType": "uint256",
          "name": "campaignId",
          "type": "uint256"
        }
      ],
      "name": "getContributors",
      "outputs": [
        {
          "internalType": "address[]",
          "name": "",
          "type": "address[]"
        }
      ],
      "stateMutability": "view",
      "type": "function"
    },
    {
      "inputs": [],
      "name": "owner",
      "outputs": [
        {
          "internalType": "address",
          "name": "",
          "type": "address"
        }
      ],
      "stateMutability": "view",
      "type": "function"
    },
    {
      "inputs": [
        {
          "internalType": "uint256",
          "name": "campaignId",
          "type": "uint256"
        }
      ],
      "name": "refund",
      "outputs": [],
      "stateMutability": "nonpayable",
      "type": "function"
    },
    {
      "inputs": [],
      "name": "renounceOwnership",
      "outputs": [],
      "stateMutability": "nonpayable",
      "type": "function"
    },
    {
      "inputs": [
        {
          "internalType": "address",
          "name": "newOwner",
          "type": "address"
        }
      ],
      "name": "transferOwnership",
      "outputs": [],
      "stateMutability": "nonpayable",
      "type": "function"
    },
    {
      "inputs": [
        {
          "internalType": "address",
          "name": "to",
          "type": "address"
        },
        {
          "internalType": "uint256",
          "name": "amount",
          "type": "uint256"
        }
      ],
      "name": "withdrawToken",
      "outputs": [],
      "stateMutability": "nonpayable",
      "type": "function"
    }
  ],
  "bytecode": "0x60806040523480156200001157600080fd5b506040516200165338038062001653833981016040819052620000349162000104565b806001600160a01b0381166200006457604051631e4fbdf760e01b81526000600482015260240160405180910390fd5b6200006f8162000097565b5050600180546001600160a01b0319166001600160a01b03929092169190911790556200013c565b600080546001600160a01b038381166001600160a01b0319831681178455604051919092169283917f8be0079c531659141344cd1fd0a4f28419497f9722a3daafe3b4186f6b6457e09190a35050565b80516001600160a01b0381168114620000ff57600080fd5b919050565b600080604083850312156200011857600080fd5b6200012383620000e7565b91506200013360208401620000e7565b90509250929050565b611507806200014c6000396000f3fe608060405234801561001057600080fd5b50600436106100ea5760003560e01c80638da5cb5b1161008c578063d993de6211610066578063d993de62146101e7578063e597d6fd14610210578063e667546514610253578063f2fde38b1461026657600080fd5b80638da5cb5b146101a65780639e281a98146101c1578063b0e1c1e1146101d457600080fd5b80633c1ab00f116100c85780633c1ab00f146101635780636caa921814610183578063715018a61461018b5780638c5909171461019357600080fd5b8063141961bc146100ef578063278ecde114610120578063389a1d3a14610135575b600080fd5b6101026100fd366004610f1c565b610279565b60405161011799989796959493929190610f85565b60405180910390f35b61013361012e366004610f1c565b610360565b005b610155610143366004610ff6565b60036020526000908152604090205481565b604051908152602001610117565b610176610171366004610f1c565b6104f5565b6040516101179190611056565b600254610155565b61013361057b565b6101336101a1366004611069565b61058f565b6000546040516001600160a01b039091168152602001610117565b6101336101cf36600461108b565b6107b2565b6101336101e2366004610f1c565b6107d5565b6101fa6101f5366004610f1c565b610909565b6040516101179a999897969594939291906110b5565b61023c61021e366004610ff6565b6001600160a01b031660009081526003602052604090205480151591565b604080519215158352602083019190915201610117565b61013361026136600461116f565b610b47565b610133610274366004610ff6565b610c20565b6002818154811061028957600080fd5b60009182526020909120600b909102018054600182018054919350906102ae9061123d565b80601f01602080910402602001604051908101604052809291908181526020018280546102da9061123d565b80156103275780601f106102fc57610100808354040283529160200191610327565b820191906000526020600020905b81548152906001019060200180831161030a57829003601f168201915b50505050600283015460038401546004850154600586015460068701546007880154600890980154969794969395509193909260ff1689565b60006002828154811061037557610375611277565b60009182526020909120600b90910201600881015490915060ff16156103db5760405162461bcd60e51b815260206004820152601660248201527521b0b6b830b4b3b71034b99039ba34b6361037b832b760511b60448201526064015b60405180910390fd5b806007015442101561042f5760405162461bcd60e51b815260206004820152601960248201527f43616d706169676e206973206e6f7420656e646564207965740000000000000060448201526064016103d2565b336000908152600a820160205260409020548061048e5760405162461bcd60e51b815260206004820152601960248201527f4e6f20636f6e747269627574696f6e20746f20726566756e640000000000000060448201526064016103d2565b336000818152600a840160205260408120556001546104b9916001600160a01b039091169083610c5e565b604051818152339084907ffc8dc45aafeb84bf841ffa6c1b48653bea5b43662ab6685b9683e2e5b72fc74f9060200160405180910390a3505050565b60606002828154811061050a5761050a611277565b90600052602060002090600b020160090180548060200260200160405190810160405280929190818152602001828054801561056f57602002820191906000526020600020905b81546001600160a01b03168152600190910190602001808311610551575b50505050509050919050565b610583610cc2565b61058d6000610cef565b565b6000600283815481106105a4576105a4611277565b60009182526020909120600b90910201600881015490915060ff1680156105ce5750806007015442105b61061a5760405162461bcd60e51b815260206004820152601960248201527f43616d706169676e206973206e6f7420617661696c61626c650000000000000060448201526064016103d2565b6003810154336000908152600a8301602052604090205461063c90849061128d565b111561068a5760405162461bcd60e51b815260206004820152601860248201527f45786365656473206d617820636f6e747269627574696f6e000000000000000060448201526064016103d2565b60048101546009820154106106e15760405162461bcd60e51b815260206004820152601860248201527f4d617820636f6e7472696275746f72732072656163686564000000000000000060448201526064016103d2565b336000908152600a820160205260408120549003610733576009810180546001810182556000918252602080832090910180546001600160a01b03191633908117909155825260039052604090208390555b336000908152600a820160205260408120805484929061075490849061128d565b9091555050600154610771906001600160a01b0316333085610d3f565b604080513381526020810184905284917f0a4a91237423e0a1766a761c7cb029311d8b95d6b1b81db1b949a70c98b4e08e91015b60405180910390a2505050565b6107ba610cc2565b6001546107d1906001600160a01b03168383610c5e565b5050565b6107dd610cc2565b6000600282815481106107f2576107f2611277565b60009182526020909120600b90910201600881015490915060ff166108595760405162461bcd60e51b815260206004820152601a60248201527f43616d706169676e20697320616c726561647920636c6f73656400000000000060448201526064016103d2565b60088101805460ff191690556001546040516370a0823160e01b81523060048201526000916001600160a01b0316906370a0823190602401602060405180830381865afa1580156108ae573d6000803e3d6000fd5b505050506040513d601f19601f820116820180604052508101906108d291906112ae565b9050827f8458b28c04c9dc08e322a4e1d72faf95d899a917357387ceb5f95cb0d36a22ab83600101836040516107a59291906112c7565b60606000806000806000806000606080600060028c8154811061092e5761092e611277565b90600052602060002090600b020190506000816009018054905067ffffffffffffffff81111561096057610960611159565b604051908082528060200260200182016040528015610989578160200160208202803683370190505b50905060005b6009830154811015610a025782600a0160008460090183815481106109b6576109b6611277565b60009182526020808320909101546001600160a01b0316835282019290925260400190205482518390839081106109ef576109ef611277565b602090810291909101015260010161098f565b50816001018260020154836003015484600401548560050154866006015487600701548860080160009054906101000a900460ff168960090189898054610a489061123d565b80601f0160208091040260200160405190810160405280929190818152602001828054610a749061123d565b8015610ac15780601f10610a9657610100808354040283529160200191610ac1565b820191906000526020600020905b815481529060010190602001808311610aa457829003601f168201915b5050505050995081805480602002602001604051908101604052809291908181526020018280548015610b1d57602002820191906000526020600020905b81546001600160a01b03168152600190910190602001808311610aff575b505050505091509b509b509b509b509b509b509b509b509b509b5050509193959799509193959799565b610b4f610cc2565b6002805460018101808355600083815291929083908110610b7257610b72611277565b60009182526020909120600b90910201828155905060018101610b9588826113ae565b50600281018690556003810185905560048101849055600581018390554260068201819055610bc590849061128d565b600782015560088101805460ff1916600117905560405182907f02fe3fddd43aad14ae5c30d5d694f19ecb065dfde85bb591b91e8af1448724d290610c0f908a908a90889061146e565b60405180910390a250505050505050565b610c28610cc2565b6001600160a01b038116610c5257604051631e4fbdf760e01b8152600060048201526024016103d2565b610c5b81610cef565b50565b6040516001600160a01b03838116602483015260448201839052610cbd91859182169063a9059cbb906064015b604051602081830303815290604052915060e01b6020820180516001600160e01b038381831617835250505050610d7e565b505050565b6000546001600160a01b0316331461058d5760405163118cdaa760e01b81523360048201526024016103d2565b600080546001600160a01b038381166001600160a01b0319831681178455604051919092169283917f8be0079c531659141344cd1fd0a4f28419497f9722a3daafe3b4186f6b6457e09190a35050565b6040516001600160a01b038481166024830152838116604483015260648201839052610d789186918216906323b872dd90608401610c8b565b50505050565b6000610d936001600160a01b03841683610de1565b90508051600014158015610db8575080806020019051810190610db69190611493565b155b15610cbd57604051635274afe760e01b81526001600160a01b03841660048201526024016103d2565b6060610def83836000610df8565b90505b92915050565b606081471015610e1d5760405163cd78605960e01b81523060048201526024016103d2565b600080856001600160a01b03168486604051610e3991906114b5565b60006040518083038185875af1925050503d8060008114610e76576040519150601f19603f3d011682016040523d82523d6000602084013e610e7b565b606091505b5091509150610e8b868383610e97565b925050505b9392505050565b606082610eac57610ea782610ef3565b610e90565b8151158015610ec357506001600160a01b0384163b155b15610eec57604051639996b31560e01b81526001600160a01b03851660048201526024016103d2565b5080610e90565b805115610f035780518082602001fd5b604051630a12f52160e11b815260040160405180910390fd5b600060208284031215610f2e57600080fd5b5035919050565b60005b83811015610f50578181015183820152602001610f38565b50506000910152565b60008151808452610f71816020860160208601610f35565b601f01601f19169290920160200192915050565b60006101208b8352806020840152610f9f8184018c610f59565b604084019a909a5250506060810196909652608086019490945260a085019290925260c084015260e083015215156101009091015292915050565b80356001600160a01b0381168114610ff157600080fd5b919050565b60006020828403121561100857600080fd5b610def82610fda565b60008151808452602080850194506020840160005b8381101561104b5781516001600160a01b031687529582019590820190600101611026565b509495945050505050565b602081526000610def6020830184611011565b6000806040838503121561107c57600080fd5b50508035926020909101359150565b6000806040838503121561109e57600080fd5b6110a783610fda565b946020939093013593505050565b60006101408083526110c98184018e610f59565b905060208c60208501528b60408501528a60608501528960808501528860a08501528760c085015286151560e085015283820361010085015261110c8287611011565b8481036101208601528551808252602080880194509091019060005b8181101561114457845183529383019391830191600101611128565b50909f9e505050505050505050505050505050565b634e487b7160e01b600052604160045260246000fd5b600080600080600060a0868803121561118757600080fd5b853567ffffffffffffffff8082111561119f57600080fd5b818801915088601f8301126111b357600080fd5b8135818111156111c5576111c5611159565b604051601f8201601f19908116603f011681019083821181831017156111ed576111ed611159565b816040528281528b602084870101111561120657600080fd5b82602086016020830137600060209382018401529b918a01359a505060408901359860608101359850608001359650945050505050565b600181811c9082168061125157607f821691505b60208210810361127157634e487b7160e01b600052602260045260246000fd5b50919050565b634e487b7160e01b600052603260045260246000fd5b80820180821115610df257634e487b7160e01b600052601160045260246000fd5b6000602082840312156112c057600080fd5b5051919050565b6040815260008084546112d98161123d565b80604086015260606001808416600081146112fb576001811461131757611349565b60ff1985166060890152606084151560051b8901019550611349565b8960005260208060002060005b8681101561133f5781548b8201870152908401908201611324565b8a01606001975050505b50505050506020929092019290925292915050565b601f821115610cbd576000816000526020600020601f850160051c810160208610156113875750805b601f850160051c820191505b818110156113a657828155600101611393565b505050505050565b815167ffffffffffffffff8111156113c8576113c8611159565b6113dc816113d6845461123d565b8461135e565b602080601f83116001811461141157600084156113f95750858301515b600019600386901b1c1916600185901b1785556113a6565b600085815260208120601f198616915b8281101561144057888601518255948401946001909101908401611421565b508582101561145e5787850151600019600388901b60f8161c191681555b5050505050600190811b01905550565b6060815260006114816060830186610f59565b60208301949094525060400152919050565b6000602082840312156114a557600080fd5b81518015158114610e9057600080fd5b600082516114c7818460208701610f35565b919091019291505056fea2646970667358221220fe229bafcbbf6f28eaeb5b157596a0d6761009f4a6e1b8d8d7e175b1f9636c0264736f6c63430008180033",
  "linkReferences": {},
  "deployedLinkReferences": {}
}