{
  "_format": "hh-sol-artifact-1",
  "contractName": "Crowdfunding",
  "sourceName": "contracts/Crowdfunding.sol",
  "abi": [
    {
      "inputs": [
        {
          "internalType": "address",
          "name": "_tokenAddress",
          "type": "address"
        },
        {
          "internalType": "address",
          "name": "initialOwner",
          "type": "address"
        }
      ],
      "stateMutability": "nonpayable",
      "type": "constructor"
    },
    {
      "inputs": [
        {
          "internalType": "address",
          "name": "target",
          "type": "address"
        }
      ],
      "name": "AddressEmptyCode",
      "type": "error"
    },
    {
      "inputs": [
        {
          "internalType": "address",
          "name": "account",
          "type": "address"
        }
      ],
      "name": "AddressInsufficientBalance",
      "type": "error"
    },
    {
      "inputs": [],
      "name": "FailedInnerCall",
      "type": "error"
    },
    {
      "inputs": [
        {
          "internalType": "address",
          "name": "owner",
          "type": "address"
        }
      ],
      "name": "OwnableInvalidOwner",
      "type": "error"
    },
    {
      "inputs": [
        {
          "internalType": "address",
          "name": "account",
          "type": "address"
        }
      ],
      "name": "OwnableUnauthorizedAccount",
      "type": "error"
    },
    {
      "inputs": [
        {
          "internalType": "address",
          "name": "token",
          "type": "address"
        }
      ],
      "name": "SafeERC20FailedOperation",
      "type": "error"
    },
    {
      "anonymous": false,
      "inputs": [
        {
          "indexed": true,
          "internalType": "uint256",
          "name": "campaignId",
          "type": "uint256"
        },
        {
          "indexed": false,
          "internalType": "string",
          "name": "name",
          "type": "string"
        },
        {
          "indexed": false,
          "internalType": "uint256",
          "name": "totalRaised",
          "type": "uint256"
        }
      ],
      "name": "CampaignClosed",
      "type": "event"
    },
    {
      "anonymous": false,
      "inputs": [
        {
          "indexed": true,
          "internalType": "uint256",
          "name": "campaignId",
          "type": "uint256"
        },
        {
          "indexed": false,
          "internalType": "string",
          "name": "name",
          "type": "string"
        },
        {
          "indexed": false,
          "internalType": "uint256",
          "name": "goal",
          "type": "uint256"
        },
        {
          "indexed": false,
          "internalType": "uint256",
          "name": "duration",
          "type": "uint256"
        }
      ],
      "name": "CampaignCreated",
      "type": "event"
    },
    {
      "anonymous": false,
      "inputs": [
        {
          "indexed": true,
          "internalType": "uint256",
          "name": "campaignId",
          "type": "uint256"
        },
        {
          "indexed": true,
          "internalType": "address",
          "name": "contributor",
          "type": "address"
        },
        {
          "indexed": false,
          "internalType": "uint256",
          "name": "amount",
          "type": "uint256"
        }
      ],
      "name": "ContributionMade",
      "type": "event"
    },
    {
      "anonymous": false,
      "inputs": [
        {
          "indexed": true,
          "internalType": "address",
          "name": "previousOwner",
          "type": "address"
        },
        {
          "indexed": true,
          "internalType": "address",
          "name": "newOwner",
          "type": "address"
        }
      ],
      "name": "OwnershipTransferred",
      "type": "event"
    },
    {
      "anonymous": false,
      "inputs": [
        {
          "indexed": true,
          "internalType": "address",
          "name": "owner",
          "type": "address"
        },
        {
          "indexed": false,
          "internalType": "uint256",
          "name": "amount",
          "type": "uint256"
        }
      ],
      "name": "TokensWithdrawn",
      "type": "event"
    },
    {
      "inputs": [
        {
          "internalType": "string",
          "name": "name",
          "type": "string"
        },
        {
          "internalType": "uint256",
          "name": "goal",
          "type": "uint256"
        },
        {
          "internalType": "uint256",
          "name": "maxContribution",
          "type": "uint256"
        },
        {
          "internalType": "uint256",
          "name": "maxContributor",
          "type": "uint256"
        },
        {
          "internalType": "uint256",
          "name": "duration",
          "type": "uint256"
        }
      ],
      "name": "addCampaign",
      "outputs": [],
      "stateMutability": "nonpayable",
      "type": "function"
    },
    {
      "inputs": [
        {
          "internalType": "uint256",
          "name": "",
          "type": "uint256"
        }
      ],
      "name": "campaigns",
      "outputs": [
        {
          "internalType": "uint256",
          "name": "id",
          "type": "uint256"
        },
        {
          "internalType": "string",
          "name": "name",
          "type": "string"
        },
        {
          "internalType": "uint256",
          "name": "goal",
          "type": "uint256"
        },
        {
          "internalType": "uint256",
          "name": "maxContribution",
          "type": "uint256"
        },
        {
          "internalType": "uint256",
          "name": "maxContributor",
          "type": "uint256"
        },
        {
          "internalType": "uint256",
          "name": "duration",
          "type": "uint256"
        },
        {
          "internalType": "uint256",
          "name": "startTime",
          "type": "uint256"
        },
        {
          "internalType": "uint256",
          "name": "endTime",
          "type": "uint256"
        },
        {
          "internalType": "bool",
          "name": "isOpen",
          "type": "bool"
        }
      ],
      "stateMutability": "view",
      "type": "function"
    },
    {
      "inputs": [
        {
          "internalType": "uint256",
          "name": "campaignId",
          "type": "uint256"
        }
      ],
      "name": "closeCampaign",
      "outputs": [],
      "stateMutability": "nonpayable",
      "type": "function"
    },
    {
      "inputs": [
        {
          "internalType": "uint256",
          "name": "campaignId",
          "type": "uint256"
        },
        {
          "internalType": "uint256",
          "name": "amount",
          "type": "uint256"
        }
      ],
      "name": "contribute",
      "outputs": [],
      "stateMutability": "nonpayable",
      "type": "function"
    },
    {
      "inputs": [
        {
          "internalType": "uint256",
          "name": "campaignId",
          "type": "uint256"
        }
      ],
      "name": "getCampaign",
      "outputs": [
        {
          "internalType": "uint256",
          "name": "id",
          "type": "uint256"
        },
        {
          "internalType": "string",
          "name": "name",
          "type": "string"
        },
        {
          "internalType": "uint256",
          "name": "goal",
          "type": "uint256"
        },
        {
          "internalType": "uint256",
          "name": "maxContribution",
          "type": "uint256"
        },
        {
          "internalType": "uint256",
          "name": "maxContributor",
          "type": "uint256"
        },
        {
          "internalType": "uint256",
          "name": "duration",
          "type": "uint256"
        },
        {
          "internalType": "uint256",
          "name": "startTime",
          "type": "uint256"
        },
        {
          "internalType": "uint256",
          "name": "endTime",
          "type": "uint256"
        },
        {
          "internalType": "bool",
          "name": "isOpen",
          "type": "bool"
        }
      ],
      "stateMutability": "view",
      "type": "function"
    },
    {
      "inputs": [],
      "name": "getCampaignCount",
      "outputs": [
        {
          "internalType": "uint256",
          "name": "",
          "type": "uint256"
        }
      ],
      "stateMutability": "view",
      "type": "function"
    },
    {
      "inputs": [
        {
          "internalType": "uint256",
          "name": "campaignId",
          "type": "uint256"
        }
      ],
      "name": "getContributors",
      "outputs": [
        {
          "internalType": "address[]",
          "name": "",
          "type": "address[]"
        }
      ],
      "stateMutability": "view",
      "type": "function"
    },
    {
      "inputs": [
        {
          "internalType": "uint256",
          "name": "campaignId",
          "type": "uint256"
        }
      ],
      "name": "getInvestorContract",
      "outputs": [
        {
          "internalType": "address",
          "name": "",
          "type": "address"
        }
      ],
      "stateMutability": "view",
      "type": "function"
    },
    {
      "inputs": [
        {
          "internalType": "uint256",
          "name": "",
          "type": "uint256"
        }
      ],
      "name": "investorContracts",
      "outputs": [
        {
          "internalType": "address",
          "name": "",
          "type": "address"
        }
      ],
      "stateMutability": "view",
      "type": "function"
    },
    {
      "inputs": [],
      "name": "owner",
      "outputs": [
        {
          "internalType": "address",
          "name": "",
          "type": "address"
        }
      ],
      "stateMutability": "view",
      "type": "function"
    },
    {
      "inputs": [],
      "name": "renounceOwnership",
      "outputs": [],
      "stateMutability": "nonpayable",
      "type": "function"
    },
    {
      "inputs": [
        {
          "internalType": "address",
          "name": "newOwner",
          "type": "address"
        }
      ],
      "name": "transferOwnership",
      "outputs": [],
      "stateMutability": "nonpayable",
      "type": "function"
    },
    {
      "inputs": [],
      "name": "withdrawTokens",
      "outputs": [],
      "stateMutability": "nonpayable",
      "type": "function"
    }
  ],
  "bytecode": "0x60806040523480156200001157600080fd5b5060405162001e7938038062001e79833981016040819052620000349162000181565b806001600160a01b0381166200006557604051631e4fbdf760e01b8152600060048201526024015b60405180910390fd5b62000070816200009f565b50600180546001600160a01b0319166001600160a01b0384161790556200009733620000ef565b5050620001b9565b600080546001600160a01b038381166001600160a01b0319831681178455604051919092169283917f8be0079c531659141344cd1fd0a4f28419497f9722a3daafe3b4186f6b6457e09190a35050565b620000f962000133565b6001600160a01b0381166200012557604051631e4fbdf760e01b8152600060048201526024016200005c565b62000130816200009f565b50565b6000546001600160a01b03163314620001625760405163118cdaa760e01b81523360048201526024016200005c565b565b80516001600160a01b03811681146200017c57600080fd5b919050565b600080604083850312156200019557600080fd5b620001a08362000164565b9150620001b06020840162000164565b90509250929050565b611cb080620001c96000396000f3fe608060405234801561001057600080fd5b50600436106100cf5760003560e01c8063792b4f061161008c5780638da5cb5b116100665780638da5cb5b146101d4578063b0e1c1e1146101e5578063e6675465146101f8578063f2fde38b1461020b57600080fd5b8063792b4f06146101905780638c590917146101b95780638d8f2adb146101cc57600080fd5b8063106a5080146100d4578063141961bc1461011a5780633c1ab00f146101425780635598f8cc146101625780636caa921814610175578063715018a614610186575b600080fd5b6100fd6100e2366004610ea1565b6000908152600360205260409020546001600160a01b031690565b6040516001600160a01b0390911681526020015b60405180910390f35b61012d610128366004610ea1565b61021e565b60405161011199989796959493929190610f0a565b610155610150366004610ea1565b610305565b6040516101119190610f5f565b61012d610170366004610ea1565b610391565b600254604051908152602001610111565b61018e6104a9565b005b6100fd61019e366004610ea1565b6003602052600090815260409020546001600160a01b031681565b61018e6101c7366004610fac565b6104bd565b61018e610781565b6000546001600160a01b03166100fd565b61018e6101f3366004610ea1565b61088f565b61018e610206366004610fe4565b610abf565b61018e6102193660046110b2565b610b98565b6002818154811061022e57600080fd5b60009182526020909120600b90910201805460018201805491935090610253906110db565b80601f016020809104026020016040519081016040528092919081815260200182805461027f906110db565b80156102cc5780601f106102a1576101008083540402835291602001916102cc565b820191906000526020600020905b8154815290600101906020018083116102af57829003601f168201915b50505050600283015460038401546004850154600586015460068701546007880154600890980154969794969395509193909260ff1689565b606060006002838154811061031c5761031c611115565b90600052602060002090600b020190508060090180548060200260200160405190810160405280929190818152602001828054801561038457602002820191906000526020600020905b81546001600160a01b03168152600190910190602001808311610366575b5050505050915050919050565b6000606060008060008060008060008060028b815481106103b4576103b4611115565b90600052602060002090600b020190508060000154816001018260020154836003015484600401548560050154866006015487600701548860080160009054906101000a900460ff16878054610409906110db565b80601f0160208091040260200160405190810160405280929190818152602001828054610435906110db565b80156104825780601f1061045757610100808354040283529160200191610482565b820191906000526020600020905b81548152906001019060200180831161046557829003601f168201915b50505050509750995099509950995099509950995099509950509193959799909294969850565b6104b1610bd6565b6104bb6000610c03565b565b6000600283815481106104d2576104d2611115565b60009182526020909120600b90910201600881015490915060ff1680156104fc5750806007015442105b61054d5760405162461bcd60e51b815260206004820152601960248201527f43616d706169676e206973206e6f7420617661696c61626c650000000000000060448201526064015b60405180910390fd5b6003810154336000908152600a8301602052604090205461056f90849061112b565b11156105bd5760405162461bcd60e51b815260206004820152601860248201527f45786365656473206d617820636f6e747269627574696f6e00000000000000006044820152606401610544565b6004810154600982015410806105e35750336000908152600a8201602052604090205415155b61062f5760405162461bcd60e51b815260206004820152601860248201527f4d617820636f6e7472696275746f7273207265616368656400000000000000006044820152606401610544565b336000908152600a82016020526040812054900361066f57600981018054600181018255600091825260209091200180546001600160a01b031916331790555b336000908152600a820160205260408120805484929061069090849061112b565b90915550506001546106ad906001600160a01b0316333085610c53565b6000338385600160009054906101000a90046001600160a01b03166040516106d490610e94565b6001600160a01b039485168152602081019390935260408301919091529091166060820152608001604051809103906000f080158015610718573d6000803e3d6000fd5b5060008581526003602090815260409182902080546001600160a01b0319166001600160a01b0385161790559051858152919250339186917f0a4a91237423e0a1766a761c7cb029311d8b95d6b1b81db1b949a70c98b4e08e910160405180910390a350505050565b610789610bd6565b6001546040516370a0823160e01b81523060048201526000916001600160a01b0316906370a0823190602401602060405180830381865afa1580156107d2573d6000803e3d6000fd5b505050506040513d601f19601f820116820180604052508101906107f6919061114c565b9050600081116108405760405162461bcd60e51b81526020600482015260156024820152744e6f20746f6b656e7320746f20776974686472617760581b6044820152606401610544565b600154610857906001600160a01b03163383610cc0565b60405181815233907f6352c5382c4a4578e712449ca65e83cdb392d045dfcf1cad9615189db2da244b9060200160405180910390a250565b610897610bd6565b6000600282815481106108ac576108ac611115565b60009182526020909120600b90910201600881015490915060ff166109135760405162461bcd60e51b815260206004820152601a60248201527f43616d706169676e20697320616c726561647920636c6f7365640000000000006044820152606401610544565b60088101805460ff191690556001546040516370a0823160e01b81523060048201526000916001600160a01b0316906370a0823190602401602060405180830381865afa158015610968573d6000803e3d6000fd5b505050506040513d601f19601f8201168201806040525081019061098c919061114c565b905081600201548110610a0f5760008381526003602052604090819020549051633243c79160e01b8152600481018390526001600160a01b039091169081908190633243c79190602401600060405180830381600087803b1580156109f057600080fd5b505af1158015610a04573d6000803e3d6000fd5b505050505050610a7d565b60005b6009830154811015610a7b576000836009018281548110610a3557610a35611115565b60009182526020808320909101546001600160a01b03908116808452600a880190925260409092205460015491935091610a7191168383610cc0565b5050600101610a12565b505b827f8458b28c04c9dc08e322a4e1d72faf95d899a917357387ceb5f95cb0d36a22ab8360010183604051610ab2929190611165565b60405180910390a2505050565b610ac7610bd6565b6002805460018101808355600083815291929083908110610aea57610aea611115565b60009182526020909120600b90910201828155905060018101610b0d888261124c565b50600281018690556003810185905560048101849055600581018390554260068201819055610b3d90849061112b565b600782015560088101805460ff1916600117905560405182907f02fe3fddd43aad14ae5c30d5d694f19ecb065dfde85bb591b91e8af1448724d290610b87908a908a90889061130c565b60405180910390a250505050505050565b610ba0610bd6565b6001600160a01b038116610bca57604051631e4fbdf760e01b815260006004820152602401610544565b610bd381610c03565b50565b6000546001600160a01b031633146104bb5760405163118cdaa760e01b8152336004820152602401610544565b600080546001600160a01b038381166001600160a01b0319831681178455604051919092169283917f8be0079c531659141344cd1fd0a4f28419497f9722a3daafe3b4186f6b6457e09190a35050565b6040516001600160a01b038481166024830152838116604483015260648201839052610cba9186918216906323b872dd906084015b604051602081830303815290604052915060e01b6020820180516001600160e01b038381831617835250505050610cf6565b50505050565b6040516001600160a01b03838116602483015260448201839052610cf191859182169063a9059cbb90606401610c88565b505050565b6000610d0b6001600160a01b03841683610d59565b90508051600014158015610d30575080806020019051810190610d2e9190611331565b155b15610cf157604051635274afe760e01b81526001600160a01b0384166004820152602401610544565b6060610d6783836000610d70565b90505b92915050565b606081471015610d955760405163cd78605960e01b8152306004820152602401610544565b600080856001600160a01b03168486604051610db19190611353565b60006040518083038185875af1925050503d8060008114610dee576040519150601f19603f3d011682016040523d82523d6000602084013e610df3565b606091505b5091509150610e03868383610e0f565b925050505b9392505050565b606082610e2457610e1f82610e6b565b610e08565b8151158015610e3b57506001600160a01b0384163b155b15610e6457604051639996b31560e01b81526001600160a01b0385166004820152602401610544565b5080610e08565b805115610e7b5780518082602001fd5b604051630a12f52160e11b815260040160405180910390fd5b61090b8061137083390190565b600060208284031215610eb357600080fd5b5035919050565b60005b83811015610ed5578181015183820152602001610ebd565b50506000910152565b60008151808452610ef6816020860160208601610eba565b601f01601f19169290920160200192915050565b60006101208b8352806020840152610f248184018c610ede565b604084019a909a5250506060810196909652608086019490945260a085019290925260c084015260e083015215156101009091015292915050565b6020808252825182820181905260009190848201906040850190845b81811015610fa05783516001600160a01b031683529284019291840191600101610f7b565b50909695505050505050565b60008060408385031215610fbf57600080fd5b50508035926020909101359150565b634e487b7160e01b600052604160045260246000fd5b600080600080600060a08688031215610ffc57600080fd5b853567ffffffffffffffff8082111561101457600080fd5b818801915088601f83011261102857600080fd5b81358181111561103a5761103a610fce565b604051601f8201601f19908116603f0116810190838211818310171561106257611062610fce565b816040528281528b602084870101111561107b57600080fd5b82602086016020830137600060209382018401529b918a01359a505060408901359860608101359850608001359650945050505050565b6000602082840312156110c457600080fd5b81356001600160a01b0381168114610e0857600080fd5b600181811c908216806110ef57607f821691505b60208210810361110f57634e487b7160e01b600052602260045260246000fd5b50919050565b634e487b7160e01b600052603260045260246000fd5b80820180821115610d6a57634e487b7160e01b600052601160045260246000fd5b60006020828403121561115e57600080fd5b5051919050565b604081526000808454611177816110db565b806040860152606060018084166000811461119957600181146111b5576111e7565b60ff1985166060890152606084151560051b89010195506111e7565b8960005260208060002060005b868110156111dd5781548b82018701529084019082016111c2565b8a01606001975050505b50505050506020929092019290925292915050565b601f821115610cf1576000816000526020600020601f850160051c810160208610156112255750805b601f850160051c820191505b8181101561124457828155600101611231565b505050505050565b815167ffffffffffffffff81111561126657611266610fce565b61127a8161127484546110db565b846111fc565b602080601f8311600181146112af57600084156112975750858301515b600019600386901b1c1916600185901b178555611244565b600085815260208120601f198616915b828110156112de578886015182559484019460019091019084016112bf565b50858210156112fc5787850151600019600388901b60f8161c191681555b5050505050600190811b01905550565b60608152600061131f6060830186610ede565b60208301949094525060400152919050565b60006020828403121561134357600080fd5b81518015158114610e0857600080fd5b60008251611365818460208701610eba565b919091019291505056fe608060405234801561001057600080fd5b5060405161090b38038061090b83398101604081905261002f91610088565b600080546001600160a01b039586166001600160a01b031991821617909155600193909355600291909155600380549190931691161790556100ce565b80516001600160a01b038116811461008357600080fd5b919050565b6000806000806080858703121561009e57600080fd5b6100a78561006c565b935060208501519250604085015191506100c36060860161006c565b905092959194509250565b61082e806100dd6000396000f3fe608060405234801561001057600080fd5b506004361061007d5760003560e01c80638da5cb5b1161005b5780638da5cb5b146100bb5780638ed5b0fc146100e6578063dd49756e146100ef578063f2fde38b1461010257600080fd5b80633243c7911461008257806350520b1f146100975780638d8f2adb146100b3575b600080fd5b610095610090366004610705565b610115565b005b6100a060015481565b6040519081526020015b60405180910390f35b61009561018d565b6000546100ce906001600160a01b031681565b6040516001600160a01b0390911681526020016100aa565b6100a060025481565b6100956100fd366004610705565b610311565b61009561011036600461071e565b6103ab565b600081600154836101269190610747565b610130919061076c565b600054600354919250610150916001600160a01b039081169116836104c4565b60408051838152602081018390527fac4c4b96e3856cb20170077826b7701a887bdaf8d743f369b438133249a1f82f910160405180910390a15050565b6000546001600160a01b031633146101f75760405162461bcd60e51b815260206004820152602260248201527f4f6e6c7920746865206f776e65722063616e20776974686472617720746f6b656044820152616e7360f01b60648201526084015b60405180910390fd5b6003546040516370a0823160e01b81523060048201526000916001600160a01b0316906370a0823190602401602060405180830381865afa158015610240573d6000803e3d6000fd5b505050506040513d601f19601f82011682018060405250810190610264919061078e565b9050600081116102ae5760405162461bcd60e51b81526020600482015260156024820152744e6f20746f6b656e7320746f20776974686472617760581b60448201526064016101ee565b6000546003546102cb916001600160a01b039182169116836104c4565b6000546040518281526001600160a01b03909116907f6352c5382c4a4578e712449ca65e83cdb392d045dfcf1cad9615189db2da244b906020015b60405180910390a250565b600081116103615760405162461bcd60e51b815260206004820181905260248201527f416d6f756e74206d7573742062652067726561746572207468616e207a65726f60448201526064016101ee565b600354610379906001600160a01b0316333084610528565b60405181815233907f59062170a285eb80e8c6b8ced60428442a51910635005233fc4ce084a475845e90602001610306565b6000546001600160a01b031633146104135760405162461bcd60e51b815260206004820152602560248201527f4f6e6c7920746865206f776e65722063616e207472616e73666572206f776e65604482015264072736869760dc1b60648201526084016101ee565b6001600160a01b0381166104695760405162461bcd60e51b815260206004820152601d60248201527f4e6577206f776e657220697320746865207a65726f206164647265737300000060448201526064016101ee565b600080546040516001600160a01b03808516939216917f8be0079c531659141344cd1fd0a4f28419497f9722a3daafe3b4186f6b6457e091a3600080546001600160a01b0319166001600160a01b0392909216919091179055565b6040516001600160a01b0383811660248301526044820183905261052391859182169063a9059cbb906064015b604051602081830303815290604052915060e01b6020820180516001600160e01b038381831617835250505050610567565b505050565b6040516001600160a01b0384811660248301528381166044830152606482018390526105619186918216906323b872dd906084016104f1565b50505050565b600061057c6001600160a01b038416836105ca565b905080516000141580156105a157508080602001905181019061059f91906107a7565b155b1561052357604051635274afe760e01b81526001600160a01b03841660048201526024016101ee565b60606105d8838360006105e1565b90505b92915050565b6060814710156106065760405163cd78605960e01b81523060048201526024016101ee565b600080856001600160a01b0316848660405161062291906107c9565b60006040518083038185875af1925050503d806000811461065f576040519150601f19603f3d011682016040523d82523d6000602084013e610664565b606091505b5091509150610674868383610680565b925050505b9392505050565b60608261069557610690826106dc565b610679565b81511580156106ac57506001600160a01b0384163b155b156106d557604051639996b31560e01b81526001600160a01b03851660048201526024016101ee565b5080610679565b8051156106ec5780518082602001fd5b604051630a12f52160e11b815260040160405180910390fd5b60006020828403121561071757600080fd5b5035919050565b60006020828403121561073057600080fd5b81356001600160a01b038116811461067957600080fd5b80820281158282048414176105db57634e487b7160e01b600052601160045260246000fd5b60008261078957634e487b7160e01b600052601260045260246000fd5b500490565b6000602082840312156107a057600080fd5b5051919050565b6000602082840312156107b957600080fd5b8151801515811461067957600080fd5b6000825160005b818110156107ea57602081860181015185830152016107d0565b50600092019182525091905056fea26469706673582212205668e9aa3ebc0e440be73fd2f6810f8d951fb76c0c7e7416bfbe7a9f099d307464736f6c63430008180033a26469706673582212203b9eef576ba243fb50631ab6fa27312111178a1c5b3b65026077e376502c67ba64736f6c63430008180033",
  "linkReferences": {},
  "deployedLinkReferences": {}
}