{
  "_format": "hh-sol-artifact-1",
  "contractName": "NftSturanNetwork",
  "sourceName": "contracts/NftSturanNetwork.sol",
  "abi": [
    {
      "inputs": [
        {
          "internalType": "address",
          "name": "_crowdfundingAddress",
          "type": "address"
        },
        {
          "internalType": "address",
          "name": "initialOwner",
          "type": "address"
        }
      ],
      "stateMutability": "nonpayable",
      "type": "constructor"
    },
    {
      "inputs": [
        {
          "internalType": "address",
          "name": "sender",
          "type": "address"
        },
        {
          "internalType": "uint256",
          "name": "balance",
          "type": "uint256"
        },
        {
          "internalType": "uint256",
          "name": "needed",
          "type": "uint256"
        },
        {
          "internalType": "uint256",
          "name": "tokenId",
          "type": "uint256"
        }
      ],
      "name": "ERC1155InsufficientBalance",
      "type": "error"
    },
    {
      "inputs": [
        {
          "internalType": "address",
          "name": "approver",
          "type": "address"
        }
      ],
      "name": "ERC1155InvalidApprover",
      "type": "error"
    },
    {
      "inputs": [
        {
          "internalType": "uint256",
          "name": "idsLength",
          "type": "uint256"
        },
        {
          "internalType": "uint256",
          "name": "valuesLength",
          "type": "uint256"
        }
      ],
      "name": "ERC1155InvalidArrayLength",
      "type": "error"
    },
    {
      "inputs": [
        {
          "internalType": "address",
          "name": "operator",
          "type": "address"
        }
      ],
      "name": "ERC1155InvalidOperator",
      "type": "error"
    },
    {
      "inputs": [
        {
          "internalType": "address",
          "name": "receiver",
          "type": "address"
        }
      ],
      "name": "ERC1155InvalidReceiver",
      "type": "error"
    },
    {
      "inputs": [
        {
          "internalType": "address",
          "name": "sender",
          "type": "address"
        }
      ],
      "name": "ERC1155InvalidSender",
      "type": "error"
    },
    {
      "inputs": [
        {
          "internalType": "address",
          "name": "operator",
          "type": "address"
        },
        {
          "internalType": "address",
          "name": "owner",
          "type": "address"
        }
      ],
      "name": "ERC1155MissingApprovalForAll",
      "type": "error"
    },
    {
      "inputs": [
        {
          "internalType": "address",
          "name": "owner",
          "type": "address"
        }
      ],
      "name": "OwnableInvalidOwner",
      "type": "error"
    },
    {
      "inputs": [
        {
          "internalType": "address",
          "name": "account",
          "type": "address"
        }
      ],
      "name": "OwnableUnauthorizedAccount",
      "type": "error"
    },
    {
      "anonymous": false,
      "inputs": [
        {
          "indexed": true,
          "internalType": "address",
          "name": "account",
          "type": "address"
        },
        {
          "indexed": true,
          "internalType": "address",
          "name": "operator",
          "type": "address"
        },
        {
          "indexed": false,
          "internalType": "bool",
          "name": "approved",
          "type": "bool"
        }
      ],
      "name": "ApprovalForAll",
      "type": "event"
    },
    {
      "anonymous": false,
      "inputs": [
        {
          "indexed": true,
          "internalType": "address",
          "name": "previousOwner",
          "type": "address"
        },
        {
          "indexed": true,
          "internalType": "address",
          "name": "newOwner",
          "type": "address"
        }
      ],
      "name": "OwnershipTransferred",
      "type": "event"
    },
    {
      "anonymous": false,
      "inputs": [
        {
          "indexed": true,
          "internalType": "address",
          "name": "operator",
          "type": "address"
        },
        {
          "indexed": true,
          "internalType": "address",
          "name": "from",
          "type": "address"
        },
        {
          "indexed": true,
          "internalType": "address",
          "name": "to",
          "type": "address"
        },
        {
          "indexed": false,
          "internalType": "uint256[]",
          "name": "ids",
          "type": "uint256[]"
        },
        {
          "indexed": false,
          "internalType": "uint256[]",
          "name": "values",
          "type": "uint256[]"
        }
      ],
      "name": "TransferBatch",
      "type": "event"
    },
    {
      "anonymous": false,
      "inputs": [
        {
          "indexed": true,
          "internalType": "address",
          "name": "operator",
          "type": "address"
        },
        {
          "indexed": true,
          "internalType": "address",
          "name": "from",
          "type": "address"
        },
        {
          "indexed": true,
          "internalType": "address",
          "name": "to",
          "type": "address"
        },
        {
          "indexed": false,
          "internalType": "uint256",
          "name": "id",
          "type": "uint256"
        },
        {
          "indexed": false,
          "internalType": "uint256",
          "name": "value",
          "type": "uint256"
        }
      ],
      "name": "TransferSingle",
      "type": "event"
    },
    {
      "anonymous": false,
      "inputs": [
        {
          "indexed": false,
          "internalType": "string",
          "name": "value",
          "type": "string"
        },
        {
          "indexed": true,
          "internalType": "uint256",
          "name": "id",
          "type": "uint256"
        }
      ],
      "name": "URI",
      "type": "event"
    },
    {
      "inputs": [
        {
          "internalType": "address",
          "name": "account",
          "type": "address"
        },
        {
          "internalType": "uint256",
          "name": "id",
          "type": "uint256"
        }
      ],
      "name": "balanceOf",
      "outputs": [
        {
          "internalType": "uint256",
          "name": "",
          "type": "uint256"
        }
      ],
      "stateMutability": "view",
      "type": "function"
    },
    {
      "inputs": [
        {
          "internalType": "address[]",
          "name": "accounts",
          "type": "address[]"
        },
        {
          "internalType": "uint256[]",
          "name": "ids",
          "type": "uint256[]"
        }
      ],
      "name": "balanceOfBatch",
      "outputs": [
        {
          "internalType": "uint256[]",
          "name": "",
          "type": "uint256[]"
        }
      ],
      "stateMutability": "view",
      "type": "function"
    },
    {
      "inputs": [
        {
          "internalType": "uint256",
          "name": "campaignId",
          "type": "uint256"
        },
        {
          "internalType": "uint256",
          "name": "amount",
          "type": "uint256"
        }
      ],
      "name": "claimNft",
      "outputs": [],
      "stateMutability": "nonpayable",
      "type": "function"
    },
    {
      "inputs": [
        {
          "internalType": "uint256",
          "name": "",
          "type": "uint256"
        },
        {
          "internalType": "address",
          "name": "",
          "type": "address"
        }
      ],
      "name": "hasClaimed",
      "outputs": [
        {
          "internalType": "bool",
          "name": "",
          "type": "bool"
        }
      ],
      "stateMutability": "view",
      "type": "function"
    },
    {
      "inputs": [
        {
          "internalType": "address",
          "name": "account",
          "type": "address"
        },
        {
          "internalType": "address",
          "name": "operator",
          "type": "address"
        }
      ],
      "name": "isApprovedForAll",
      "outputs": [
        {
          "internalType": "bool",
          "name": "",
          "type": "bool"
        }
      ],
      "stateMutability": "view",
      "type": "function"
    },
    {
      "inputs": [
        {
          "internalType": "uint256",
          "name": "campaignId",
          "type": "uint256"
        },
        {
          "internalType": "uint256",
          "name": "amount",
          "type": "uint256"
        },
        {
          "internalType": "bytes",
          "name": "data",
          "type": "bytes"
        },
        {
          "internalType": "string",
          "name": "_uri",
          "type": "string"
        }
      ],
      "name": "mintToOwner",
      "outputs": [],
      "stateMutability": "nonpayable",
      "type": "function"
    },
    {
      "inputs": [],
      "name": "owner",
      "outputs": [
        {
          "internalType": "address",
          "name": "",
          "type": "address"
        }
      ],
      "stateMutability": "view",
      "type": "function"
    },
    {
      "inputs": [],
      "name": "renounceOwnership",
      "outputs": [],
      "stateMutability": "nonpayable",
      "type": "function"
    },
    {
      "inputs": [
        {
          "internalType": "address",
          "name": "from",
          "type": "address"
        },
        {
          "internalType": "address",
          "name": "to",
          "type": "address"
        },
        {
          "internalType": "uint256[]",
          "name": "ids",
          "type": "uint256[]"
        },
        {
          "internalType": "uint256[]",
          "name": "values",
          "type": "uint256[]"
        },
        {
          "internalType": "bytes",
          "name": "data",
          "type": "bytes"
        }
      ],
      "name": "safeBatchTransferFrom",
      "outputs": [],
      "stateMutability": "nonpayable",
      "type": "function"
    },
    {
      "inputs": [
        {
          "internalType": "address",
          "name": "from",
          "type": "address"
        },
        {
          "internalType": "address",
          "name": "to",
          "type": "address"
        },
        {
          "internalType": "uint256",
          "name": "id",
          "type": "uint256"
        },
        {
          "internalType": "uint256",
          "name": "value",
          "type": "uint256"
        },
        {
          "internalType": "bytes",
          "name": "data",
          "type": "bytes"
        }
      ],
      "name": "safeTransferFrom",
      "outputs": [],
      "stateMutability": "nonpayable",
      "type": "function"
    },
    {
      "inputs": [
        {
          "internalType": "address",
          "name": "operator",
          "type": "address"
        },
        {
          "internalType": "bool",
          "name": "approved",
          "type": "bool"
        }
      ],
      "name": "setApprovalForAll",
      "outputs": [],
      "stateMutability": "nonpayable",
      "type": "function"
    },
    {
      "inputs": [
        {
          "internalType": "string",
          "name": "newuri",
          "type": "string"
        }
      ],
      "name": "setUri",
      "outputs": [],
      "stateMutability": "nonpayable",
      "type": "function"
    },
    {
      "inputs": [
        {
          "internalType": "bytes4",
          "name": "interfaceId",
          "type": "bytes4"
        }
      ],
      "name": "supportsInterface",
      "outputs": [
        {
          "internalType": "bool",
          "name": "",
          "type": "bool"
        }
      ],
      "stateMutability": "view",
      "type": "function"
    },
    {
      "inputs": [
        {
          "internalType": "address",
          "name": "newOwner",
          "type": "address"
        }
      ],
      "name": "transferOwnership",
      "outputs": [],
      "stateMutability": "nonpayable",
      "type": "function"
    },
    {
      "inputs": [
        {
          "internalType": "uint256",
          "name": "tokenId",
          "type": "uint256"
        }
      ],
      "name": "uri",
      "outputs": [
        {
          "internalType": "string",
          "name": "",
          "type": "string"
        }
      ],
      "stateMutability": "view",
      "type": "function"
    }
  ],
  "bytecode": "0x60806040523480156200001157600080fd5b5060405162001ae538038062001ae5833981016040819052620000349162000134565b60408051602081019091526000815281906200005081620000b3565b506001600160a01b0381166200008057604051631e4fbdf760e01b81526000600482015260240160405180910390fd5b6200008b81620000c5565b5050600480546001600160a01b0319166001600160a01b0392909216919091179055620002df565b6002620000c1828262000213565b5050565b600380546001600160a01b038381166001600160a01b0319831681179093556040519116919082907f8be0079c531659141344cd1fd0a4f28419497f9722a3daafe3b4186f6b6457e090600090a35050565b80516001600160a01b03811681146200012f57600080fd5b919050565b600080604083850312156200014857600080fd5b620001538362000117565b9150620001636020840162000117565b90509250929050565b634e487b7160e01b600052604160045260246000fd5b600181811c908216806200019757607f821691505b602082108103620001b857634e487b7160e01b600052602260045260246000fd5b50919050565b601f8211156200020e576000816000526020600020601f850160051c81016020861015620001e95750805b601f850160051c820191505b818110156200020a57828155600101620001f5565b5050505b505050565b81516001600160401b038111156200022f576200022f6200016c565b620002478162000240845462000182565b84620001be565b602080601f8311600181146200027f5760008415620002665750858301515b600019600386901b1c1916600185901b1785556200020a565b600085815260208120601f198616915b82811015620002b0578886015182559484019460019091019084016200028f565b5085821015620002cf5787850151600019600388901b60f8161c191681555b5050505050600190811b01905550565b6117f680620002ef6000396000f3fe608060405234801561001057600080fd5b50600436106100f45760003560e01c8063873f6f9e11610097578063a22cb46511610066578063a22cb46514610221578063e985e9c514610234578063f242432a14610247578063f2fde38b1461025a57600080fd5b8063873f6f9e146101b25780638da5cb5b146101e05780639b642de1146101fb5780639d6873d31461020e57600080fd5b806325e235ff116100d357806325e235ff146101625780632eb2c2d6146101775780634e1273f41461018a578063715018a6146101aa57600080fd5b8062fdd58e146100f957806301ffc9a71461011f5780630e89341c14610142575b600080fd5b61010c610107366004610f68565b61026d565b6040519081526020015b60405180910390f35b61013261012d366004610fa8565b610295565b6040519015158152602001610116565b610155610150366004610fc5565b6102e5565b6040516101169190611024565b610175610170366004611037565b6103a3565b005b6101756101853660046111a3565b610525565b61019d61019836600461124d565b61058c565b6040516101169190611349565b610175610659565b6101326101c036600461135c565b600560209081526000928352604080842090915290825290205460ff1681565b6003546040516001600160a01b039091168152602001610116565b610175610209366004611388565b61066d565b61017561021c3660046113c5565b610681565b61017561022f36600461144a565b6106a5565b610132610242366004611481565b6106b4565b6101756102553660046114ab565b6106e2565b610175610268366004611510565b610741565b6000818152602081815260408083206001600160a01b03861684529091529020545b92915050565b60006001600160e01b03198216636cdb3d1360e11b14806102c657506001600160e01b031982166303a24d0760e21b145b8061028f57506301ffc9a760e01b6001600160e01b031983161461028f565b6000818152600660205260408120805460609291906103039061152b565b80601f016020809104026020016040519081016040528092919081815260200182805461032f9061152b565b801561037c5780601f106103515761010080835404028352916020019161037c565b820191906000526020600020905b81548152906001019060200180831161035f57829003601f168201915b50505050509050600081511161039a576103958361077c565b61039c565b805b9392505050565b600082815260056020908152604080832033845290915290205460ff16156104205760405162461bcd60e51b815260206004820152602560248201527f4e465420616c726561647920636c61696d656420666f7220746869732063616d6044820152643830b4b3b760d91b60648201526084015b60405180910390fd5b6004805460405163e597d6fd60e01b815233928101929092526000916001600160a01b039091169063e597d6fd906024016040805180830381865afa15801561046d573d6000803e3d6000fd5b505050506040513d601f19601f820116820180604052508101906104919190611565565b509050806104e15760405162461bcd60e51b815260206004820152601b60248201527f4164647265737320686173206e6f7420636f6e747269627574656400000000006044820152606401610417565b600083815260056020908152604080832033808552908352818420805460ff191660011790558151928301909152918152610520919085908590610810565b505050565b336001600160a01b0386168114801590610546575061054486826106b4565b155b156105775760405163711bec9160e11b81526001600160a01b03808316600483015287166024820152604401610417565b610584868686868661086d565b505050505050565b606081518351146105bd5781518351604051635b05999160e01b815260048101929092526024820152604401610417565b6000835167ffffffffffffffff8111156105d9576105d9611059565b604051908082528060200260200182016040528015610602578160200160208202803683370190505b50905060005b84518110156106515760208082028601015161062c9060208084028701015161026d565b82828151811061063e5761063e611593565b6020908102919091010152600101610608565b509392505050565b6106616108d4565b61066b6000610901565b565b6106756108d4565b61067e81610953565b50565b6106896108d4565b61069533858585610810565b61069f848261095f565b50505050565b6106b03383836109b4565b5050565b6001600160a01b03918216600090815260016020908152604080832093909416825291909152205460ff1690565b336001600160a01b0386168114801590610703575061070186826106b4565b155b156107345760405163711bec9160e11b81526001600160a01b03808316600483015287166024820152604401610417565b6105848686868686610a4a565b6107496108d4565b6001600160a01b03811661077357604051631e4fbdf760e01b815260006004820152602401610417565b61067e81610901565b60606002805461078b9061152b565b80601f01602080910402602001604051908101604052809291908181526020018280546107b79061152b565b80156108045780601f106107d957610100808354040283529160200191610804565b820191906000526020600020905b8154815290600101906020018083116107e757829003601f168201915b50505050509050919050565b6001600160a01b03841661083a57604051632bfa23e760e11b815260006004820152602401610417565b60408051600180825260208201869052818301908152606082018590526080820190925290610584600087848487610ad8565b6001600160a01b03841661089757604051632bfa23e760e11b815260006004820152602401610417565b6001600160a01b0385166108c057604051626a0d4560e21b815260006004820152602401610417565b6108cd8585858585610ad8565b5050505050565b6003546001600160a01b0316331461066b5760405163118cdaa760e01b8152336004820152602401610417565b600380546001600160a01b038381166001600160a01b0319831681179093556040519116919082907f8be0079c531659141344cd1fd0a4f28419497f9722a3daafe3b4186f6b6457e090600090a35050565b60026106b082826115f1565b600082815260066020526040902061097782826115f1565b50817f6bb7ff708619ba0610cba295a58592e0451dee2622938c8755667688daf3529b826040516109a89190611024565b60405180910390a25050565b6001600160a01b0382166109dd5760405162ced3e160e81b815260006004820152602401610417565b6001600160a01b03838116600081815260016020908152604080832094871680845294825291829020805460ff191686151590811790915591519182527f17307eab39ab6107e8899845ad3d59bd9653f200f220920489ca2b5937696c31910160405180910390a3505050565b6001600160a01b038416610a7457604051632bfa23e760e11b815260006004820152602401610417565b6001600160a01b038516610a9d57604051626a0d4560e21b815260006004820152602401610417565b60408051600180825260208201869052818301908152606082018590526080820190925290610acf8787848487610ad8565b50505050505050565b610ae485858585610b2b565b6001600160a01b038416156108cd5782513390600103610b1d5760208481015190840151610b16838989858589610d3f565b5050610584565b610584818787878787610e63565b8051825114610b5a5781518151604051635b05999160e01b815260048101929092526024820152604401610417565b3360005b8351811015610c60576020818102858101820151908501909101516001600160a01b03881615610c11576000828152602081815260408083206001600160a01b038c16845290915290205481811015610bea576040516303dee4c560e01b81526001600160a01b038a166004820152602481018290526044810183905260648101849052608401610417565b6000838152602081815260408083206001600160a01b038d16845290915290209082900390555b6001600160a01b03871615610c56576000828152602081815260408083206001600160a01b038b16845290915281208054839290610c509084906116b1565b90915550505b5050600101610b5e565b508251600103610ce15760208301516000906020840151909150856001600160a01b0316876001600160a01b0316846001600160a01b03167fc3d58168c5ae7397731d063d5bbf3d657854427343f4c083240f7aacaa2d0f628585604051610cd2929190918252602082015260400190565b60405180910390a450506108cd565b836001600160a01b0316856001600160a01b0316826001600160a01b03167f4a39dc06d4c0dbc64b70af90fd698a233a518aa5d07e595d983b8c0526c8f7fb8686604051610d309291906116d2565b60405180910390a45050505050565b6001600160a01b0384163b156105845760405163f23a6e6160e01b81526001600160a01b0385169063f23a6e6190610d839089908990889088908890600401611700565b6020604051808303816000875af1925050508015610dbe575060408051601f3d908101601f19168201909252610dbb91810190611745565b60015b610e27573d808015610dec576040519150601f19603f3d011682016040523d82523d6000602084013e610df1565b606091505b508051600003610e1f57604051632bfa23e760e11b81526001600160a01b0386166004820152602401610417565b805181602001fd5b6001600160e01b0319811663f23a6e6160e01b14610acf57604051632bfa23e760e11b81526001600160a01b0386166004820152602401610417565b6001600160a01b0384163b156105845760405163bc197c8160e01b81526001600160a01b0385169063bc197c8190610ea79089908990889088908890600401611762565b6020604051808303816000875af1925050508015610ee2575060408051601f3d908101601f19168201909252610edf91810190611745565b60015b610f10573d808015610dec576040519150601f19603f3d011682016040523d82523d6000602084013e610df1565b6001600160e01b0319811663bc197c8160e01b14610acf57604051632bfa23e760e11b81526001600160a01b0386166004820152602401610417565b80356001600160a01b0381168114610f6357600080fd5b919050565b60008060408385031215610f7b57600080fd5b610f8483610f4c565b946020939093013593505050565b6001600160e01b03198116811461067e57600080fd5b600060208284031215610fba57600080fd5b813561039c81610f92565b600060208284031215610fd757600080fd5b5035919050565b6000815180845260005b8181101561100457602081850181015186830182015201610fe8565b506000602082860101526020601f19601f83011685010191505092915050565b60208152600061039c6020830184610fde565b6000806040838503121561104a57600080fd5b50508035926020909101359150565b634e487b7160e01b600052604160045260246000fd5b604051601f8201601f1916810167ffffffffffffffff8111828210171561109857611098611059565b604052919050565b600067ffffffffffffffff8211156110ba576110ba611059565b5060051b60200190565b600082601f8301126110d557600080fd5b813560206110ea6110e5836110a0565b61106f565b8083825260208201915060208460051b87010193508684111561110c57600080fd5b602086015b848110156111285780358352918301918301611111565b509695505050505050565b600082601f83011261114457600080fd5b813567ffffffffffffffff81111561115e5761115e611059565b611171601f8201601f191660200161106f565b81815284602083860101111561118657600080fd5b816020850160208301376000918101602001919091529392505050565b600080600080600060a086880312156111bb57600080fd5b6111c486610f4c565b94506111d260208701610f4c565b9350604086013567ffffffffffffffff808211156111ef57600080fd5b6111fb89838a016110c4565b9450606088013591508082111561121157600080fd5b61121d89838a016110c4565b9350608088013591508082111561123357600080fd5b5061124088828901611133565b9150509295509295909350565b6000806040838503121561126057600080fd5b823567ffffffffffffffff8082111561127857600080fd5b818501915085601f83011261128c57600080fd5b8135602061129c6110e5836110a0565b82815260059290921b840181019181810190898411156112bb57600080fd5b948201945b838610156112e0576112d186610f4c565b825294820194908201906112c0565b965050860135925050808211156112f657600080fd5b50611303858286016110c4565b9150509250929050565b60008151808452602080850194506020840160005b8381101561133e57815187529582019590820190600101611322565b509495945050505050565b60208152600061039c602083018461130d565b6000806040838503121561136f57600080fd5b8235915061137f60208401610f4c565b90509250929050565b60006020828403121561139a57600080fd5b813567ffffffffffffffff8111156113b157600080fd5b6113bd84828501611133565b949350505050565b600080600080608085870312156113db57600080fd5b8435935060208501359250604085013567ffffffffffffffff8082111561140157600080fd5b61140d88838901611133565b9350606087013591508082111561142357600080fd5b5061143087828801611133565b91505092959194509250565b801515811461067e57600080fd5b6000806040838503121561145d57600080fd5b61146683610f4c565b915060208301356114768161143c565b809150509250929050565b6000806040838503121561149457600080fd5b61149d83610f4c565b915061137f60208401610f4c565b600080600080600060a086880312156114c357600080fd5b6114cc86610f4c565b94506114da60208701610f4c565b93506040860135925060608601359150608086013567ffffffffffffffff81111561150457600080fd5b61124088828901611133565b60006020828403121561152257600080fd5b61039c82610f4c565b600181811c9082168061153f57607f821691505b60208210810361155f57634e487b7160e01b600052602260045260246000fd5b50919050565b6000806040838503121561157857600080fd5b82516115838161143c565b6020939093015192949293505050565b634e487b7160e01b600052603260045260246000fd5b601f821115610520576000816000526020600020601f850160051c810160208610156115d25750805b601f850160051c820191505b81811015610584578281556001016115de565b815167ffffffffffffffff81111561160b5761160b611059565b61161f81611619845461152b565b846115a9565b602080601f831160018114611654576000841561163c5750858301515b600019600386901b1c1916600185901b178555610584565b600085815260208120601f198616915b8281101561168357888601518255948401946001909101908401611664565b50858210156116a15787850151600019600388901b60f8161c191681555b5050505050600190811b01905550565b8082018082111561028f57634e487b7160e01b600052601160045260246000fd5b6040815260006116e5604083018561130d565b82810360208401526116f7818561130d565b95945050505050565b6001600160a01b03868116825285166020820152604081018490526060810183905260a06080820181905260009061173a90830184610fde565b979650505050505050565b60006020828403121561175757600080fd5b815161039c81610f92565b6001600160a01b0386811682528516602082015260a06040820181905260009061178e9083018661130d565b82810360608401526117a0818661130d565b905082810360808401526117b48185610fde565b9897505050505050505056fea26469706673582212203d907b529b5c5f95b40f715afd0c8aec1dd5751bb1df46a79132f09d1fb10e2e64736f6c63430008180033",
  "linkReferences": {},
  "deployedLinkReferences": {}
}