{
    "_format": "hh-sol-artifact-1",
    "contractName": "NftSturanNetwork",
    "sourceName": "contracts/NftSturanNetwork.sol",
    "abi": [
        {
            "inputs": [
                {
                    "internalType": "address",
                    "name": "initialOwner",
                    "type": "address"
                },
                {
                    "internalType": "address",
                    "name": "_crowdfundingAddress",
                    "type": "address"
                }
            ],
            "stateMutability": "nonpayable",
            "type": "constructor"
        },
        {
            "inputs": [
                {
                    "internalType": "address",
                    "name": "sender",
                    "type": "address"
                },
                {
                    "internalType": "uint256",
                    "name": "balance",
                    "type": "uint256"
                },
                {
                    "internalType": "uint256",
                    "name": "needed",
                    "type": "uint256"
                },
                {
                    "internalType": "uint256",
                    "name": "tokenId",
                    "type": "uint256"
                }
            ],
            "name": "ERC1155InsufficientBalance",
            "type": "error"
        },
        {
            "inputs": [
                {
                    "internalType": "address",
                    "name": "approver",
                    "type": "address"
                }
            ],
            "name": "ERC1155InvalidApprover",
            "type": "error"
        },
        {
            "inputs": [
                {
                    "internalType": "uint256",
                    "name": "idsLength",
                    "type": "uint256"
                },
                {
                    "internalType": "uint256",
                    "name": "valuesLength",
                    "type": "uint256"
                }
            ],
            "name": "ERC1155InvalidArrayLength",
            "type": "error"
        },
        {
            "inputs": [
                {
                    "internalType": "address",
                    "name": "operator",
                    "type": "address"
                }
            ],
            "name": "ERC1155InvalidOperator",
            "type": "error"
        },
        {
            "inputs": [
                {
                    "internalType": "address",
                    "name": "receiver",
                    "type": "address"
                }
            ],
            "name": "ERC1155InvalidReceiver",
            "type": "error"
        },
        {
            "inputs": [
                {
                    "internalType": "address",
                    "name": "sender",
                    "type": "address"
                }
            ],
            "name": "ERC1155InvalidSender",
            "type": "error"
        },
        {
            "inputs": [
                {
                    "internalType": "address",
                    "name": "operator",
                    "type": "address"
                },
                {
                    "internalType": "address",
                    "name": "owner",
                    "type": "address"
                }
            ],
            "name": "ERC1155MissingApprovalForAll",
            "type": "error"
        },
        {
            "inputs": [
                {
                    "internalType": "address",
                    "name": "owner",
                    "type": "address"
                }
            ],
            "name": "OwnableInvalidOwner",
            "type": "error"
        },
        {
            "inputs": [
                {
                    "internalType": "address",
                    "name": "account",
                    "type": "address"
                }
            ],
            "name": "OwnableUnauthorizedAccount",
            "type": "error"
        },
        {
            "anonymous": false,
            "inputs": [
                {
                    "indexed": true,
                    "internalType": "address",
                    "name": "account",
                    "type": "address"
                },
                {
                    "indexed": true,
                    "internalType": "address",
                    "name": "operator",
                    "type": "address"
                },
                {
                    "indexed": false,
                    "internalType": "bool",
                    "name": "approved",
                    "type": "bool"
                }
            ],
            "name": "ApprovalForAll",
            "type": "event"
        },
        {
            "anonymous": false,
            "inputs": [
                {
                    "indexed": true,
                    "internalType": "address",
                    "name": "previousOwner",
                    "type": "address"
                },
                {
                    "indexed": true,
                    "internalType": "address",
                    "name": "newOwner",
                    "type": "address"
                }
            ],
            "name": "OwnershipTransferred",
            "type": "event"
        },
        {
            "anonymous": false,
            "inputs": [
                {
                    "indexed": true,
                    "internalType": "address",
                    "name": "operator",
                    "type": "address"
                },
                {
                    "indexed": true,
                    "internalType": "address",
                    "name": "from",
                    "type": "address"
                },
                {
                    "indexed": true,
                    "internalType": "address",
                    "name": "to",
                    "type": "address"
                },
                {
                    "indexed": false,
                    "internalType": "uint256[]",
                    "name": "ids",
                    "type": "uint256[]"
                },
                {
                    "indexed": false,
                    "internalType": "uint256[]",
                    "name": "values",
                    "type": "uint256[]"
                }
            ],
            "name": "TransferBatch",
            "type": "event"
        },
        {
            "anonymous": false,
            "inputs": [
                {
                    "indexed": true,
                    "internalType": "address",
                    "name": "operator",
                    "type": "address"
                },
                {
                    "indexed": true,
                    "internalType": "address",
                    "name": "from",
                    "type": "address"
                },
                {
                    "indexed": true,
                    "internalType": "address",
                    "name": "to",
                    "type": "address"
                },
                {
                    "indexed": false,
                    "internalType": "uint256",
                    "name": "id",
                    "type": "uint256"
                },
                {
                    "indexed": false,
                    "internalType": "uint256",
                    "name": "value",
                    "type": "uint256"
                }
            ],
            "name": "TransferSingle",
            "type": "event"
        },
        {
            "anonymous": false,
            "inputs": [
                {
                    "indexed": false,
                    "internalType": "string",
                    "name": "value",
                    "type": "string"
                },
                {
                    "indexed": true,
                    "internalType": "uint256",
                    "name": "id",
                    "type": "uint256"
                }
            ],
            "name": "URI",
            "type": "event"
        },
        {
            "inputs": [],
            "name": "GOLDTIER",
            "outputs": [
                {
                    "internalType": "uint256",
                    "name": "",
                    "type": "uint256"
                }
            ],
            "stateMutability": "view",
            "type": "function"
        },
        {
            "inputs": [],
            "name": "SILVERTIER",
            "outputs": [
                {
                    "internalType": "uint256",
                    "name": "",
                    "type": "uint256"
                }
            ],
            "stateMutability": "view",
            "type": "function"
        },
        {
            "inputs": [
                {
                    "internalType": "address",
                    "name": "account",
                    "type": "address"
                },
                {
                    "internalType": "uint256",
                    "name": "id",
                    "type": "uint256"
                }
            ],
            "name": "balanceOf",
            "outputs": [
                {
                    "internalType": "uint256",
                    "name": "",
                    "type": "uint256"
                }
            ],
            "stateMutability": "view",
            "type": "function"
        },
        {
            "inputs": [
                {
                    "internalType": "address[]",
                    "name": "accounts",
                    "type": "address[]"
                },
                {
                    "internalType": "uint256[]",
                    "name": "ids",
                    "type": "uint256[]"
                }
            ],
            "name": "balanceOfBatch",
            "outputs": [
                {
                    "internalType": "uint256[]",
                    "name": "",
                    "type": "uint256[]"
                }
            ],
            "stateMutability": "view",
            "type": "function"
        },
        {
            "inputs": [
                {
                    "internalType": "address",
                    "name": "account",
                    "type": "address"
                }
            ],
            "name": "canMint",
            "outputs": [
                {
                    "internalType": "bool",
                    "name": "",
                    "type": "bool"
                }
            ],
            "stateMutability": "view",
            "type": "function"
        },
        {
            "inputs": [
                {
                    "internalType": "address",
                    "name": "account",
                    "type": "address"
                },
                {
                    "internalType": "address",
                    "name": "operator",
                    "type": "address"
                }
            ],
            "name": "isApprovedForAll",
            "outputs": [
                {
                    "internalType": "bool",
                    "name": "",
                    "type": "bool"
                }
            ],
            "stateMutability": "view",
            "type": "function"
        },
        {
            "inputs": [
                {
                    "internalType": "address",
                    "name": "account",
                    "type": "address"
                },
                {
                    "internalType": "uint256",
                    "name": "id",
                    "type": "uint256"
                },
                {
                    "internalType": "uint256",
                    "name": "amount",
                    "type": "uint256"
                },
                {
                    "internalType": "bytes",
                    "name": "data",
                    "type": "bytes"
                }
            ],
            "name": "mint",
            "outputs": [],
            "stateMutability": "nonpayable",
            "type": "function"
        },
        {
            "inputs": [],
            "name": "owner",
            "outputs": [
                {
                    "internalType": "address",
                    "name": "",
                    "type": "address"
                }
            ],
            "stateMutability": "view",
            "type": "function"
        },
        {
            "inputs": [],
            "name": "renounceOwnership",
            "outputs": [],
            "stateMutability": "nonpayable",
            "type": "function"
        },
        {
            "inputs": [
                {
                    "internalType": "address",
                    "name": "from",
                    "type": "address"
                },
                {
                    "internalType": "address",
                    "name": "to",
                    "type": "address"
                },
                {
                    "internalType": "uint256[]",
                    "name": "ids",
                    "type": "uint256[]"
                },
                {
                    "internalType": "uint256[]",
                    "name": "values",
                    "type": "uint256[]"
                },
                {
                    "internalType": "bytes",
                    "name": "data",
                    "type": "bytes"
                }
            ],
            "name": "safeBatchTransferFrom",
            "outputs": [],
            "stateMutability": "nonpayable",
            "type": "function"
        },
        {
            "inputs": [
                {
                    "internalType": "address",
                    "name": "from",
                    "type": "address"
                },
                {
                    "internalType": "address",
                    "name": "to",
                    "type": "address"
                },
                {
                    "internalType": "uint256",
                    "name": "id",
                    "type": "uint256"
                },
                {
                    "internalType": "uint256",
                    "name": "value",
                    "type": "uint256"
                },
                {
                    "internalType": "bytes",
                    "name": "data",
                    "type": "bytes"
                }
            ],
            "name": "safeTransferFrom",
            "outputs": [],
            "stateMutability": "nonpayable",
            "type": "function"
        },
        {
            "inputs": [
                {
                    "internalType": "address",
                    "name": "operator",
                    "type": "address"
                },
                {
                    "internalType": "bool",
                    "name": "approved",
                    "type": "bool"
                }
            ],
            "name": "setApprovalForAll",
            "outputs": [],
            "stateMutability": "nonpayable",
            "type": "function"
        },
        {
            "inputs": [
                {
                    "internalType": "string",
                    "name": "newuri",
                    "type": "string"
                }
            ],
            "name": "setURI",
            "outputs": [],
            "stateMutability": "nonpayable",
            "type": "function"
        },
        {
            "inputs": [
                {
                    "internalType": "bytes4",
                    "name": "interfaceId",
                    "type": "bytes4"
                }
            ],
            "name": "supportsInterface",
            "outputs": [
                {
                    "internalType": "bool",
                    "name": "",
                    "type": "bool"
                }
            ],
            "stateMutability": "view",
            "type": "function"
        },
        {
            "inputs": [
                {
                    "internalType": "address",
                    "name": "newOwner",
                    "type": "address"
                }
            ],
            "name": "transferOwnership",
            "outputs": [],
            "stateMutability": "nonpayable",
            "type": "function"
        },
        {
            "inputs": [
                {
                    "internalType": "uint256",
                    "name": "",
                    "type": "uint256"
                }
            ],
            "name": "uri",
            "outputs": [
                {
                    "internalType": "string",
                    "name": "",
                    "type": "string"
                }
            ],
            "stateMutability": "view",
            "type": "function"
        }
    ],
    "bytecode": "0x60806040523480156200001157600080fd5b506040516200202c3803806200202c8339810160408190526200003491620006a0565b8160405180606001604052806038815260200162001ff4603891396200005a8162000102565b506001600160a01b0381166200008b57604051631e4fbdf760e01b8152600060048201526024015b60405180910390fd5b620000968162000114565b50600480546001600160a01b0319166001600160a01b038316179055604080516020810190915260008152620000d490339060019060c89062000166565b620000fa3360026103e8604051806020016040528060008152506200016660201b60201c565b505062000a05565b60026200011082826200077b565b5050565b600380546001600160a01b038381166001600160a01b0319831681179093556040519116919082907f8be0079c531659141344cd1fd0a4f28419497f9722a3daafe3b4186f6b6457e090600090a35050565b6001600160a01b0384166200019257604051632bfa23e760e11b81526000600482015260240162000082565b60408051600180825260208201869052818301908152606082018590526080820190925290620001c7600087848487620001cf565b505050505050565b620001dd8585858562000232565b6001600160a01b038416156200022b57825133906001036200021b57602084810151908401516200021383898985858962000455565b5050620001c7565b620001c78187878787876200058f565b5050505050565b8051825114620002635781518151604051635b05999160e01b81526004810192909252602482015260440162000082565b3360005b835181101562000371576020818102858101820151908501909101516001600160a01b038816156200031e576000828152602081815260408083206001600160a01b038c16845290915290205481811015620002f7576040516303dee4c560e01b81526001600160a01b038a16600482015260248101829052604481018390526064810184905260840162000082565b6000838152602081815260408083206001600160a01b038d16845290915290209082900390555b6001600160a01b0387161562000366576000828152602081815260408083206001600160a01b038b168452909152812080548392906200036090849062000847565b90915550505b505060010162000267565b508251600103620003f55760208301516000906020840151909150856001600160a01b0316876001600160a01b0316846001600160a01b03167fc3d58168c5ae7397731d063d5bbf3d657854427343f4c083240f7aacaa2d0f628585604051620003e5929190918252602082015260400190565b60405180910390a450506200022b565b836001600160a01b0316856001600160a01b0316826001600160a01b03167f4a39dc06d4c0dbc64b70af90fd698a233a518aa5d07e595d983b8c0526c8f7fb868660405162000446929190620008ad565b60405180910390a45050505050565b6001600160a01b0384163b15620001c75760405163f23a6e6160e01b81526001600160a01b0385169063f23a6e61906200049c908990899088908890889060040162000927565b6020604051808303816000875af1925050508015620004da575060408051601f3d908101601f19168201909252620004d7918101906200096e565b60015b62000548573d8080156200050b576040519150601f19603f3d011682016040523d82523d6000602084013e62000510565b606091505b5080516000036200054057604051632bfa23e760e11b81526001600160a01b038616600482015260240162000082565b805181602001fd5b6001600160e01b0319811663f23a6e6160e01b146200058657604051632bfa23e760e11b81526001600160a01b038616600482015260240162000082565b50505050505050565b6001600160a01b0384163b15620001c75760405163bc197c8160e01b81526001600160a01b0385169063bc197c8190620005d69089908990889088908890600401620009a1565b6020604051808303816000875af192505050801562000614575060408051601f3d908101601f1916820190925262000611918101906200096e565b60015b62000645573d8080156200050b576040519150601f19603f3d011682016040523d82523d6000602084013e62000510565b6001600160e01b0319811663bc197c8160e01b146200058657604051632bfa23e760e11b81526001600160a01b038616600482015260240162000082565b80516001600160a01b03811681146200069b57600080fd5b919050565b60008060408385031215620006b457600080fd5b620006bf8362000683565b9150620006cf6020840162000683565b90509250929050565b634e487b7160e01b600052604160045260246000fd5b600181811c908216806200070357607f821691505b6020821081036200072457634e487b7160e01b600052602260045260246000fd5b50919050565b601f82111562000776576000816000526020600020601f850160051c81016020861015620007555750805b601f850160051c820191505b81811015620001c75782815560010162000761565b505050565b81516001600160401b03811115620007975762000797620006d8565b620007af81620007a88454620006ee565b846200072a565b602080601f831160018114620007e75760008415620007ce5750858301515b600019600386901b1c1916600185901b178555620001c7565b600085815260208120601f198616915b828110156200081857888601518255948401946001909101908401620007f7565b5085821015620008375787850151600019600388901b60f8161c191681555b5050505050600190811b01905550565b808201808211156200086957634e487b7160e01b600052601160045260246000fd5b92915050565b60008151808452602080850194506020840160005b83811015620008a25781518752958201959082019060010162000884565b509495945050505050565b604081526000620008c260408301856200086f565b8281036020840152620008d681856200086f565b95945050505050565b6000815180845260005b818110156200090757602081850181015186830182015201620008e9565b506000602082860101526020601f19601f83011685010191505092915050565b6001600160a01b03868116825285166020820152604081018490526060810183905260a0608082018190526000906200096390830184620008df565b979650505050505050565b6000602082840312156200098157600080fd5b81516001600160e01b0319811681146200099a57600080fd5b9392505050565b6001600160a01b0386811682528516602082015260a060408201819052600090620009cf908301866200086f565b8281036060840152620009e381866200086f565b90508281036080840152620009f98185620008df565b98975050505050505050565b6115df8062000a156000396000f3fe608060405234801561001057600080fd5b50600436106100ff5760003560e01c8063715018a611610097578063c2ba474411610066578063c2ba47441461020e578063e985e9c514610221578063f242432a14610234578063f2fde38b1461024757600080fd5b8063715018a6146101c5578063731133e9146101cd5780638da5cb5b146101e0578063a22cb465146101fb57600080fd5b80630e89341c116100d35780630e89341c1461016a5780631d12e2581461018a5780632eb2c2d6146101925780634e1273f4146101a557600080fd5b8062fdd58e1461010457806301ffc9a71461012a57806302fe53051461014d578063047b0b5b14610162575b600080fd5b610117610112366004610d9c565b61025a565b6040519081526020015b60405180910390f35b61013d610138366004610ddc565b610282565b6040519015158152602001610121565b61016061015b366004610e98565b6102d2565b005b610117600281565b61017d610178366004610ee9565b6102e6565b6040516101219190610f48565b610117600181565b6101606101a036600461100e565b61037a565b6101b86101b33660046110b8565b6103e6565b60405161012191906111b4565b6101606104b3565b6101606101db3660046111c7565b6104c7565b6003546040516001600160a01b039091168152602001610121565b610160610209366004611236565b610545565b61013d61021c36600461126d565b610554565b61013d61022f366004611288565b6105d1565b6101606102423660046112bb565b6105ff565b61016061025536600461126d565b61065e565b6000818152602081815260408083206001600160a01b03861684529091529020545b92915050565b60006001600160e01b03198216636cdb3d1360e11b14806102b357506001600160e01b031982166303a24d0760e21b145b8061027c57506301ffc9a760e01b6001600160e01b031983161461027c565b6102da610699565b6102e3816106c6565b50565b6060600280546102f590611320565b80601f016020809104026020016040519081016040528092919081815260200182805461032190611320565b801561036e5780601f106103435761010080835404028352916020019161036e565b820191906000526020600020905b81548152906001019060200180831161035157829003601f168201915b50505050509050919050565b336001600160a01b038616811480159061039b575061039986826105d1565b155b156103d15760405163711bec9160e11b81526001600160a01b038083166004830152871660248201526044015b60405180910390fd5b6103de86868686866106d2565b505050505050565b606081518351146104175781518351604051635b05999160e01b8152600481019290925260248201526044016103c8565b6000835167ffffffffffffffff81111561043357610433610df9565b60405190808252806020026020018201604052801561045c578160200160208202803683370190505b50905060005b84518110156104ab576020808202860101516104869060208084028701015161025a565b8282815181106104985761049861135a565b6020908102919091010152600101610462565b509392505050565b6104bb610699565b6104c56000610739565b565b6104cf610699565b6104d884610554565b6105335760405162461bcd60e51b815260206004820152602660248201527f557365722063616e6e6f74206d696e7420776974686f75742066756e64696e6760448201526508199a5c9cdd60d21b60648201526084016103c8565b61053f8484848461078b565b50505050565b6105503383836107e8565b5050565b6004805460405163e597d6fd60e01b81526001600160a01b038481169382019390935260009290911690819063e597d6fd90602401602060405180830381865afa1580156105a6573d6000803e3d6000fd5b505050506040513d601f19601f820116820180604052508101906105ca9190611370565b9392505050565b6001600160a01b03918216600090815260016020908152604080832093909416825291909152205460ff1690565b336001600160a01b0386168114801590610620575061061e86826105d1565b155b156106515760405163711bec9160e11b81526001600160a01b038083166004830152871660248201526044016103c8565b6103de868686868661087e565b610666610699565b6001600160a01b03811661069057604051631e4fbdf760e01b8152600060048201526024016103c8565b6102e381610739565b6003546001600160a01b031633146104c55760405163118cdaa760e01b81523360048201526024016103c8565b600261055082826113da565b6001600160a01b0384166106fc57604051632bfa23e760e11b8152600060048201526024016103c8565b6001600160a01b03851661072557604051626a0d4560e21b8152600060048201526024016103c8565b610732858585858561090c565b5050505050565b600380546001600160a01b038381166001600160a01b0319831681179093556040519116919082907f8be0079c531659141344cd1fd0a4f28419497f9722a3daafe3b4186f6b6457e090600090a35050565b6001600160a01b0384166107b557604051632bfa23e760e11b8152600060048201526024016103c8565b604080516001808252602082018690528183019081526060820185905260808201909252906103de60008784848761090c565b6001600160a01b0382166108115760405162ced3e160e81b8152600060048201526024016103c8565b6001600160a01b03838116600081815260016020908152604080832094871680845294825291829020805460ff191686151590811790915591519182527f17307eab39ab6107e8899845ad3d59bd9653f200f220920489ca2b5937696c31910160405180910390a3505050565b6001600160a01b0384166108a857604051632bfa23e760e11b8152600060048201526024016103c8565b6001600160a01b0385166108d157604051626a0d4560e21b8152600060048201526024016103c8565b60408051600180825260208201869052818301908152606082018590526080820190925290610903878784848761090c565b50505050505050565b6109188585858561095f565b6001600160a01b038416156107325782513390600103610951576020848101519084015161094a838989858589610b73565b50506103de565b6103de818787878787610c97565b805182511461098e5781518151604051635b05999160e01b8152600481019290925260248201526044016103c8565b3360005b8351811015610a94576020818102858101820151908501909101516001600160a01b03881615610a45576000828152602081815260408083206001600160a01b038c16845290915290205481811015610a1e576040516303dee4c560e01b81526001600160a01b038a1660048201526024810182905260448101839052606481018490526084016103c8565b6000838152602081815260408083206001600160a01b038d16845290915290209082900390555b6001600160a01b03871615610a8a576000828152602081815260408083206001600160a01b038b16845290915281208054839290610a8490849061149a565b90915550505b5050600101610992565b508251600103610b155760208301516000906020840151909150856001600160a01b0316876001600160a01b0316846001600160a01b03167fc3d58168c5ae7397731d063d5bbf3d657854427343f4c083240f7aacaa2d0f628585604051610b06929190918252602082015260400190565b60405180910390a45050610732565b836001600160a01b0316856001600160a01b0316826001600160a01b03167f4a39dc06d4c0dbc64b70af90fd698a233a518aa5d07e595d983b8c0526c8f7fb8686604051610b649291906114bb565b60405180910390a45050505050565b6001600160a01b0384163b156103de5760405163f23a6e6160e01b81526001600160a01b0385169063f23a6e6190610bb790899089908890889088906004016114e9565b6020604051808303816000875af1925050508015610bf2575060408051601f3d908101601f19168201909252610bef9181019061152e565b60015b610c5b573d808015610c20576040519150601f19603f3d011682016040523d82523d6000602084013e610c25565b606091505b508051600003610c5357604051632bfa23e760e11b81526001600160a01b03861660048201526024016103c8565b805181602001fd5b6001600160e01b0319811663f23a6e6160e01b1461090357604051632bfa23e760e11b81526001600160a01b03861660048201526024016103c8565b6001600160a01b0384163b156103de5760405163bc197c8160e01b81526001600160a01b0385169063bc197c8190610cdb908990899088908890889060040161154b565b6020604051808303816000875af1925050508015610d16575060408051601f3d908101601f19168201909252610d139181019061152e565b60015b610d44573d808015610c20576040519150601f19603f3d011682016040523d82523d6000602084013e610c25565b6001600160e01b0319811663bc197c8160e01b1461090357604051632bfa23e760e11b81526001600160a01b03861660048201526024016103c8565b80356001600160a01b0381168114610d9757600080fd5b919050565b60008060408385031215610daf57600080fd5b610db883610d80565b946020939093013593505050565b6001600160e01b0319811681146102e357600080fd5b600060208284031215610dee57600080fd5b81356105ca81610dc6565b634e487b7160e01b600052604160045260246000fd5b604051601f8201601f1916810167ffffffffffffffff81118282101715610e3857610e38610df9565b604052919050565b600067ffffffffffffffff831115610e5a57610e5a610df9565b610e6d601f8401601f1916602001610e0f565b9050828152838383011115610e8157600080fd5b828260208301376000602084830101529392505050565b600060208284031215610eaa57600080fd5b813567ffffffffffffffff811115610ec157600080fd5b8201601f81018413610ed257600080fd5b610ee184823560208401610e40565b949350505050565b600060208284031215610efb57600080fd5b5035919050565b6000815180845260005b81811015610f2857602081850181015186830182015201610f0c565b506000602082860101526020601f19601f83011685010191505092915050565b6020815260006105ca6020830184610f02565b600067ffffffffffffffff821115610f7557610f75610df9565b5060051b60200190565b600082601f830112610f9057600080fd5b81356020610fa5610fa083610f5b565b610e0f565b8083825260208201915060208460051b870101935086841115610fc757600080fd5b602086015b84811015610fe35780358352918301918301610fcc565b509695505050505050565b600082601f830112610fff57600080fd5b6105ca83833560208501610e40565b600080600080600060a0868803121561102657600080fd5b61102f86610d80565b945061103d60208701610d80565b9350604086013567ffffffffffffffff8082111561105a57600080fd5b61106689838a01610f7f565b9450606088013591508082111561107c57600080fd5b61108889838a01610f7f565b9350608088013591508082111561109e57600080fd5b506110ab88828901610fee565b9150509295509295909350565b600080604083850312156110cb57600080fd5b823567ffffffffffffffff808211156110e357600080fd5b818501915085601f8301126110f757600080fd5b81356020611107610fa083610f5b565b82815260059290921b8401810191818101908984111561112657600080fd5b948201945b8386101561114b5761113c86610d80565b8252948201949082019061112b565b9650508601359250508082111561116157600080fd5b5061116e85828601610f7f565b9150509250929050565b60008151808452602080850194506020840160005b838110156111a95781518752958201959082019060010161118d565b509495945050505050565b6020815260006105ca6020830184611178565b600080600080608085870312156111dd57600080fd5b6111e685610d80565b93506020850135925060408501359150606085013567ffffffffffffffff81111561121057600080fd5b61121c87828801610fee565b91505092959194509250565b80151581146102e357600080fd5b6000806040838503121561124957600080fd5b61125283610d80565b9150602083013561126281611228565b809150509250929050565b60006020828403121561127f57600080fd5b6105ca82610d80565b6000806040838503121561129b57600080fd5b6112a483610d80565b91506112b260208401610d80565b90509250929050565b600080600080600060a086880312156112d357600080fd5b6112dc86610d80565b94506112ea60208701610d80565b93506040860135925060608601359150608086013567ffffffffffffffff81111561131457600080fd5b6110ab88828901610fee565b600181811c9082168061133457607f821691505b60208210810361135457634e487b7160e01b600052602260045260246000fd5b50919050565b634e487b7160e01b600052603260045260246000fd5b60006020828403121561138257600080fd5b81516105ca81611228565b601f8211156113d5576000816000526020600020601f850160051c810160208610156113b65750805b601f850160051c820191505b818110156103de578281556001016113c2565b505050565b815167ffffffffffffffff8111156113f4576113f4610df9565b611408816114028454611320565b8461138d565b602080601f83116001811461143d57600084156114255750858301515b600019600386901b1c1916600185901b1785556103de565b600085815260208120601f198616915b8281101561146c5788860151825594840194600190910190840161144d565b508582101561148a5787850151600019600388901b60f8161c191681555b5050505050600190811b01905550565b8082018082111561027c57634e487b7160e01b600052601160045260246000fd5b6040815260006114ce6040830185611178565b82810360208401526114e08185611178565b95945050505050565b6001600160a01b03868116825285166020820152604081018490526060810183905260a06080820181905260009061152390830184610f02565b979650505050505050565b60006020828403121561154057600080fd5b81516105ca81610dc6565b6001600160a01b0386811682528516602082015260a06040820181905260009061157790830186611178565b82810360608401526115898186611178565b9050828103608084015261159d8185610f02565b9897505050505050505056fea264697066735822122087a64991853e768103c0603f2f55c4a5cd34046d3a025306158d931e5d0e40f764736f6c6343000818003368747470733a2f2f6c696d652d6269672d636f72616c2d3533332e6d7970696e6174612e636c6f75642f697066732f7b69647d2e6a736f6e",
    "linkReferences": {},
    "deployedLinkReferences": {}
}