{
  "_format": "hh-sol-artifact-1",
  "contractName": "Crowdfunding",
  "sourceName": "contracts/Crowdfunding.sol",
  "abi": [
    {
      "inputs": [
        {
          "internalType": "address",
          "name": "_tokenAddress",
          "type": "address"
        },
        {
          "internalType": "address",
          "name": "initialOwner",
          "type": "address"
        }
      ],
      "stateMutability": "payable",
      "type": "constructor"
    },
    {
      "inputs": [
        {
          "internalType": "address",
          "name": "owner",
          "type": "address"
        }
      ],
      "name": "OwnableInvalidOwner",
      "type": "error"
    },
    {
      "inputs": [
        {
          "internalType": "address",
          "name": "account",
          "type": "address"
        }
      ],
      "name": "OwnableUnauthorizedAccount",
      "type": "error"
    },
    {
      "anonymous": false,
      "inputs": [
        {
          "indexed": true,
          "internalType": "uint256",
          "name": "campaignId",
          "type": "uint256"
        },
        {
          "indexed": false,
          "internalType": "string",
          "name": "name",
          "type": "string"
        },
        {
          "indexed": false,
          "internalType": "uint256",
          "name": "amountRaised",
          "type": "uint256"
        }
      ],
      "name": "CampaignClosed",
      "type": "event"
    },
    {
      "anonymous": false,
      "inputs": [
        {
          "indexed": true,
          "internalType": "uint256",
          "name": "id",
          "type": "uint256"
        },
        {
          "indexed": false,
          "internalType": "string",
          "name": "name",
          "type": "string"
        },
        {
          "indexed": false,
          "internalType": "uint256",
          "name": "goal",
          "type": "uint256"
        },
        {
          "indexed": false,
          "internalType": "uint256",
          "name": "duration",
          "type": "uint256"
        }
      ],
      "name": "CampaignCreated",
      "type": "event"
    },
    {
      "anonymous": false,
      "inputs": [
        {
          "indexed": true,
          "internalType": "uint256",
          "name": "campaignId",
          "type": "uint256"
        },
        {
          "indexed": false,
          "internalType": "address",
          "name": "contributor",
          "type": "address"
        },
        {
          "indexed": false,
          "internalType": "uint256",
          "name": "amount",
          "type": "uint256"
        }
      ],
      "name": "ContributionMade",
      "type": "event"
    },
    {
      "anonymous": false,
      "inputs": [
        {
          "indexed": true,
          "internalType": "uint256",
          "name": "campaignId",
          "type": "uint256"
        },
        {
          "indexed": true,
          "internalType": "address",
          "name": "contributor",
          "type": "address"
        },
        {
          "indexed": false,
          "internalType": "uint256",
          "name": "amount",
          "type": "uint256"
        }
      ],
      "name": "ContributionRefunded",
      "type": "event"
    },
    {
      "anonymous": false,
      "inputs": [
        {
          "indexed": true,
          "internalType": "address",
          "name": "previousOwner",
          "type": "address"
        },
        {
          "indexed": true,
          "internalType": "address",
          "name": "newOwner",
          "type": "address"
        }
      ],
      "name": "OwnershipTransferred",
      "type": "event"
    },
    {
      "inputs": [
        {
          "internalType": "string",
          "name": "name",
          "type": "string"
        },
        {
          "internalType": "uint256",
          "name": "goal",
          "type": "uint256"
        },
        {
          "internalType": "uint256",
          "name": "maxContribution",
          "type": "uint256"
        },
        {
          "internalType": "uint256",
          "name": "maxContributor",
          "type": "uint256"
        },
        {
          "internalType": "uint256",
          "name": "duration",
          "type": "uint256"
        }
      ],
      "name": "addCampaign",
      "outputs": [],
      "stateMutability": "nonpayable",
      "type": "function"
    },
    {
      "inputs": [
        {
          "internalType": "uint256",
          "name": "",
          "type": "uint256"
        }
      ],
      "name": "campaigns",
      "outputs": [
        {
          "internalType": "uint256",
          "name": "id",
          "type": "uint256"
        },
        {
          "internalType": "string",
          "name": "name",
          "type": "string"
        },
        {
          "internalType": "uint256",
          "name": "goal",
          "type": "uint256"
        },
        {
          "internalType": "uint256",
          "name": "maxContribution",
          "type": "uint256"
        },
        {
          "internalType": "uint256",
          "name": "maxContrubutor",
          "type": "uint256"
        },
        {
          "internalType": "uint256",
          "name": "duration",
          "type": "uint256"
        },
        {
          "internalType": "uint256",
          "name": "startTime",
          "type": "uint256"
        },
        {
          "internalType": "uint256",
          "name": "endTime",
          "type": "uint256"
        },
        {
          "internalType": "bool",
          "name": "isOpen",
          "type": "bool"
        }
      ],
      "stateMutability": "view",
      "type": "function"
    },
    {
      "inputs": [
        {
          "internalType": "uint256",
          "name": "campaignId",
          "type": "uint256"
        }
      ],
      "name": "closeCampaign",
      "outputs": [],
      "stateMutability": "nonpayable",
      "type": "function"
    },
    {
      "inputs": [
        {
          "internalType": "uint256",
          "name": "campaignId",
          "type": "uint256"
        },
        {
          "internalType": "uint256",
          "name": "amount",
          "type": "uint256"
        }
      ],
      "name": "contribute",
      "outputs": [],
      "stateMutability": "nonpayable",
      "type": "function"
    },
    {
      "inputs": [
        {
          "internalType": "address",
          "name": "",
          "type": "address"
        }
      ],
      "name": "contributorCampaigns",
      "outputs": [
        {
          "internalType": "uint256",
          "name": "",
          "type": "uint256"
        }
      ],
      "stateMutability": "view",
      "type": "function"
    },
    {
      "inputs": [
        {
          "internalType": "uint256",
          "name": "campaignId",
          "type": "uint256"
        }
      ],
      "name": "getCampaignById",
      "outputs": [
        {
          "internalType": "uint256",
          "name": "id",
          "type": "uint256"
        },
        {
          "internalType": "string",
          "name": "name",
          "type": "string"
        },
        {
          "internalType": "uint256",
          "name": "goal",
          "type": "uint256"
        },
        {
          "internalType": "uint256",
          "name": "maxContribution",
          "type": "uint256"
        },
        {
          "internalType": "uint256",
          "name": "maxContributor",
          "type": "uint256"
        },
        {
          "internalType": "uint256",
          "name": "duration",
          "type": "uint256"
        },
        {
          "internalType": "uint256",
          "name": "startTime",
          "type": "uint256"
        },
        {
          "internalType": "uint256",
          "name": "endTime",
          "type": "uint256"
        },
        {
          "internalType": "bool",
          "name": "isOpen",
          "type": "bool"
        },
        {
          "internalType": "address[]",
          "name": "contributors",
          "type": "address[]"
        },
        {
          "internalType": "uint256[]",
          "name": "contributions",
          "type": "uint256[]"
        }
      ],
      "stateMutability": "view",
      "type": "function"
    },
    {
      "inputs": [],
      "name": "getCampaignCount",
      "outputs": [
        {
          "internalType": "uint256",
          "name": "",
          "type": "uint256"
        }
      ],
      "stateMutability": "view",
      "type": "function"
    },
    {
      "inputs": [
        {
          "internalType": "uint256",
          "name": "campaignId",
          "type": "uint256"
        }
      ],
      "name": "getCampaignDetails",
      "outputs": [
        {
          "internalType": "string",
          "name": "name",
          "type": "string"
        },
        {
          "internalType": "uint256",
          "name": "goal",
          "type": "uint256"
        },
        {
          "internalType": "uint256",
          "name": "maxContribution",
          "type": "uint256"
        },
        {
          "internalType": "uint256",
          "name": "maxContributor",
          "type": "uint256"
        },
        {
          "internalType": "uint256",
          "name": "duration",
          "type": "uint256"
        },
        {
          "internalType": "uint256",
          "name": "startTime",
          "type": "uint256"
        },
        {
          "internalType": "uint256",
          "name": "endTime",
          "type": "uint256"
        },
        {
          "internalType": "bool",
          "name": "isOpen",
          "type": "bool"
        }
      ],
      "stateMutability": "view",
      "type": "function"
    },
    {
      "inputs": [
        {
          "internalType": "address",
          "name": "account",
          "type": "address"
        }
      ],
      "name": "getContributorStatus",
      "outputs": [
        {
          "internalType": "bool",
          "name": "",
          "type": "bool"
        },
        {
          "internalType": "uint256",
          "name": "",
          "type": "uint256"
        }
      ],
      "stateMutability": "view",
      "type": "function"
    },
    {
      "inputs": [
        {
          "internalType": "uint256",
          "name": "campaignId",
          "type": "uint256"
        }
      ],
      "name": "getContributors",
      "outputs": [
        {
          "internalType": "address[]",
          "name": "",
          "type": "address[]"
        }
      ],
      "stateMutability": "view",
      "type": "function"
    },
    {
      "inputs": [],
      "name": "owner",
      "outputs": [
        {
          "internalType": "address",
          "name": "",
          "type": "address"
        }
      ],
      "stateMutability": "view",
      "type": "function"
    },
    {
      "inputs": [
        {
          "internalType": "uint256",
          "name": "campaignId",
          "type": "uint256"
        }
      ],
      "name": "refund",
      "outputs": [],
      "stateMutability": "nonpayable",
      "type": "function"
    },
    {
      "inputs": [],
      "name": "renounceOwnership",
      "outputs": [],
      "stateMutability": "nonpayable",
      "type": "function"
    },
    {
      "inputs": [
        {
          "internalType": "address",
          "name": "newOwner",
          "type": "address"
        }
      ],
      "name": "transferOwnership",
      "outputs": [],
      "stateMutability": "nonpayable",
      "type": "function"
    },
    {
      "inputs": [
        {
          "internalType": "address",
          "name": "to",
          "type": "address"
        },
        {
          "internalType": "uint256",
          "name": "amount",
          "type": "uint256"
        }
      ],
      "name": "withdrawToken",
      "outputs": [],
      "stateMutability": "nonpayable",
      "type": "function"
    }
  ],
  "bytecode": "0x6080604052604051620016cd380380620016cd8339810160408190526200002691620000f6565b806001600160a01b0381166200005657604051631e4fbdf760e01b81526000600482015260240160405180910390fd5b620000618162000089565b5050600180546001600160a01b0319166001600160a01b03929092169190911790556200012e565b600080546001600160a01b038381166001600160a01b0319831681178455604051919092169283917f8be0079c531659141344cd1fd0a4f28419497f9722a3daafe3b4186f6b6457e09190a35050565b80516001600160a01b0381168114620000f157600080fd5b919050565b600080604083850312156200010a57600080fd5b6200011583620000d9565b91506200012560208401620000d9565b90509250929050565b61158f806200013e6000396000f3fe608060405234801561001057600080fd5b50600436106100f55760003560e01c80638da5cb5b11610097578063e597d6fd11610066578063e597d6fd14610219578063e667546514610243578063e6ffcaa114610256578063f2fde38b1461028057600080fd5b80638da5cb5b146101b15780639e281a98146101cc578063b0e1c1e1146101df578063d993de62146101f257600080fd5b80633c1ab00f116100d35780633c1ab00f1461016e5780636caa92181461018e578063715018a6146101965780638c5909171461019e57600080fd5b8063141961bc146100fa578063278ecde11461012b578063389a1d3a14610140575b600080fd5b61010d610108366004610f64565b610293565b60405161012299989796959493929190610fc3565b60405180910390f35b61013e610139366004610f64565b61037a565b005b61016061014e366004611034565b60036020526000908152604090205481565b604051908152602001610122565b61018161017c366004610f64565b61056f565b604051610122919061109b565b600254610160565b61013e6105f5565b61013e6101ac3660046110ae565b610609565b6000546040516001600160a01b039091168152602001610122565b61013e6101da3660046110d0565b6108df565b61013e6101ed366004610f64565b610963565b610205610200366004610f64565b610a36565b6040516101229897969594939291906110fa565b61022c610227366004611034565b610b43565b604080519215158352602083019190915201610122565b61013e61025136600461115d565b610b87565b610269610264366004610f64565b610c60565b6040516101229b9a9998979695949392919061122b565b61013e61028e366004611034565b610ea9565b600281815481106102a357600080fd5b60009182526020909120600b909102018054600182018054919350906102c8906112d9565b80601f01602080910402602001604051908101604052809291908181526020018280546102f4906112d9565b80156103415780601f1061031657610100808354040283529160200191610341565b820191906000526020600020905b81548152906001019060200180831161032457829003601f168201915b50505050600283015460038401546004850154600586015460068701546007880154600890980154969794969395509193909260ff1689565b60006002828154811061038f5761038f611313565b60009182526020909120600b90910201600881015490915060ff16156103f55760405162461bcd60e51b815260206004820152601660248201527521b0b6b830b4b3b71034b99039ba34b6361037b832b760511b60448201526064015b60405180910390fd5b80600701544210156104495760405162461bcd60e51b815260206004820152601960248201527f43616d706169676e206973206e6f7420656e646564207965740000000000000060448201526064016103ec565b336000908152600a82016020526040902054806104a85760405162461bcd60e51b815260206004820152601960248201527f4e6f20636f6e747269627574696f6e20746f20726566756e640000000000000060448201526064016103ec565b336000818152600a8401602052604080822091909155600154905163a9059cbb60e01b81526004810192909252602482018390526001600160a01b03169063a9059cbb906044016020604051808303816000875af115801561050e573d6000803e3d6000fd5b505050506040513d601f19601f820116820180604052508101906105329190611329565b50604051818152339084907ffc8dc45aafeb84bf841ffa6c1b48653bea5b43662ab6685b9683e2e5b72fc74f9060200160405180910390a3505050565b60606002828154811061058457610584611313565b90600052602060002090600b02016009018054806020026020016040519081016040528092919081815260200182805480156105e957602002820191906000526020600020905b81546001600160a01b031681526001909101906020018083116105cb575b50505050509050919050565b6105fd610ee7565b6106076000610f14565b565b60006002838154811061061e5761061e611313565b60009182526020909120600b90910201600881015490915060ff1661067c5760405162461bcd60e51b815260206004820152601460248201527321b0b6b830b4b3b71034b9903737ba1037b832b760611b60448201526064016103ec565b806007015442106106c45760405162461bcd60e51b815260206004820152601260248201527110d85b5c185a59db881a5cc818db1bdcd95960721b60448201526064016103ec565b6003810154336000908152600a830160205260409020546106e6908490611361565b11156107495760405162461bcd60e51b815260206004820152602c60248201527f45786365656473206d6178696d756d20636f6e747269627574696f6e2070657260448201526b1031b7b73a3934b13aba37b960a11b60648201526084016103ec565b60048101546009820154106107a05760405162461bcd60e51b815260206004820152601c60248201527f45786365656473206d6178696d756d20636f6e7472696275746f72730000000060448201526064016103ec565b6001546040516323b872dd60e01b8152336004820152306024820152604481018490526001600160a01b03909116906323b872dd906064016020604051808303816000875af11580156107f7573d6000803e3d6000fd5b505050506040513d601f19601f8201168201806040525081019061081b9190611329565b50336000908152600a820160205260408120805484929061083d908490611361565b9091555050336000908152600a8201602052604090205482900361089f5760098101805460018181018355600092835260209092200180546001600160a01b0319163317905561088e908490611361565b336000908152600360205260409020555b604080513381526020810184905284917f0a4a91237423e0a1766a761c7cb029311d8b95d6b1b81db1b949a70c98b4e08e910160405180910390a2505050565b6108e7610ee7565b60015460405163a9059cbb60e01b81526001600160a01b038481166004830152602482018490529091169063a9059cbb906044016020604051808303816000875af115801561093a573d6000803e3d6000fd5b505050506040513d601f19601f8201168201806040525081019061095e9190611329565b505050565b61096b610ee7565b60006002828154811061098057610980611313565b60009182526020909120600b90910201600881015490915060ff166109e75760405162461bcd60e51b815260206004820152601a60248201527f43616d706169676e20697320616c726561647920636c6f73656400000000000060448201526064016103ec565b60088101805460ff1916905560405182907f8458b28c04c9dc08e322a4e1d72faf95d899a917357387ceb5f95cb0d36a22ab90610a2a906001850190479061137a565b60405180910390a25050565b606060008060008060008060008060028a81548110610a5757610a57611313565b90600052602060002090600b02019050806001018160020154826003015483600401548460050154856006015486600701548760080160009054906101000a900460ff16878054610aa7906112d9565b80601f0160208091040260200160405190810160405280929190818152602001828054610ad3906112d9565b8015610b205780601f10610af557610100808354040283529160200191610b20565b820191906000526020600020905b815481529060010190602001808311610b0357829003601f168201915b505050505097509850985098509850985098509850985050919395975091939597565b6001600160a01b0381166000908152600360205260408120548190808203610b715750600093849350915050565b6001610b7d8183611411565b9250925050915091565b610b8f610ee7565b6002805460018101808355600083815291929083908110610bb257610bb2611313565b60009182526020909120600b90910201828155905060018101610bd58882611474565b50600281018690556003810185905560048101849055600581018390554260068201819055610c05908490611361565b600782015560088101805460ff1916600117905560405182907f02fe3fddd43aad14ae5c30d5d694f19ecb065dfde85bb591b91e8af1448724d290610c4f908a908a908890611534565b60405180910390a250505050505050565b600060606000806000806000806000606080600060028d81548110610c8757610c87611313565b90600052602060002090600b020190506000816009018054905067ffffffffffffffff811115610cb957610cb9611147565b604051908082528060200260200182016040528015610ce2578160200160208202803683370190505b50905060005b6009830154811015610d5b5782600a016000846009018381548110610d0f57610d0f611313565b60009182526020808320909101546001600160a01b031683528201929092526040019020548251839083908110610d4857610d48611313565b6020908102919091010152600101610ce8565b508160000154826001018360020154846003015485600401548660050154876006015488600701548960080160009054906101000a900460ff168a6009018a898054610da6906112d9565b80601f0160208091040260200160405190810160405280929190818152602001828054610dd2906112d9565b8015610e1f5780601f10610df457610100808354040283529160200191610e1f565b820191906000526020600020905b815481529060010190602001808311610e0257829003601f168201915b5050505050995081805480602002602001604051908101604052809291908181526020018280548015610e7b57602002820191906000526020600020905b81546001600160a01b03168152600190910190602001808311610e5d575b505050505091509c509c509c509c509c509c509c509c509c509c509c50505091939597999b90929496989a50565b610eb1610ee7565b6001600160a01b038116610edb57604051631e4fbdf760e01b8152600060048201526024016103ec565b610ee481610f14565b50565b6000546001600160a01b031633146106075760405163118cdaa760e01b81523360048201526024016103ec565b600080546001600160a01b038381166001600160a01b0319831681178455604051919092169283917f8be0079c531659141344cd1fd0a4f28419497f9722a3daafe3b4186f6b6457e09190a35050565b600060208284031215610f7657600080fd5b5035919050565b6000815180845260005b81811015610fa357602081850181015186830182015201610f87565b506000602082860101526020601f19601f83011685010191505092915050565b60006101208b8352806020840152610fdd8184018c610f7d565b604084019a909a5250506060810196909652608086019490945260a085019290925260c084015260e083015215156101009091015292915050565b80356001600160a01b038116811461102f57600080fd5b919050565b60006020828403121561104657600080fd5b61104f82611018565b9392505050565b60008151808452602080850194506020840160005b838110156110905781516001600160a01b03168752958201959082019060010161106b565b509495945050505050565b60208152600061104f6020830184611056565b600080604083850312156110c157600080fd5b50508035926020909101359150565b600080604083850312156110e357600080fd5b6110ec83611018565b946020939093013593505050565b600061010080835261110e8184018c610f7d565b602084019a909a52505060408101969096526060860194909452608085019290925260a084015260c0830152151560e090910152919050565b634e487b7160e01b600052604160045260246000fd5b600080600080600060a0868803121561117557600080fd5b853567ffffffffffffffff8082111561118d57600080fd5b818801915088601f8301126111a157600080fd5b8135818111156111b3576111b3611147565b604051601f8201601f19908116603f011681019083821181831017156111db576111db611147565b816040528281528b60208487010111156111f457600080fd5b82602086016020830137600060209382018401529b918a01359a505060408901359860608101359850608001359650945050505050565b60006101608d835260208160208501526112478285018f610f7d565b91508c60408501528b60608501528a60808501528960a08501528860c08501528760e08501528615156101008501528382036101208501526112898287611056565b8481036101408601528551808252602080880194509091019060005b818110156112c1578451835293830193918301916001016112a5565b50508093505050509c9b505050505050505050505050565b600181811c908216806112ed57607f821691505b60208210810361130d57634e487b7160e01b600052602260045260246000fd5b50919050565b634e487b7160e01b600052603260045260246000fd5b60006020828403121561133b57600080fd5b8151801515811461104f57600080fd5b634e487b7160e01b600052601160045260246000fd5b808201808211156113745761137461134b565b92915050565b60408152600080845461138c816112d9565b80604086015260606001808416600081146113ae57600181146113ca576113fc565b60ff1985166060890152606084151560051b89010195506113fc565b8960005260208060002060005b868110156113f25781548b82018701529084019082016113d7565b8a01606001975050505b50505050506020929092019290925292915050565b818103818111156113745761137461134b565b601f82111561095e576000816000526020600020601f850160051c8101602086101561144d5750805b601f850160051c820191505b8181101561146c57828155600101611459565b505050505050565b815167ffffffffffffffff81111561148e5761148e611147565b6114a28161149c84546112d9565b84611424565b602080601f8311600181146114d757600084156114bf5750858301515b600019600386901b1c1916600185901b17855561146c565b600085815260208120601f198616915b82811015611506578886015182559484019460019091019084016114e7565b50858210156115245787850151600019600388901b60f8161c191681555b5050505050600190811b01905550565b6060815260006115476060830186610f7d565b6020830194909452506040015291905056fea26469706673582212207cd3876a320d0d7fb36d3e71465f1b2f4e3e8f39dffb808c5628143ce354e3e764736f6c63430008180033",
  "linkReferences": {},
  "deployedLinkReferences": {}
}