{
  "_format": "hh-sol-artifact-1",
  "contractName": "SturanNetworkNfts",
  "sourceName": "contracts/SturanNetworkNfts.sol",
  "abi": [
    {
      "inputs": [
        {
          "internalType": "address",
          "name": "initialOwner",
          "type": "address"
        },
        {
          "internalType": "address",
          "name": "_crowdfundingContract",
          "type": "address"
        }
      ],
      "stateMutability": "nonpayable",
      "type": "constructor"
    },
    {
      "inputs": [
        {
          "internalType": "address",
          "name": "sender",
          "type": "address"
        },
        {
          "internalType": "uint256",
          "name": "balance",
          "type": "uint256"
        },
        {
          "internalType": "uint256",
          "name": "needed",
          "type": "uint256"
        },
        {
          "internalType": "uint256",
          "name": "tokenId",
          "type": "uint256"
        }
      ],
      "name": "ERC1155InsufficientBalance",
      "type": "error"
    },
    {
      "inputs": [
        {
          "internalType": "address",
          "name": "approver",
          "type": "address"
        }
      ],
      "name": "ERC1155InvalidApprover",
      "type": "error"
    },
    {
      "inputs": [
        {
          "internalType": "uint256",
          "name": "idsLength",
          "type": "uint256"
        },
        {
          "internalType": "uint256",
          "name": "valuesLength",
          "type": "uint256"
        }
      ],
      "name": "ERC1155InvalidArrayLength",
      "type": "error"
    },
    {
      "inputs": [
        {
          "internalType": "address",
          "name": "operator",
          "type": "address"
        }
      ],
      "name": "ERC1155InvalidOperator",
      "type": "error"
    },
    {
      "inputs": [
        {
          "internalType": "address",
          "name": "receiver",
          "type": "address"
        }
      ],
      "name": "ERC1155InvalidReceiver",
      "type": "error"
    },
    {
      "inputs": [
        {
          "internalType": "address",
          "name": "sender",
          "type": "address"
        }
      ],
      "name": "ERC1155InvalidSender",
      "type": "error"
    },
    {
      "inputs": [
        {
          "internalType": "address",
          "name": "operator",
          "type": "address"
        },
        {
          "internalType": "address",
          "name": "owner",
          "type": "address"
        }
      ],
      "name": "ERC1155MissingApprovalForAll",
      "type": "error"
    },
    {
      "inputs": [],
      "name": "EnforcedPause",
      "type": "error"
    },
    {
      "inputs": [],
      "name": "ExpectedPause",
      "type": "error"
    },
    {
      "inputs": [
        {
          "internalType": "address",
          "name": "owner",
          "type": "address"
        }
      ],
      "name": "OwnableInvalidOwner",
      "type": "error"
    },
    {
      "inputs": [
        {
          "internalType": "address",
          "name": "account",
          "type": "address"
        }
      ],
      "name": "OwnableUnauthorizedAccount",
      "type": "error"
    },
    {
      "anonymous": false,
      "inputs": [
        {
          "indexed": true,
          "internalType": "address",
          "name": "account",
          "type": "address"
        },
        {
          "indexed": true,
          "internalType": "address",
          "name": "operator",
          "type": "address"
        },
        {
          "indexed": false,
          "internalType": "bool",
          "name": "approved",
          "type": "bool"
        }
      ],
      "name": "ApprovalForAll",
      "type": "event"
    },
    {
      "anonymous": false,
      "inputs": [
        {
          "indexed": true,
          "internalType": "address",
          "name": "previousOwner",
          "type": "address"
        },
        {
          "indexed": true,
          "internalType": "address",
          "name": "newOwner",
          "type": "address"
        }
      ],
      "name": "OwnershipTransferred",
      "type": "event"
    },
    {
      "anonymous": false,
      "inputs": [
        {
          "indexed": false,
          "internalType": "address",
          "name": "account",
          "type": "address"
        }
      ],
      "name": "Paused",
      "type": "event"
    },
    {
      "anonymous": false,
      "inputs": [
        {
          "indexed": true,
          "internalType": "address",
          "name": "operator",
          "type": "address"
        },
        {
          "indexed": true,
          "internalType": "address",
          "name": "from",
          "type": "address"
        },
        {
          "indexed": true,
          "internalType": "address",
          "name": "to",
          "type": "address"
        },
        {
          "indexed": false,
          "internalType": "uint256[]",
          "name": "ids",
          "type": "uint256[]"
        },
        {
          "indexed": false,
          "internalType": "uint256[]",
          "name": "values",
          "type": "uint256[]"
        }
      ],
      "name": "TransferBatch",
      "type": "event"
    },
    {
      "anonymous": false,
      "inputs": [
        {
          "indexed": true,
          "internalType": "address",
          "name": "operator",
          "type": "address"
        },
        {
          "indexed": true,
          "internalType": "address",
          "name": "from",
          "type": "address"
        },
        {
          "indexed": true,
          "internalType": "address",
          "name": "to",
          "type": "address"
        },
        {
          "indexed": false,
          "internalType": "uint256",
          "name": "id",
          "type": "uint256"
        },
        {
          "indexed": false,
          "internalType": "uint256",
          "name": "value",
          "type": "uint256"
        }
      ],
      "name": "TransferSingle",
      "type": "event"
    },
    {
      "anonymous": false,
      "inputs": [
        {
          "indexed": false,
          "internalType": "string",
          "name": "value",
          "type": "string"
        },
        {
          "indexed": true,
          "internalType": "uint256",
          "name": "id",
          "type": "uint256"
        }
      ],
      "name": "URI",
      "type": "event"
    },
    {
      "anonymous": false,
      "inputs": [
        {
          "indexed": false,
          "internalType": "address",
          "name": "account",
          "type": "address"
        }
      ],
      "name": "Unpaused",
      "type": "event"
    },
    {
      "inputs": [
        {
          "internalType": "uint256",
          "name": "campaignId",
          "type": "uint256"
        }
      ],
      "name": "allowListMint",
      "outputs": [],
      "stateMutability": "payable",
      "type": "function"
    },
    {
      "inputs": [],
      "name": "allowListPrice",
      "outputs": [
        {
          "internalType": "uint256",
          "name": "",
          "type": "uint256"
        }
      ],
      "stateMutability": "view",
      "type": "function"
    },
    {
      "inputs": [
        {
          "internalType": "address",
          "name": "account",
          "type": "address"
        },
        {
          "internalType": "uint256",
          "name": "id",
          "type": "uint256"
        }
      ],
      "name": "balanceOf",
      "outputs": [
        {
          "internalType": "uint256",
          "name": "",
          "type": "uint256"
        }
      ],
      "stateMutability": "view",
      "type": "function"
    },
    {
      "inputs": [
        {
          "internalType": "address[]",
          "name": "accounts",
          "type": "address[]"
        },
        {
          "internalType": "uint256[]",
          "name": "ids",
          "type": "uint256[]"
        }
      ],
      "name": "balanceOfBatch",
      "outputs": [
        {
          "internalType": "uint256[]",
          "name": "",
          "type": "uint256[]"
        }
      ],
      "stateMutability": "view",
      "type": "function"
    },
    {
      "inputs": [
        {
          "internalType": "uint256",
          "name": "",
          "type": "uint256"
        }
      ],
      "name": "campaignEnded",
      "outputs": [
        {
          "internalType": "bool",
          "name": "",
          "type": "bool"
        }
      ],
      "stateMutability": "view",
      "type": "function"
    },
    {
      "inputs": [
        {
          "internalType": "uint256",
          "name": "campaignId",
          "type": "uint256"
        },
        {
          "internalType": "uint256",
          "name": "id",
          "type": "uint256"
        }
      ],
      "name": "claimNFT",
      "outputs": [],
      "stateMutability": "payable",
      "type": "function"
    },
    {
      "inputs": [],
      "name": "crowdfundingContract",
      "outputs": [
        {
          "internalType": "contract ICrowdfunding",
          "name": "",
          "type": "address"
        }
      ],
      "stateMutability": "view",
      "type": "function"
    },
    {
      "inputs": [
        {
          "internalType": "uint256",
          "name": "campaignId",
          "type": "uint256"
        }
      ],
      "name": "endCampaign",
      "outputs": [],
      "stateMutability": "nonpayable",
      "type": "function"
    },
    {
      "inputs": [
        {
          "internalType": "uint256",
          "name": "id",
          "type": "uint256"
        }
      ],
      "name": "exists",
      "outputs": [
        {
          "internalType": "bool",
          "name": "",
          "type": "bool"
        }
      ],
      "stateMutability": "view",
      "type": "function"
    },
    {
      "inputs": [
        {
          "internalType": "uint256",
          "name": "",
          "type": "uint256"
        },
        {
          "internalType": "address",
          "name": "",
          "type": "address"
        }
      ],
      "name": "hasMinted",
      "outputs": [
        {
          "internalType": "bool",
          "name": "",
          "type": "bool"
        }
      ],
      "stateMutability": "view",
      "type": "function"
    },
    {
      "inputs": [
        {
          "internalType": "address",
          "name": "account",
          "type": "address"
        },
        {
          "internalType": "address",
          "name": "operator",
          "type": "address"
        }
      ],
      "name": "isApprovedForAll",
      "outputs": [
        {
          "internalType": "bool",
          "name": "",
          "type": "bool"
        }
      ],
      "stateMutability": "view",
      "type": "function"
    },
    {
      "inputs": [
        {
          "internalType": "uint256",
          "name": "id",
          "type": "uint256"
        },
        {
          "internalType": "uint256",
          "name": "amount",
          "type": "uint256"
        }
      ],
      "name": "mint",
      "outputs": [],
      "stateMutability": "payable",
      "type": "function"
    },
    {
      "inputs": [
        {
          "internalType": "address",
          "name": "to",
          "type": "address"
        },
        {
          "internalType": "uint256[]",
          "name": "ids",
          "type": "uint256[]"
        },
        {
          "internalType": "uint256[]",
          "name": "amounts",
          "type": "uint256[]"
        },
        {
          "internalType": "bytes",
          "name": "data",
          "type": "bytes"
        }
      ],
      "name": "mintBatch",
      "outputs": [],
      "stateMutability": "nonpayable",
      "type": "function"
    },
    {
      "inputs": [],
      "name": "owner",
      "outputs": [
        {
          "internalType": "address",
          "name": "",
          "type": "address"
        }
      ],
      "stateMutability": "view",
      "type": "function"
    },
    {
      "inputs": [],
      "name": "pause",
      "outputs": [],
      "stateMutability": "nonpayable",
      "type": "function"
    },
    {
      "inputs": [],
      "name": "paused",
      "outputs": [
        {
          "internalType": "bool",
          "name": "",
          "type": "bool"
        }
      ],
      "stateMutability": "view",
      "type": "function"
    },
    {
      "inputs": [],
      "name": "renounceOwnership",
      "outputs": [],
      "stateMutability": "nonpayable",
      "type": "function"
    },
    {
      "inputs": [
        {
          "internalType": "address",
          "name": "from",
          "type": "address"
        },
        {
          "internalType": "address",
          "name": "to",
          "type": "address"
        },
        {
          "internalType": "uint256[]",
          "name": "ids",
          "type": "uint256[]"
        },
        {
          "internalType": "uint256[]",
          "name": "values",
          "type": "uint256[]"
        },
        {
          "internalType": "bytes",
          "name": "data",
          "type": "bytes"
        }
      ],
      "name": "safeBatchTransferFrom",
      "outputs": [],
      "stateMutability": "nonpayable",
      "type": "function"
    },
    {
      "inputs": [
        {
          "internalType": "address",
          "name": "from",
          "type": "address"
        },
        {
          "internalType": "address",
          "name": "to",
          "type": "address"
        },
        {
          "internalType": "uint256",
          "name": "id",
          "type": "uint256"
        },
        {
          "internalType": "uint256",
          "name": "value",
          "type": "uint256"
        },
        {
          "internalType": "bytes",
          "name": "data",
          "type": "bytes"
        }
      ],
      "name": "safeTransferFrom",
      "outputs": [],
      "stateMutability": "nonpayable",
      "type": "function"
    },
    {
      "inputs": [
        {
          "internalType": "address",
          "name": "operator",
          "type": "address"
        },
        {
          "internalType": "bool",
          "name": "approved",
          "type": "bool"
        }
      ],
      "name": "setApprovalForAll",
      "outputs": [],
      "stateMutability": "nonpayable",
      "type": "function"
    },
    {
      "inputs": [
        {
          "internalType": "string",
          "name": "newuri",
          "type": "string"
        }
      ],
      "name": "setURI",
      "outputs": [],
      "stateMutability": "nonpayable",
      "type": "function"
    },
    {
      "inputs": [
        {
          "internalType": "bytes4",
          "name": "interfaceId",
          "type": "bytes4"
        }
      ],
      "name": "supportsInterface",
      "outputs": [
        {
          "internalType": "bool",
          "name": "",
          "type": "bool"
        }
      ],
      "stateMutability": "view",
      "type": "function"
    },
    {
      "inputs": [],
      "name": "totalSupply",
      "outputs": [
        {
          "internalType": "uint256",
          "name": "",
          "type": "uint256"
        }
      ],
      "stateMutability": "view",
      "type": "function"
    },
    {
      "inputs": [
        {
          "internalType": "uint256",
          "name": "id",
          "type": "uint256"
        }
      ],
      "name": "totalSupply",
      "outputs": [
        {
          "internalType": "uint256",
          "name": "",
          "type": "uint256"
        }
      ],
      "stateMutability": "view",
      "type": "function"
    },
    {
      "inputs": [
        {
          "internalType": "address",
          "name": "newOwner",
          "type": "address"
        }
      ],
      "name": "transferOwnership",
      "outputs": [],
      "stateMutability": "nonpayable",
      "type": "function"
    },
    {
      "inputs": [],
      "name": "unpause",
      "outputs": [],
      "stateMutability": "nonpayable",
      "type": "function"
    },
    {
      "inputs": [
        {
          "internalType": "uint256",
          "name": "_id",
          "type": "uint256"
        }
      ],
      "name": "uri",
      "outputs": [
        {
          "internalType": "string",
          "name": "",
          "type": "string"
        }
      ],
      "stateMutability": "view",
      "type": "function"
    },
    {
      "inputs": [
        {
          "internalType": "address",
          "name": "_addr",
          "type": "address"
        }
      ],
      "name": "withdraw",
      "outputs": [],
      "stateMutability": "nonpayable",
      "type": "function"
    }
  ],
  "bytecode": "0x608060405266038d7ea4c680006006553480156200001c57600080fd5b5060405162002882380380620028828339810160408190526200003f9162000156565b816040518060800160405280605e815260200162002824605e91396200006581620000d5565b506001600160a01b0381166200009557604051631e4fbdf760e01b81526000600482015260240160405180910390fd5b620000a081620000e7565b506003805460ff60a01b19169055600780546001600160a01b0319166001600160a01b03929092169190911790555062000301565b6002620000e3828262000235565b5050565b600380546001600160a01b038381166001600160a01b0319831681179093556040519116919082907f8be0079c531659141344cd1fd0a4f28419497f9722a3daafe3b4186f6b6457e090600090a35050565b80516001600160a01b03811681146200015157600080fd5b919050565b600080604083850312156200016a57600080fd5b620001758362000139565b9150620001856020840162000139565b90509250929050565b634e487b7160e01b600052604160045260246000fd5b600181811c90821680620001b957607f821691505b602082108103620001da57634e487b7160e01b600052602260045260246000fd5b50919050565b601f82111562000230576000816000526020600020601f850160051c810160208610156200020b5750805b601f850160051c820191505b818110156200022c5782815560010162000217565b5050505b505050565b81516001600160401b038111156200025157620002516200018e565b6200026981620002628454620001a4565b84620001e0565b602080601f831160018114620002a15760008415620002885750858301515b600019600386901b1c1916600185901b1785556200022c565b600085815260208120601f198616915b82811015620002d257888601518255948401946001909101908401620002b1565b5085821015620002f15787850151600019600388901b60f8161c191681555b5050505050600190811b01905550565b61251380620003116000396000f3fe6080604052600436106101b65760003560e01c8063715018a6116100ec578063a24e51531161008a578063e985e9c511610064578063e985e9c5146104f5578063f242432a14610515578063f2fde38b14610535578063f8d02d951461055557600080fd5b8063a24e515314610492578063bd85b039146104a8578063dd0408ae146104d557600080fd5b80638456cb59116100c65780638456cb59146103fb5780638d0449d6146104105780638da5cb5b14610440578063a22cb4651461047257600080fd5b8063715018a6146103c057806379995c11146103d55780637a6b8ade146103e857600080fd5b80631f7fdffa116101595780634e1273f4116101335780634e1273f4146103255780634f558e791461035257806351cff8d9146103815780635c975abb146103a157600080fd5b80631f7fdffa146102d05780632eb2c2d6146102f05780633f4ba83a1461031057600080fd5b8063037807331161019557806303780733146102405780630e89341c1461027b57806318160ddd146102a85780631b2ef1ca146102bd57600080fd5b8062fdd58e146101bb57806301ffc9a7146101ee57806302fe53051461021e575b600080fd5b3480156101c757600080fd5b506101db6101d6366004611985565b610575565b6040519081526020015b60405180910390f35b3480156101fa57600080fd5b5061020e6102093660046119c7565b61059d565b60405190151581526020016101e5565b34801561022a57600080fd5b5061023e610239366004611a98565b6105ed565b005b34801561024c57600080fd5b5061020e61025b366004611ae9565b600960209081526000928352604080842090915290825290205460ff1681565b34801561028757600080fd5b5061029b610296366004611b19565b610601565b6040516101e59190611b82565b3480156102b457600080fd5b506005546101db565b61023e6102cb366004611b95565b610695565b3480156102dc57600080fd5b5061023e6102eb366004611c65565b610717565b3480156102fc57600080fd5b5061023e61030b366004611d00565b610731565b34801561031c57600080fd5b5061023e610798565b34801561033157600080fd5b50610345610340366004611dae565b6107aa565b6040516101e59190611eac565b34801561035e57600080fd5b5061020e61036d366004611b19565b600090815260046020526040902054151590565b34801561038d57600080fd5b5061023e61039c366004611ebf565b610877565b3480156103ad57600080fd5b50600354600160a01b900460ff1661020e565b3480156103cc57600080fd5b5061023e6108bc565b61023e6103e3366004611b19565b6108ce565b61023e6103f6366004611b95565b610a01565b34801561040757600080fd5b5061023e610bde565b34801561041c57600080fd5b5061020e61042b366004611b19565b60086020526000908152604090205460ff1681565b34801561044c57600080fd5b506003546001600160a01b03165b6040516001600160a01b0390911681526020016101e5565b34801561047e57600080fd5b5061023e61048d366004611eea565b610bee565b34801561049e57600080fd5b506101db60065481565b3480156104b457600080fd5b506101db6104c3366004611b19565b60009081526004602052604090205490565b3480156104e157600080fd5b5061023e6104f0366004611b19565b610bf9565b34801561050157600080fd5b5061020e610510366004611f18565b610d3c565b34801561052157600080fd5b5061023e610530366004611f46565b610d6a565b34801561054157600080fd5b5061023e610550366004611ebf565b610dc9565b34801561056157600080fd5b5060075461045a906001600160a01b031681565b6000818152602081815260408083206001600160a01b03861684529091529020545b92915050565b60006001600160e01b03198216636cdb3d1360e11b14806105ce57506001600160e01b031982166303a24d0760e21b145b8061059757506301ffc9a760e01b6001600160e01b0319831614610597565b6105f5610e04565b6105fe81610e31565b50565b60008181526004602052604090205460609061065c5760405162461bcd60e51b81526020600482015260156024820152742aa924903737b732bc34b9ba32b73a103a37b5b2b760591b60448201526064015b60405180910390fd5b61066582610e3d565b61066e83610ed1565b60405160200161067f929190611faf565b6040516020818303038152906040529050919050565b61069d610e04565b60038211156106df5760405162461bcd60e51b815260206004820152600e60248201526d125b9d985b1a590813919508125160921b6044820152606401610653565b806006546106ed9190612004565b34146106f857600080fd5b61071333838360405180602001604052806000815250610f64565b5050565b61071f610e04565b61072b84848484610fc1565b50505050565b336001600160a01b038616811480159061075257506107508682610d3c565b155b156107835760405163711bec9160e11b81526001600160a01b03808316600483015287166024820152604401610653565b6107908686868686610ff9565b505050505050565b6107a0610e04565b6107a8611060565b565b606081518351146107db5781518351604051635b05999160e01b815260048101929092526024820152604401610653565b6000835167ffffffffffffffff8111156107f7576107f76119eb565b604051908082528060200260200182016040528015610820578160200160208202803683370190505b50905060005b845181101561086f5760208082028601015161084a90602080840287010151610575565b82828151811061085c5761085c61201b565b6020908102919091010152600101610826565b509392505050565b61087f610e04565b60405147906001600160a01b0383169082156108fc029083906000818181858888f193505050501580156108b7573d6000803e3d6000fd5b505050565b6108c4610e04565b6107a860006110b5565b60075460405163e597d6fd60e01b81523360048201526000916001600160a01b03169063e597d6fd906024016040805180830381865afa158015610916573d6000803e3d6000fd5b505050506040513d601f19601f8201168201806040525081019061093a9190612041565b509050806109a35760405162461bcd60e51b815260206004820152603060248201527f4f6e6c7920636f6e7472696275746f72732063616e206265206164646564207460448201526f1bc81d1a1948185b1b1bddc81b1a5cdd60821b6064820152608401610653565b600082815260096020908152604080832033845290915290205460ff16156109dd5760405162461bcd60e51b81526004016106539061206f565b5060009081526009602090815260408083203384529091529020805460ff19169055565b60008281526008602052604090205460ff16610a585760405162461bcd60e51b815260206004820152601660248201527510d85b5c185a59db881b9bdd08195b991959081e595d60521b6044820152606401610653565b600082815260096020908152604080832033845290915290205460ff1615610a925760405162461bcd60e51b81526004016106539061206f565b60075460405163e597d6fd60e01b81523360048201526000916001600160a01b03169063e597d6fd906024016040805180830381865afa158015610ada573d6000803e3d6000fd5b505050506040513d601f19601f82011682018060405250810190610afe9190612041565b50905080610b4e5760405162461bcd60e51b815260206004820152601f60248201527f4f6e6c7920636f6e7472696275746f72732063616e20636c61696d204e4654006044820152606401610653565b828214610b9d5760405162461bcd60e51b815260206004820152601d60248201527f4e4654204944206d757374206d617463682063616d706169676e2049440000006044820152606401610653565b600083815260096020908152604080832033808552908352818420805460ff1916600190811790915582519384019092529282526108b79291859190610f64565b610be6610e04565b6107a8611107565b61071333838361114a565b610c01610e04565b60008181526008602052604090205460ff1615610c595760405162461bcd60e51b815260206004820152601660248201527510d85b5c185a59db88185b1c9958591e48195b99195960521b6044820152606401610653565b600754604051636cc9ef3160e11b8152600481018390526000916001600160a01b03169063d993de6290602401600060405180830381865afa158015610ca3573d6000803e3d6000fd5b505050506040513d6000823e601f3d908101601f19168201604052610ccb91908101906121c5565b509098505087159650610d20955050505050505760405162461bcd60e51b815260206004820152601660248201527521b0b6b830b4b3b71034b99039ba34b6361037b832b760511b6044820152606401610653565b506000908152600860205260409020805460ff19166001179055565b6001600160a01b03918216600090815260016020908152604080832093909416825291909152205460ff1690565b336001600160a01b0386168114801590610d8b5750610d898682610d3c565b155b15610dbc5760405163711bec9160e11b81526001600160a01b03808316600483015287166024820152604401610653565b61079086868686866111e0565b610dd1610e04565b6001600160a01b038116610dfb57604051631e4fbdf760e01b815260006004820152602401610653565b6105fe816110b5565b6003546001600160a01b031633146107a85760405163118cdaa760e01b8152336004820152602401610653565b6002610713828261231c565b606060028054610e4c9061229a565b80601f0160208091040260200160405190810160405280929190818152602001828054610e789061229a565b8015610ec55780601f10610e9a57610100808354040283529160200191610ec5565b820191906000526020600020905b815481529060010190602001808311610ea857829003601f168201915b50505050509050919050565b60606000610ede8361126e565b600101905060008167ffffffffffffffff811115610efe57610efe6119eb565b6040519080825280601f01601f191660200182016040528015610f28576020820181803683370190505b5090508181016020015b600019016f181899199a1a9b1b9c1cb0b131b232b360811b600a86061a8153600a8504945084610f3257509392505050565b6001600160a01b038416610f8e57604051632bfa23e760e11b815260006004820152602401610653565b60408051600180825260208201869052818301908152606082018590526080820190925290610790600087848487611346565b6001600160a01b038416610feb57604051632bfa23e760e11b815260006004820152602401610653565b61072b600085858585611346565b6001600160a01b03841661102357604051632bfa23e760e11b815260006004820152602401610653565b6001600160a01b03851661104c57604051626a0d4560e21b815260006004820152602401610653565b6110598585858585611346565b5050505050565b611068611399565b6003805460ff60a01b191690557f5db9ee0a495bf2e6ff9c91a7834c1ba4fdd244a5e8aa4e537bd38aeae4b073aa335b6040516001600160a01b03909116815260200160405180910390a1565b600380546001600160a01b038381166001600160a01b0319831681179093556040519116919082907f8be0079c531659141344cd1fd0a4f28419497f9722a3daafe3b4186f6b6457e090600090a35050565b61110f6113c3565b6003805460ff60a01b1916600160a01b1790557f62e78cea01bee320cd4e420270b5ea74000d11b0c9f74754ebdbfc544b05a2586110983390565b6001600160a01b0382166111735760405162ced3e160e81b815260006004820152602401610653565b6001600160a01b03838116600081815260016020908152604080832094871680845294825291829020805460ff191686151590811790915591519182527f17307eab39ab6107e8899845ad3d59bd9653f200f220920489ca2b5937696c31910160405180910390a3505050565b6001600160a01b03841661120a57604051632bfa23e760e11b815260006004820152602401610653565b6001600160a01b03851661123357604051626a0d4560e21b815260006004820152602401610653565b604080516001808252602082018690528183019081526060820185905260808201909252906112658787848487611346565b50505050505050565b60008072184f03e93ff9f4daa797ed6e38ed64bf6a1f0160401b83106112ad5772184f03e93ff9f4daa797ed6e38ed64bf6a1f0160401b830492506040015b6d04ee2d6d415b85acef810000000083106112d9576d04ee2d6d415b85acef8100000000830492506020015b662386f26fc1000083106112f757662386f26fc10000830492506010015b6305f5e100831061130f576305f5e100830492506008015b612710831061132357612710830492506004015b60648310611335576064830492506002015b600a83106105975760010192915050565b611352858585856113ee565b6001600160a01b03841615611059578251339060010361138b57602084810151908401516113848389898585896113fa565b5050610790565b61079081878787878761151e565b600354600160a01b900460ff166107a857604051638dfc202b60e01b815260040160405180910390fd5b600354600160a01b900460ff16156107a85760405163d93c066560e01b815260040160405180910390fd5b61072b84848484611607565b6001600160a01b0384163b156107905760405163f23a6e6160e01b81526001600160a01b0385169063f23a6e619061143e90899089908890889088906004016123dc565b6020604051808303816000875af1925050508015611479575060408051601f3d908101601f1916820190925261147691810190612421565b60015b6114e2573d8080156114a7576040519150601f19603f3d011682016040523d82523d6000602084013e6114ac565b606091505b5080516000036114da57604051632bfa23e760e11b81526001600160a01b0386166004820152602401610653565b805181602001fd5b6001600160e01b0319811663f23a6e6160e01b1461126557604051632bfa23e760e11b81526001600160a01b0386166004820152602401610653565b6001600160a01b0384163b156107905760405163bc197c8160e01b81526001600160a01b0385169063bc197c8190611562908990899088908890889060040161243e565b6020604051808303816000875af192505050801561159d575060408051601f3d908101601f1916820190925261159a91810190612421565b60015b6115cb573d8080156114a7576040519150601f19603f3d011682016040523d82523d6000602084013e6114ac565b6001600160e01b0319811663bc197c8160e01b1461126557604051632bfa23e760e11b81526001600160a01b0386166004820152602401610653565b6116138484848461174d565b6001600160a01b0384166116bd576000805b83518110156116a35760008382815181106116425761164261201b565b6020026020010151905080600460008785815181106116635761166361201b565b602002602001015181526020019081526020016000206000828254611688919061249c565b909155506116989050818461249c565b925050600101611625565b5080600560008282546116b6919061249c565b9091555050505b6001600160a01b03831661072b576000805b835181101561173c5760008382815181106116ec576116ec61201b565b60200260200101519050806004600087858151811061170d5761170d61201b565b6020908102919091018101518252810191909152604001600020805491909103905591909101906001016116cf565b506005805491909103905550505050565b6117556113c3565b61072b84848484805182511461178b5781518151604051635b05999160e01b815260048101929092526024820152604401610653565b3360005b8351811015611891576020818102858101820151908501909101516001600160a01b03881615611842576000828152602081815260408083206001600160a01b038c1684529091529020548181101561181b576040516303dee4c560e01b81526001600160a01b038a166004820152602481018290526044810183905260648101849052608401610653565b6000838152602081815260408083206001600160a01b038d16845290915290209082900390555b6001600160a01b03871615611887576000828152602081815260408083206001600160a01b038b1684529091528120805483929061188190849061249c565b90915550505b505060010161178f565b5082516001036119125760208301516000906020840151909150856001600160a01b0316876001600160a01b0316846001600160a01b03167fc3d58168c5ae7397731d063d5bbf3d657854427343f4c083240f7aacaa2d0f628585604051611903929190918252602082015260400190565b60405180910390a45050611059565b836001600160a01b0316856001600160a01b0316826001600160a01b03167f4a39dc06d4c0dbc64b70af90fd698a233a518aa5d07e595d983b8c0526c8f7fb86866040516119619291906124af565b60405180910390a45050505050565b6001600160a01b03811681146105fe57600080fd5b6000806040838503121561199857600080fd5b82356119a381611970565b946020939093013593505050565b6001600160e01b0319811681146105fe57600080fd5b6000602082840312156119d957600080fd5b81356119e4816119b1565b9392505050565b634e487b7160e01b600052604160045260246000fd5b604051601f8201601f1916810167ffffffffffffffff81118282101715611a2a57611a2a6119eb565b604052919050565b600067ffffffffffffffff821115611a4c57611a4c6119eb565b50601f01601f191660200190565b6000611a6d611a6884611a32565b611a01565b9050828152838383011115611a8157600080fd5b828260208301376000602084830101529392505050565b600060208284031215611aaa57600080fd5b813567ffffffffffffffff811115611ac157600080fd5b8201601f81018413611ad257600080fd5b611ae184823560208401611a5a565b949350505050565b60008060408385031215611afc57600080fd5b823591506020830135611b0e81611970565b809150509250929050565b600060208284031215611b2b57600080fd5b5035919050565b60005b83811015611b4d578181015183820152602001611b35565b50506000910152565b60008151808452611b6e816020860160208601611b32565b601f01601f19169290920160200192915050565b6020815260006119e46020830184611b56565b60008060408385031215611ba857600080fd5b50508035926020909101359150565b600067ffffffffffffffff821115611bd157611bd16119eb565b5060051b60200190565b600082601f830112611bec57600080fd5b81356020611bfc611a6883611bb7565b8083825260208201915060208460051b870101935086841115611c1e57600080fd5b602086015b84811015611c3a5780358352918301918301611c23565b509695505050505050565b600082601f830112611c5657600080fd5b6119e483833560208501611a5a565b60008060008060808587031215611c7b57600080fd5b8435611c8681611970565b9350602085013567ffffffffffffffff80821115611ca357600080fd5b611caf88838901611bdb565b94506040870135915080821115611cc557600080fd5b611cd188838901611bdb565b93506060870135915080821115611ce757600080fd5b50611cf487828801611c45565b91505092959194509250565b600080600080600060a08688031215611d1857600080fd5b8535611d2381611970565b94506020860135611d3381611970565b9350604086013567ffffffffffffffff80821115611d5057600080fd5b611d5c89838a01611bdb565b94506060880135915080821115611d7257600080fd5b611d7e89838a01611bdb565b93506080880135915080821115611d9457600080fd5b50611da188828901611c45565b9150509295509295909350565b60008060408385031215611dc157600080fd5b823567ffffffffffffffff80821115611dd957600080fd5b818501915085601f830112611ded57600080fd5b81356020611dfd611a6883611bb7565b82815260059290921b84018101918181019089841115611e1c57600080fd5b948201945b83861015611e43578535611e3481611970565b82529482019490820190611e21565b96505086013592505080821115611e5957600080fd5b50611e6685828601611bdb565b9150509250929050565b60008151808452602080850194506020840160005b83811015611ea157815187529582019590820190600101611e85565b509495945050505050565b6020815260006119e46020830184611e70565b600060208284031215611ed157600080fd5b81356119e481611970565b80151581146105fe57600080fd5b60008060408385031215611efd57600080fd5b8235611f0881611970565b91506020830135611b0e81611edc565b60008060408385031215611f2b57600080fd5b8235611f3681611970565b91506020830135611b0e81611970565b600080600080600060a08688031215611f5e57600080fd5b8535611f6981611970565b94506020860135611f7981611970565b93506040860135925060608601359150608086013567ffffffffffffffff811115611fa357600080fd5b611da188828901611c45565b60008351611fc1818460208801611b32565b835190830190611fd5818360208801611b32565b642e6a70656760d81b9101908152600501949350505050565b634e487b7160e01b600052601160045260246000fd5b808202811582820484141761059757610597611fee565b634e487b7160e01b600052603260045260246000fd5b805161203c81611edc565b919050565b6000806040838503121561205457600080fd5b825161205f81611edc565b6020939093015192949293505050565b6020808252602a908201527f596f75206861766520616c726561647920636c61696d656420666f7220746869604082015269399031b0b6b830b4b3b760b11b606082015260800190565b600082601f8301126120ca57600080fd5b81516120d8611a6882611a32565b8181528460208386010111156120ed57600080fd5b611ae1826020830160208701611b32565b600082601f83011261210f57600080fd5b8151602061211f611a6883611bb7565b8083825260208201915060208460051b87010193508684111561214157600080fd5b602086015b84811015611c3a57805161215981611970565b8352918301918301612146565b600082601f83011261217757600080fd5b81516020612187611a6883611bb7565b8083825260208201915060208460051b8701019350868411156121a957600080fd5b602086015b84811015611c3a57805183529183019183016121ae565b6000806000806000806000806000806101408b8d0312156121e557600080fd5b8a5167ffffffffffffffff808211156121fd57600080fd5b6122098e838f016120b9565b9b5060208d01519a5060408d0151995060608d0151985060808d0151975060a08d0151965060c08d0151955061224160e08e01612031565b94506101008d015191508082111561225857600080fd5b6122648e838f016120fe565b93506101208d015191508082111561227b57600080fd5b506122888d828e01612166565b9150509295989b9194979a5092959850565b600181811c908216806122ae57607f821691505b6020821081036122ce57634e487b7160e01b600052602260045260246000fd5b50919050565b601f8211156108b7576000816000526020600020601f850160051c810160208610156122fd5750805b601f850160051c820191505b8181101561079057828155600101612309565b815167ffffffffffffffff811115612336576123366119eb565b61234a81612344845461229a565b846122d4565b602080601f83116001811461237f57600084156123675750858301515b600019600386901b1c1916600185901b178555610790565b600085815260208120601f198616915b828110156123ae5788860151825594840194600190910190840161238f565b50858210156123cc5787850151600019600388901b60f8161c191681555b5050505050600190811b01905550565b6001600160a01b03868116825285166020820152604081018490526060810183905260a06080820181905260009061241690830184611b56565b979650505050505050565b60006020828403121561243357600080fd5b81516119e4816119b1565b6001600160a01b0386811682528516602082015260a06040820181905260009061246a90830186611e70565b828103606084015261247c8186611e70565b905082810360808401526124908185611b56565b98975050505050505050565b8082018082111561059757610597611fee565b6040815260006124c26040830185611e70565b82810360208401526124d48185611e70565b9594505050505056fea2646970667358221220084ae5a4550484658365ac888f7a8de66f7a6ef65c66f8c75d3e061cbcee551664736f6c6343000818003368747470733a2f2f6c696d652d6269672d636f72616c2d3533332e6d7970696e6174612e636c6f75642f697066732f516d50426e586945627a576a467268706f6a484870556e326a5356787176746a576e4e5642394d3734634371694b2f",
  "linkReferences": {},
  "deployedLinkReferences": {}
}