{
  "_format": "hh-sol-artifact-1",
  "contractName": "Crowdfunding",
  "sourceName": "contracts/Crowdfunding.sol",
  "abi": [
    {
      "inputs": [
        {
          "internalType": "address",
          "name": "_tokenAddress",
          "type": "address"
        },
        {
          "internalType": "address",
          "name": "initialOwner",
          "type": "address"
        }
      ],
      "stateMutability": "nonpayable",
      "type": "constructor"
    },
    {
      "inputs": [
        {
          "internalType": "address",
          "name": "target",
          "type": "address"
        }
      ],
      "name": "AddressEmptyCode",
      "type": "error"
    },
    {
      "inputs": [
        {
          "internalType": "address",
          "name": "account",
          "type": "address"
        }
      ],
      "name": "AddressInsufficientBalance",
      "type": "error"
    },
    {
      "inputs": [],
      "name": "FailedInnerCall",
      "type": "error"
    },
    {
      "inputs": [
        {
          "internalType": "address",
          "name": "owner",
          "type": "address"
        }
      ],
      "name": "OwnableInvalidOwner",
      "type": "error"
    },
    {
      "inputs": [
        {
          "internalType": "address",
          "name": "account",
          "type": "address"
        }
      ],
      "name": "OwnableUnauthorizedAccount",
      "type": "error"
    },
    {
      "inputs": [
        {
          "internalType": "address",
          "name": "token",
          "type": "address"
        }
      ],
      "name": "SafeERC20FailedOperation",
      "type": "error"
    },
    {
      "anonymous": false,
      "inputs": [
        {
          "indexed": true,
          "internalType": "uint256",
          "name": "campaignId",
          "type": "uint256"
        },
        {
          "indexed": false,
          "internalType": "string",
          "name": "name",
          "type": "string"
        },
        {
          "indexed": false,
          "internalType": "uint256",
          "name": "totalRaised",
          "type": "uint256"
        }
      ],
      "name": "CampaignClosed",
      "type": "event"
    },
    {
      "anonymous": false,
      "inputs": [
        {
          "indexed": true,
          "internalType": "uint256",
          "name": "campaignId",
          "type": "uint256"
        },
        {
          "indexed": false,
          "internalType": "string",
          "name": "name",
          "type": "string"
        },
        {
          "indexed": false,
          "internalType": "uint256",
          "name": "goal",
          "type": "uint256"
        },
        {
          "indexed": false,
          "internalType": "uint256",
          "name": "duration",
          "type": "uint256"
        }
      ],
      "name": "CampaignCreated",
      "type": "event"
    },
    {
      "anonymous": false,
      "inputs": [
        {
          "indexed": true,
          "internalType": "uint256",
          "name": "campaignId",
          "type": "uint256"
        },
        {
          "indexed": true,
          "internalType": "address",
          "name": "contributor",
          "type": "address"
        },
        {
          "indexed": false,
          "internalType": "uint256",
          "name": "amount",
          "type": "uint256"
        }
      ],
      "name": "ContributionMade",
      "type": "event"
    },
    {
      "anonymous": false,
      "inputs": [
        {
          "indexed": true,
          "internalType": "address",
          "name": "previousOwner",
          "type": "address"
        },
        {
          "indexed": true,
          "internalType": "address",
          "name": "newOwner",
          "type": "address"
        }
      ],
      "name": "OwnershipTransferred",
      "type": "event"
    },
    {
      "anonymous": false,
      "inputs": [
        {
          "indexed": true,
          "internalType": "address",
          "name": "owner",
          "type": "address"
        },
        {
          "indexed": false,
          "internalType": "uint256",
          "name": "amount",
          "type": "uint256"
        }
      ],
      "name": "TokensWithdrawn",
      "type": "event"
    },
    {
      "inputs": [
        {
          "internalType": "string",
          "name": "name",
          "type": "string"
        },
        {
          "internalType": "uint256",
          "name": "goal",
          "type": "uint256"
        },
        {
          "internalType": "uint256",
          "name": "maxContribution",
          "type": "uint256"
        },
        {
          "internalType": "uint256",
          "name": "maxContributor",
          "type": "uint256"
        },
        {
          "internalType": "uint256",
          "name": "duration",
          "type": "uint256"
        }
      ],
      "name": "addCampaign",
      "outputs": [],
      "stateMutability": "nonpayable",
      "type": "function"
    },
    {
      "inputs": [
        {
          "internalType": "uint256",
          "name": "",
          "type": "uint256"
        }
      ],
      "name": "campaigns",
      "outputs": [
        {
          "internalType": "uint256",
          "name": "id",
          "type": "uint256"
        },
        {
          "internalType": "string",
          "name": "name",
          "type": "string"
        },
        {
          "internalType": "uint256",
          "name": "goal",
          "type": "uint256"
        },
        {
          "internalType": "uint256",
          "name": "maxContribution",
          "type": "uint256"
        },
        {
          "internalType": "uint256",
          "name": "maxContributor",
          "type": "uint256"
        },
        {
          "internalType": "uint256",
          "name": "duration",
          "type": "uint256"
        },
        {
          "internalType": "uint256",
          "name": "startTime",
          "type": "uint256"
        },
        {
          "internalType": "uint256",
          "name": "endTime",
          "type": "uint256"
        },
        {
          "internalType": "bool",
          "name": "isOpen",
          "type": "bool"
        }
      ],
      "stateMutability": "view",
      "type": "function"
    },
    {
      "inputs": [
        {
          "internalType": "uint256",
          "name": "campaignId",
          "type": "uint256"
        }
      ],
      "name": "closeCampaign",
      "outputs": [],
      "stateMutability": "nonpayable",
      "type": "function"
    },
    {
      "inputs": [
        {
          "internalType": "uint256",
          "name": "campaignId",
          "type": "uint256"
        },
        {
          "internalType": "uint256",
          "name": "amount",
          "type": "uint256"
        }
      ],
      "name": "contribute",
      "outputs": [],
      "stateMutability": "nonpayable",
      "type": "function"
    },
    {
      "inputs": [
        {
          "internalType": "uint256",
          "name": "campaignId",
          "type": "uint256"
        }
      ],
      "name": "getCampaign",
      "outputs": [
        {
          "internalType": "uint256",
          "name": "id",
          "type": "uint256"
        },
        {
          "internalType": "string",
          "name": "name",
          "type": "string"
        },
        {
          "internalType": "uint256",
          "name": "goal",
          "type": "uint256"
        },
        {
          "internalType": "uint256",
          "name": "maxContribution",
          "type": "uint256"
        },
        {
          "internalType": "uint256",
          "name": "maxContributor",
          "type": "uint256"
        },
        {
          "internalType": "uint256",
          "name": "duration",
          "type": "uint256"
        },
        {
          "internalType": "uint256",
          "name": "startTime",
          "type": "uint256"
        },
        {
          "internalType": "uint256",
          "name": "endTime",
          "type": "uint256"
        },
        {
          "internalType": "bool",
          "name": "isOpen",
          "type": "bool"
        }
      ],
      "stateMutability": "view",
      "type": "function"
    },
    {
      "inputs": [
        {
          "internalType": "uint256",
          "name": "campaignId",
          "type": "uint256"
        }
      ],
      "name": "getContributors",
      "outputs": [
        {
          "internalType": "address[]",
          "name": "",
          "type": "address[]"
        }
      ],
      "stateMutability": "view",
      "type": "function"
    },
    {
      "inputs": [
        {
          "internalType": "uint256",
          "name": "campaignId",
          "type": "uint256"
        }
      ],
      "name": "getInvestorContract",
      "outputs": [
        {
          "internalType": "address",
          "name": "",
          "type": "address"
        }
      ],
      "stateMutability": "view",
      "type": "function"
    },
    {
      "inputs": [
        {
          "internalType": "uint256",
          "name": "",
          "type": "uint256"
        }
      ],
      "name": "investorContracts",
      "outputs": [
        {
          "internalType": "address",
          "name": "",
          "type": "address"
        }
      ],
      "stateMutability": "view",
      "type": "function"
    },
    {
      "inputs": [],
      "name": "owner",
      "outputs": [
        {
          "internalType": "address",
          "name": "",
          "type": "address"
        }
      ],
      "stateMutability": "view",
      "type": "function"
    },
    {
      "inputs": [],
      "name": "renounceOwnership",
      "outputs": [],
      "stateMutability": "nonpayable",
      "type": "function"
    },
    {
      "inputs": [
        {
          "internalType": "address",
          "name": "newOwner",
          "type": "address"
        }
      ],
      "name": "transferOwnership",
      "outputs": [],
      "stateMutability": "nonpayable",
      "type": "function"
    },
    {
      "inputs": [],
      "name": "withdrawTokens",
      "outputs": [],
      "stateMutability": "nonpayable",
      "type": "function"
    }
  ],
  "bytecode": "0x60806040523480156200001157600080fd5b5060405162001e4d38038062001e4d833981016040819052620000349162000181565b806001600160a01b0381166200006557604051631e4fbdf760e01b8152600060048201526024015b60405180910390fd5b62000070816200009f565b50600180546001600160a01b0319166001600160a01b0384161790556200009733620000ef565b5050620001b9565b600080546001600160a01b038381166001600160a01b0319831681178455604051919092169283917f8be0079c531659141344cd1fd0a4f28419497f9722a3daafe3b4186f6b6457e09190a35050565b620000f962000133565b6001600160a01b0381166200012557604051631e4fbdf760e01b8152600060048201526024016200005c565b62000130816200009f565b50565b6000546001600160a01b03163314620001625760405163118cdaa760e01b81523360048201526024016200005c565b565b80516001600160a01b03811681146200017c57600080fd5b919050565b600080604083850312156200019557600080fd5b620001a08362000164565b9150620001b06020840162000164565b90509250929050565b611c8480620001c96000396000f3fe608060405234801561001057600080fd5b50600436106100b45760003560e01c80638c590917116100715780638c5909171461018d5780638d8f2adb146101a05780638da5cb5b146101a8578063b0e1c1e1146101b9578063e6675465146101cc578063f2fde38b146101df57600080fd5b8063106a5080146100b9578063141961bc146100ff5780633c1ab00f146101275780635598f8cc14610147578063715018a61461015a578063792b4f0614610164575b600080fd5b6100e26100c7366004610e75565b6000908152600360205260409020546001600160a01b031690565b6040516001600160a01b0390911681526020015b60405180910390f35b61011261010d366004610e75565b6101f2565b6040516100f699989796959493929190610ede565b61013a610135366004610e75565b6102d9565b6040516100f69190610f33565b610112610155366004610e75565b610365565b61016261047d565b005b6100e2610172366004610e75565b6003602052600090815260409020546001600160a01b031681565b61016261019b366004610f80565b610491565b610162610755565b6000546001600160a01b03166100e2565b6101626101c7366004610e75565b610863565b6101626101da366004610fb8565b610a93565b6101626101ed366004611086565b610b6c565b6002818154811061020257600080fd5b60009182526020909120600b90910201805460018201805491935090610227906110af565b80601f0160208091040260200160405190810160405280929190818152602001828054610253906110af565b80156102a05780601f10610275576101008083540402835291602001916102a0565b820191906000526020600020905b81548152906001019060200180831161028357829003601f168201915b50505050600283015460038401546004850154600586015460068701546007880154600890980154969794969395509193909260ff1689565b60606000600283815481106102f0576102f06110e9565b90600052602060002090600b020190508060090180548060200260200160405190810160405280929190818152602001828054801561035857602002820191906000526020600020905b81546001600160a01b0316815260019091019060200180831161033a575b5050505050915050919050565b6000606060008060008060008060008060028b81548110610388576103886110e9565b90600052602060002090600b020190508060000154816001018260020154836003015484600401548560050154866006015487600701548860080160009054906101000a900460ff168780546103dd906110af565b80601f0160208091040260200160405190810160405280929190818152602001828054610409906110af565b80156104565780601f1061042b57610100808354040283529160200191610456565b820191906000526020600020905b81548152906001019060200180831161043957829003601f168201915b50505050509750995099509950995099509950995099509950509193959799909294969850565b610485610baa565b61048f6000610bd7565b565b6000600283815481106104a6576104a66110e9565b60009182526020909120600b90910201600881015490915060ff1680156104d05750806007015442105b6105215760405162461bcd60e51b815260206004820152601960248201527f43616d706169676e206973206e6f7420617661696c61626c650000000000000060448201526064015b60405180910390fd5b6003810154336000908152600a830160205260409020546105439084906110ff565b11156105915760405162461bcd60e51b815260206004820152601860248201527f45786365656473206d617820636f6e747269627574696f6e00000000000000006044820152606401610518565b6004810154600982015410806105b75750336000908152600a8201602052604090205415155b6106035760405162461bcd60e51b815260206004820152601860248201527f4d617820636f6e7472696275746f7273207265616368656400000000000000006044820152606401610518565b336000908152600a82016020526040812054900361064357600981018054600181018255600091825260209091200180546001600160a01b031916331790555b336000908152600a82016020526040812080548492906106649084906110ff565b9091555050600154610681906001600160a01b0316333085610c27565b6000338385600160009054906101000a90046001600160a01b03166040516106a890610e68565b6001600160a01b039485168152602081019390935260408301919091529091166060820152608001604051809103906000f0801580156106ec573d6000803e3d6000fd5b5060008581526003602090815260409182902080546001600160a01b0319166001600160a01b0385161790559051858152919250339186917f0a4a91237423e0a1766a761c7cb029311d8b95d6b1b81db1b949a70c98b4e08e910160405180910390a350505050565b61075d610baa565b6001546040516370a0823160e01b81523060048201526000916001600160a01b0316906370a0823190602401602060405180830381865afa1580156107a6573d6000803e3d6000fd5b505050506040513d601f19601f820116820180604052508101906107ca9190611120565b9050600081116108145760405162461bcd60e51b81526020600482015260156024820152744e6f20746f6b656e7320746f20776974686472617760581b6044820152606401610518565b60015461082b906001600160a01b03163383610c94565b60405181815233907f6352c5382c4a4578e712449ca65e83cdb392d045dfcf1cad9615189db2da244b9060200160405180910390a250565b61086b610baa565b600060028281548110610880576108806110e9565b60009182526020909120600b90910201600881015490915060ff166108e75760405162461bcd60e51b815260206004820152601a60248201527f43616d706169676e20697320616c726561647920636c6f7365640000000000006044820152606401610518565b60088101805460ff191690556001546040516370a0823160e01b81523060048201526000916001600160a01b0316906370a0823190602401602060405180830381865afa15801561093c573d6000803e3d6000fd5b505050506040513d601f19601f820116820180604052508101906109609190611120565b9050816002015481106109e35760008381526003602052604090819020549051633243c79160e01b8152600481018390526001600160a01b039091169081908190633243c79190602401600060405180830381600087803b1580156109c457600080fd5b505af11580156109d8573d6000803e3d6000fd5b505050505050610a51565b60005b6009830154811015610a4f576000836009018281548110610a0957610a096110e9565b60009182526020808320909101546001600160a01b03908116808452600a880190925260409092205460015491935091610a4591168383610c94565b50506001016109e6565b505b827f8458b28c04c9dc08e322a4e1d72faf95d899a917357387ceb5f95cb0d36a22ab8360010183604051610a86929190611139565b60405180910390a2505050565b610a9b610baa565b6002805460018101808355600083815291929083908110610abe57610abe6110e9565b60009182526020909120600b90910201828155905060018101610ae18882611220565b50600281018690556003810185905560048101849055600581018390554260068201819055610b119084906110ff565b600782015560088101805460ff1916600117905560405182907f02fe3fddd43aad14ae5c30d5d694f19ecb065dfde85bb591b91e8af1448724d290610b5b908a908a9088906112e0565b60405180910390a250505050505050565b610b74610baa565b6001600160a01b038116610b9e57604051631e4fbdf760e01b815260006004820152602401610518565b610ba781610bd7565b50565b6000546001600160a01b0316331461048f5760405163118cdaa760e01b8152336004820152602401610518565b600080546001600160a01b038381166001600160a01b0319831681178455604051919092169283917f8be0079c531659141344cd1fd0a4f28419497f9722a3daafe3b4186f6b6457e09190a35050565b6040516001600160a01b038481166024830152838116604483015260648201839052610c8e9186918216906323b872dd906084015b604051602081830303815290604052915060e01b6020820180516001600160e01b038381831617835250505050610cca565b50505050565b6040516001600160a01b03838116602483015260448201839052610cc591859182169063a9059cbb90606401610c5c565b505050565b6000610cdf6001600160a01b03841683610d2d565b90508051600014158015610d04575080806020019051810190610d029190611305565b155b15610cc557604051635274afe760e01b81526001600160a01b0384166004820152602401610518565b6060610d3b83836000610d44565b90505b92915050565b606081471015610d695760405163cd78605960e01b8152306004820152602401610518565b600080856001600160a01b03168486604051610d859190611327565b60006040518083038185875af1925050503d8060008114610dc2576040519150601f19603f3d011682016040523d82523d6000602084013e610dc7565b606091505b5091509150610dd7868383610de3565b925050505b9392505050565b606082610df857610df382610e3f565b610ddc565b8151158015610e0f57506001600160a01b0384163b155b15610e3857604051639996b31560e01b81526001600160a01b0385166004820152602401610518565b5080610ddc565b805115610e4f5780518082602001fd5b604051630a12f52160e11b815260040160405180910390fd5b61090b8061134483390190565b600060208284031215610e8757600080fd5b5035919050565b60005b83811015610ea9578181015183820152602001610e91565b50506000910152565b60008151808452610eca816020860160208601610e8e565b601f01601f19169290920160200192915050565b60006101208b8352806020840152610ef88184018c610eb2565b604084019a909a5250506060810196909652608086019490945260a085019290925260c084015260e083015215156101009091015292915050565b6020808252825182820181905260009190848201906040850190845b81811015610f745783516001600160a01b031683529284019291840191600101610f4f565b50909695505050505050565b60008060408385031215610f9357600080fd5b50508035926020909101359150565b634e487b7160e01b600052604160045260246000fd5b600080600080600060a08688031215610fd057600080fd5b853567ffffffffffffffff80821115610fe857600080fd5b818801915088601f830112610ffc57600080fd5b81358181111561100e5761100e610fa2565b604051601f8201601f19908116603f0116810190838211818310171561103657611036610fa2565b816040528281528b602084870101111561104f57600080fd5b82602086016020830137600060209382018401529b918a01359a505060408901359860608101359850608001359650945050505050565b60006020828403121561109857600080fd5b81356001600160a01b0381168114610ddc57600080fd5b600181811c908216806110c357607f821691505b6020821081036110e357634e487b7160e01b600052602260045260246000fd5b50919050565b634e487b7160e01b600052603260045260246000fd5b80820180821115610d3e57634e487b7160e01b600052601160045260246000fd5b60006020828403121561113257600080fd5b5051919050565b60408152600080845461114b816110af565b806040860152606060018084166000811461116d5760018114611189576111bb565b60ff1985166060890152606084151560051b89010195506111bb565b8960005260208060002060005b868110156111b15781548b8201870152908401908201611196565b8a01606001975050505b50505050506020929092019290925292915050565b601f821115610cc5576000816000526020600020601f850160051c810160208610156111f95750805b601f850160051c820191505b8181101561121857828155600101611205565b505050505050565b815167ffffffffffffffff81111561123a5761123a610fa2565b61124e8161124884546110af565b846111d0565b602080601f831160018114611283576000841561126b5750858301515b600019600386901b1c1916600185901b178555611218565b600085815260208120601f198616915b828110156112b257888601518255948401946001909101908401611293565b50858210156112d05787850151600019600388901b60f8161c191681555b5050505050600190811b01905550565b6060815260006112f36060830186610eb2565b60208301949094525060400152919050565b60006020828403121561131757600080fd5b81518015158114610ddc57600080fd5b60008251611339818460208701610e8e565b919091019291505056fe608060405234801561001057600080fd5b5060405161090b38038061090b83398101604081905261002f91610088565b600080546001600160a01b039586166001600160a01b031991821617909155600193909355600291909155600380549190931691161790556100ce565b80516001600160a01b038116811461008357600080fd5b919050565b6000806000806080858703121561009e57600080fd5b6100a78561006c565b935060208501519250604085015191506100c36060860161006c565b905092959194509250565b61082e806100dd6000396000f3fe608060405234801561001057600080fd5b506004361061007d5760003560e01c80638da5cb5b1161005b5780638da5cb5b146100bb5780638ed5b0fc146100e6578063dd49756e146100ef578063f2fde38b1461010257600080fd5b80633243c7911461008257806350520b1f146100975780638d8f2adb146100b3575b600080fd5b610095610090366004610705565b610115565b005b6100a060015481565b6040519081526020015b60405180910390f35b61009561018d565b6000546100ce906001600160a01b031681565b6040516001600160a01b0390911681526020016100aa565b6100a060025481565b6100956100fd366004610705565b610311565b61009561011036600461071e565b6103ab565b600081600154836101269190610747565b610130919061076c565b600054600354919250610150916001600160a01b039081169116836104c4565b60408051838152602081018390527fac4c4b96e3856cb20170077826b7701a887bdaf8d743f369b438133249a1f82f910160405180910390a15050565b6000546001600160a01b031633146101f75760405162461bcd60e51b815260206004820152602260248201527f4f6e6c7920746865206f776e65722063616e20776974686472617720746f6b656044820152616e7360f01b60648201526084015b60405180910390fd5b6003546040516370a0823160e01b81523060048201526000916001600160a01b0316906370a0823190602401602060405180830381865afa158015610240573d6000803e3d6000fd5b505050506040513d601f19601f82011682018060405250810190610264919061078e565b9050600081116102ae5760405162461bcd60e51b81526020600482015260156024820152744e6f20746f6b656e7320746f20776974686472617760581b60448201526064016101ee565b6000546003546102cb916001600160a01b039182169116836104c4565b6000546040518281526001600160a01b03909116907f6352c5382c4a4578e712449ca65e83cdb392d045dfcf1cad9615189db2da244b906020015b60405180910390a250565b600081116103615760405162461bcd60e51b815260206004820181905260248201527f416d6f756e74206d7573742062652067726561746572207468616e207a65726f60448201526064016101ee565b600354610379906001600160a01b0316333084610528565b60405181815233907f59062170a285eb80e8c6b8ced60428442a51910635005233fc4ce084a475845e90602001610306565b6000546001600160a01b031633146104135760405162461bcd60e51b815260206004820152602560248201527f4f6e6c7920746865206f776e65722063616e207472616e73666572206f776e65604482015264072736869760dc1b60648201526084016101ee565b6001600160a01b0381166104695760405162461bcd60e51b815260206004820152601d60248201527f4e6577206f776e657220697320746865207a65726f206164647265737300000060448201526064016101ee565b600080546040516001600160a01b03808516939216917f8be0079c531659141344cd1fd0a4f28419497f9722a3daafe3b4186f6b6457e091a3600080546001600160a01b0319166001600160a01b0392909216919091179055565b6040516001600160a01b0383811660248301526044820183905261052391859182169063a9059cbb906064015b604051602081830303815290604052915060e01b6020820180516001600160e01b038381831617835250505050610567565b505050565b6040516001600160a01b0384811660248301528381166044830152606482018390526105619186918216906323b872dd906084016104f1565b50505050565b600061057c6001600160a01b038416836105ca565b905080516000141580156105a157508080602001905181019061059f91906107a7565b155b1561052357604051635274afe760e01b81526001600160a01b03841660048201526024016101ee565b60606105d8838360006105e1565b90505b92915050565b6060814710156106065760405163cd78605960e01b81523060048201526024016101ee565b600080856001600160a01b0316848660405161062291906107c9565b60006040518083038185875af1925050503d806000811461065f576040519150601f19603f3d011682016040523d82523d6000602084013e610664565b606091505b5091509150610674868383610680565b925050505b9392505050565b60608261069557610690826106dc565b610679565b81511580156106ac57506001600160a01b0384163b155b156106d557604051639996b31560e01b81526001600160a01b03851660048201526024016101ee565b5080610679565b8051156106ec5780518082602001fd5b604051630a12f52160e11b815260040160405180910390fd5b60006020828403121561071757600080fd5b5035919050565b60006020828403121561073057600080fd5b81356001600160a01b038116811461067957600080fd5b80820281158282048414176105db57634e487b7160e01b600052601160045260246000fd5b60008261078957634e487b7160e01b600052601260045260246000fd5b500490565b6000602082840312156107a057600080fd5b5051919050565b6000602082840312156107b957600080fd5b8151801515811461067957600080fd5b6000825160005b818110156107ea57602081860181015185830152016107d0565b50600092019182525091905056fea26469706673582212205668e9aa3ebc0e440be73fd2f6810f8d951fb76c0c7e7416bfbe7a9f099d307464736f6c63430008180033a2646970667358221220e876f162f498e45072151ee510ccd790d6083519c65679624c08ef2016d56c4764736f6c63430008180033",
  "linkReferences": {},
  "deployedLinkReferences": {}
}