{
  "_format": "hh-sol-artifact-1",
  "contractName": "Crowdfunding",
  "sourceName": "contracts/Crowdfunding.sol",
  "abi": [
    {
      "inputs": [
        {
          "internalType": "address",
          "name": "_tokenAddress",
          "type": "address"
        },
        {
          "internalType": "address",
          "name": "initialOwner",
          "type": "address"
        }
      ],
      "stateMutability": "nonpayable",
      "type": "constructor"
    },
    {
      "inputs": [
        {
          "internalType": "address",
          "name": "target",
          "type": "address"
        }
      ],
      "name": "AddressEmptyCode",
      "type": "error"
    },
    {
      "inputs": [
        {
          "internalType": "address",
          "name": "account",
          "type": "address"
        }
      ],
      "name": "AddressInsufficientBalance",
      "type": "error"
    },
    {
      "inputs": [],
      "name": "FailedInnerCall",
      "type": "error"
    },
    {
      "inputs": [
        {
          "internalType": "address",
          "name": "owner",
          "type": "address"
        }
      ],
      "name": "OwnableInvalidOwner",
      "type": "error"
    },
    {
      "inputs": [
        {
          "internalType": "address",
          "name": "account",
          "type": "address"
        }
      ],
      "name": "OwnableUnauthorizedAccount",
      "type": "error"
    },
    {
      "inputs": [
        {
          "internalType": "address",
          "name": "token",
          "type": "address"
        }
      ],
      "name": "SafeERC20FailedOperation",
      "type": "error"
    },
    {
      "anonymous": false,
      "inputs": [
        {
          "indexed": true,
          "internalType": "uint256",
          "name": "campaignId",
          "type": "uint256"
        },
        {
          "indexed": false,
          "internalType": "string",
          "name": "name",
          "type": "string"
        },
        {
          "indexed": false,
          "internalType": "uint256",
          "name": "totalRaised",
          "type": "uint256"
        }
      ],
      "name": "CampaignClosed",
      "type": "event"
    },
    {
      "anonymous": false,
      "inputs": [
        {
          "indexed": true,
          "internalType": "uint256",
          "name": "campaignId",
          "type": "uint256"
        },
        {
          "indexed": false,
          "internalType": "string",
          "name": "name",
          "type": "string"
        },
        {
          "indexed": false,
          "internalType": "uint256",
          "name": "goal",
          "type": "uint256"
        },
        {
          "indexed": false,
          "internalType": "uint256",
          "name": "duration",
          "type": "uint256"
        }
      ],
      "name": "CampaignCreated",
      "type": "event"
    },
    {
      "anonymous": false,
      "inputs": [
        {
          "indexed": true,
          "internalType": "uint256",
          "name": "campaignId",
          "type": "uint256"
        },
        {
          "indexed": true,
          "internalType": "address",
          "name": "contributor",
          "type": "address"
        },
        {
          "indexed": false,
          "internalType": "uint256",
          "name": "amount",
          "type": "uint256"
        }
      ],
      "name": "ContributionMade",
      "type": "event"
    },
    {
      "anonymous": false,
      "inputs": [
        {
          "indexed": true,
          "internalType": "address",
          "name": "previousOwner",
          "type": "address"
        },
        {
          "indexed": true,
          "internalType": "address",
          "name": "newOwner",
          "type": "address"
        }
      ],
      "name": "OwnershipTransferred",
      "type": "event"
    },
    {
      "inputs": [
        {
          "internalType": "string",
          "name": "name",
          "type": "string"
        },
        {
          "internalType": "uint256",
          "name": "goal",
          "type": "uint256"
        },
        {
          "internalType": "uint256",
          "name": "maxContribution",
          "type": "uint256"
        },
        {
          "internalType": "uint256",
          "name": "maxContributor",
          "type": "uint256"
        },
        {
          "internalType": "uint256",
          "name": "duration",
          "type": "uint256"
        }
      ],
      "name": "addCampaign",
      "outputs": [],
      "stateMutability": "nonpayable",
      "type": "function"
    },
    {
      "inputs": [
        {
          "internalType": "uint256",
          "name": "",
          "type": "uint256"
        }
      ],
      "name": "campaigns",
      "outputs": [
        {
          "internalType": "uint256",
          "name": "id",
          "type": "uint256"
        },
        {
          "internalType": "string",
          "name": "name",
          "type": "string"
        },
        {
          "internalType": "uint256",
          "name": "goal",
          "type": "uint256"
        },
        {
          "internalType": "uint256",
          "name": "maxContribution",
          "type": "uint256"
        },
        {
          "internalType": "uint256",
          "name": "maxContributor",
          "type": "uint256"
        },
        {
          "internalType": "uint256",
          "name": "duration",
          "type": "uint256"
        },
        {
          "internalType": "uint256",
          "name": "startTime",
          "type": "uint256"
        },
        {
          "internalType": "uint256",
          "name": "endTime",
          "type": "uint256"
        },
        {
          "internalType": "bool",
          "name": "isOpen",
          "type": "bool"
        }
      ],
      "stateMutability": "view",
      "type": "function"
    },
    {
      "inputs": [
        {
          "internalType": "uint256",
          "name": "campaignId",
          "type": "uint256"
        }
      ],
      "name": "closeCampaign",
      "outputs": [],
      "stateMutability": "nonpayable",
      "type": "function"
    },
    {
      "inputs": [
        {
          "internalType": "uint256",
          "name": "campaignId",
          "type": "uint256"
        },
        {
          "internalType": "uint256",
          "name": "amount",
          "type": "uint256"
        }
      ],
      "name": "contribute",
      "outputs": [],
      "stateMutability": "nonpayable",
      "type": "function"
    },
    {
      "inputs": [
        {
          "internalType": "uint256",
          "name": "campaignId",
          "type": "uint256"
        }
      ],
      "name": "getInvestorContract",
      "outputs": [
        {
          "internalType": "address",
          "name": "",
          "type": "address"
        }
      ],
      "stateMutability": "view",
      "type": "function"
    },
    {
      "inputs": [
        {
          "internalType": "uint256",
          "name": "",
          "type": "uint256"
        }
      ],
      "name": "investorContracts",
      "outputs": [
        {
          "internalType": "address",
          "name": "",
          "type": "address"
        }
      ],
      "stateMutability": "view",
      "type": "function"
    },
    {
      "inputs": [],
      "name": "owner",
      "outputs": [
        {
          "internalType": "address",
          "name": "",
          "type": "address"
        }
      ],
      "stateMutability": "view",
      "type": "function"
    },
    {
      "inputs": [],
      "name": "renounceOwnership",
      "outputs": [],
      "stateMutability": "nonpayable",
      "type": "function"
    },
    {
      "inputs": [
        {
          "internalType": "address",
          "name": "newOwner",
          "type": "address"
        }
      ],
      "name": "transferOwnership",
      "outputs": [],
      "stateMutability": "nonpayable",
      "type": "function"
    }
  ],
  "bytecode": "0x60806040523480156200001157600080fd5b506040516200183338038062001833833981016040819052620000349162000181565b806001600160a01b0381166200006557604051631e4fbdf760e01b8152600060048201526024015b60405180910390fd5b62000070816200009f565b50600180546001600160a01b0319166001600160a01b0384161790556200009733620000ef565b5050620001b9565b600080546001600160a01b038381166001600160a01b0319831681178455604051919092169283917f8be0079c531659141344cd1fd0a4f28419497f9722a3daafe3b4186f6b6457e09190a35050565b620000f962000133565b6001600160a01b0381166200012557604051631e4fbdf760e01b8152600060048201526024016200005c565b62000130816200009f565b50565b6000546001600160a01b03163314620001625760405163118cdaa760e01b81523360048201526024016200005c565b565b80516001600160a01b03811681146200017c57600080fd5b919050565b600080604083850312156200019557600080fd5b620001a08362000164565b9150620001b06020840162000164565b90509250929050565b61166a80620001c96000396000f3fe608060405234801561001057600080fd5b50600436106100935760003560e01c80638c590917116100665780638c590917146101395780638da5cb5b1461014c578063b0e1c1e11461015d578063e667546514610170578063f2fde38b1461018357600080fd5b8063106a508014610098578063141961bc146100de578063715018a614610106578063792b4f0614610110575b600080fd5b6100c16100a6366004610b67565b6000908152600360205260409020546001600160a01b031690565b6040516001600160a01b0390911681526020015b60405180910390f35b6100f16100ec366004610b67565b610196565b6040516100d599989796959493929190610bd0565b61010e61027d565b005b6100c161011e366004610b67565b6003602052600090815260409020546001600160a01b031681565b61010e610147366004610c25565b610291565b6000546001600160a01b03166100c1565b61010e61016b366004610b67565b610555565b61010e61017e366004610c5d565b610785565b61010e610191366004610d2b565b61085e565b600281815481106101a657600080fd5b60009182526020909120600b909102018054600182018054919350906101cb90610d54565b80601f01602080910402602001604051908101604052809291908181526020018280546101f790610d54565b80156102445780601f1061021957610100808354040283529160200191610244565b820191906000526020600020905b81548152906001019060200180831161022757829003601f168201915b50505050600283015460038401546004850154600586015460068701546007880154600890980154969794969395509193909260ff1689565b61028561089c565b61028f60006108c9565b565b6000600283815481106102a6576102a6610d8e565b60009182526020909120600b90910201600881015490915060ff1680156102d05750806007015442105b6103215760405162461bcd60e51b815260206004820152601960248201527f43616d706169676e206973206e6f7420617661696c61626c650000000000000060448201526064015b60405180910390fd5b6003810154336000908152600a83016020526040902054610343908490610da4565b11156103915760405162461bcd60e51b815260206004820152601860248201527f45786365656473206d617820636f6e747269627574696f6e00000000000000006044820152606401610318565b6004810154600982015410806103b75750336000908152600a8201602052604090205415155b6104035760405162461bcd60e51b815260206004820152601860248201527f4d617820636f6e7472696275746f7273207265616368656400000000000000006044820152606401610318565b336000908152600a82016020526040812054900361044357600981018054600181018255600091825260209091200180546001600160a01b031916331790555b336000908152600a8201602052604081208054849290610464908490610da4565b9091555050600154610481906001600160a01b0316333085610919565b6000338385600160009054906101000a90046001600160a01b03166040516104a890610b5a565b6001600160a01b039485168152602081019390935260408301919091529091166060820152608001604051809103906000f0801580156104ec573d6000803e3d6000fd5b5060008581526003602090815260409182902080546001600160a01b0319166001600160a01b0385161790559051858152919250339186917f0a4a91237423e0a1766a761c7cb029311d8b95d6b1b81db1b949a70c98b4e08e910160405180910390a350505050565b61055d61089c565b60006002828154811061057257610572610d8e565b60009182526020909120600b90910201600881015490915060ff166105d95760405162461bcd60e51b815260206004820152601a60248201527f43616d706169676e20697320616c726561647920636c6f7365640000000000006044820152606401610318565b60088101805460ff191690556001546040516370a0823160e01b81523060048201526000916001600160a01b0316906370a0823190602401602060405180830381865afa15801561062e573d6000803e3d6000fd5b505050506040513d601f19601f820116820180604052508101906106529190610dc5565b9050816002015481106106d55760008381526003602052604090819020549051633243c79160e01b8152600481018390526001600160a01b039091169081908190633243c79190602401600060405180830381600087803b1580156106b657600080fd5b505af11580156106ca573d6000803e3d6000fd5b505050505050610743565b60005b60098301548110156107415760008360090182815481106106fb576106fb610d8e565b60009182526020808320909101546001600160a01b03908116808452600a88019092526040909220546001549193509161073791168383610986565b50506001016106d8565b505b827f8458b28c04c9dc08e322a4e1d72faf95d899a917357387ceb5f95cb0d36a22ab8360010183604051610778929190610dde565b60405180910390a2505050565b61078d61089c565b60028054600181018083556000838152919290839081106107b0576107b0610d8e565b60009182526020909120600b909102018281559050600181016107d38882610ec5565b50600281018690556003810185905560048101849055600581018390554260068201819055610803908490610da4565b600782015560088101805460ff1916600117905560405182907f02fe3fddd43aad14ae5c30d5d694f19ecb065dfde85bb591b91e8af1448724d29061084d908a908a908890610f85565b60405180910390a250505050505050565b61086661089c565b6001600160a01b03811661089057604051631e4fbdf760e01b815260006004820152602401610318565b610899816108c9565b50565b6000546001600160a01b0316331461028f5760405163118cdaa760e01b8152336004820152602401610318565b600080546001600160a01b038381166001600160a01b0319831681178455604051919092169283917f8be0079c531659141344cd1fd0a4f28419497f9722a3daafe3b4186f6b6457e09190a35050565b6040516001600160a01b0384811660248301528381166044830152606482018390526109809186918216906323b872dd906084015b604051602081830303815290604052915060e01b6020820180516001600160e01b0383818316178352505050506109bc565b50505050565b6040516001600160a01b038381166024830152604482018390526109b791859182169063a9059cbb9060640161094e565b505050565b60006109d16001600160a01b03841683610a1f565b905080516000141580156109f65750808060200190518101906109f49190610faa565b155b156109b757604051635274afe760e01b81526001600160a01b0384166004820152602401610318565b6060610a2d83836000610a36565b90505b92915050565b606081471015610a5b5760405163cd78605960e01b8152306004820152602401610318565b600080856001600160a01b03168486604051610a779190610fcc565b60006040518083038185875af1925050503d8060008114610ab4576040519150601f19603f3d011682016040523d82523d6000602084013e610ab9565b606091505b5091509150610ac9868383610ad5565b925050505b9392505050565b606082610aea57610ae582610b31565b610ace565b8151158015610b0157506001600160a01b0384163b155b15610b2a57604051639996b31560e01b81526001600160a01b0385166004820152602401610318565b5080610ace565b805115610b415780518082602001fd5b604051630a12f52160e11b815260040160405180910390fd5b61064c80610fe983390190565b600060208284031215610b7957600080fd5b5035919050565b60005b83811015610b9b578181015183820152602001610b83565b50506000910152565b60008151808452610bbc816020860160208601610b80565b601f01601f19169290920160200192915050565b60006101208b8352806020840152610bea8184018c610ba4565b604084019a909a5250506060810196909652608086019490945260a085019290925260c084015260e083015215156101009091015292915050565b60008060408385031215610c3857600080fd5b50508035926020909101359150565b634e487b7160e01b600052604160045260246000fd5b600080600080600060a08688031215610c7557600080fd5b853567ffffffffffffffff80821115610c8d57600080fd5b818801915088601f830112610ca157600080fd5b813581811115610cb357610cb3610c47565b604051601f8201601f19908116603f01168101908382118183101715610cdb57610cdb610c47565b816040528281528b6020848701011115610cf457600080fd5b82602086016020830137600060209382018401529b918a01359a505060408901359860608101359850608001359650945050505050565b600060208284031215610d3d57600080fd5b81356001600160a01b0381168114610ace57600080fd5b600181811c90821680610d6857607f821691505b602082108103610d8857634e487b7160e01b600052602260045260246000fd5b50919050565b634e487b7160e01b600052603260045260246000fd5b80820180821115610a3057634e487b7160e01b600052601160045260246000fd5b600060208284031215610dd757600080fd5b5051919050565b604081526000808454610df081610d54565b8060408601526060600180841660008114610e125760018114610e2e57610e60565b60ff1985166060890152606084151560051b8901019550610e60565b8960005260208060002060005b86811015610e565781548b8201870152908401908201610e3b565b8a01606001975050505b50505050506020929092019290925292915050565b601f8211156109b7576000816000526020600020601f850160051c81016020861015610e9e5750805b601f850160051c820191505b81811015610ebd57828155600101610eaa565b505050505050565b815167ffffffffffffffff811115610edf57610edf610c47565b610ef381610eed8454610d54565b84610e75565b602080601f831160018114610f285760008415610f105750858301515b600019600386901b1c1916600185901b178555610ebd565b600085815260208120601f198616915b82811015610f5757888601518255948401946001909101908401610f38565b5085821015610f755787850151600019600388901b60f8161c191681555b5050505050600190811b01905550565b606081526000610f986060830186610ba4565b60208301949094525060400152919050565b600060208284031215610fbc57600080fd5b81518015158114610ace57600080fd5b60008251610fde818460208701610b80565b919091019291505056fe608060405234801561001057600080fd5b5060405161064c38038061064c83398101604081905261002f91610088565b600080546001600160a01b039586166001600160a01b031991821617909155600193909355600291909155600380549190931691161790556100ce565b80516001600160a01b038116811461008357600080fd5b919050565b6000806000806080858703121561009e57600080fd5b6100a78561006c565b935060208501519250604085015191506100c36060860161006c565b905092959194509250565b61056f806100dd6000396000f3fe608060405234801561001057600080fd5b50600436106100575760003560e01c80633243c7911461005c57806350520b1f146100715780638da5cb5b1461008d5780638ed5b0fc146100b8578063f2fde38b146100c1575b600080fd5b61006f61006a36600461045f565b6100d4565b005b61007a60015481565b6040519081526020015b60405180910390f35b6000546100a0906001600160a01b031681565b6040516001600160a01b039091168152602001610084565b61007a60025481565b61006f6100cf366004610478565b61014c565b600081600154836100e591906104a1565b6100ef91906104c6565b60005460035491925061010f916001600160a01b0390811691168361026a565b60408051838152602081018390527fac4c4b96e3856cb20170077826b7701a887bdaf8d743f369b438133249a1f82f910160405180910390a15050565b6000546001600160a01b031633146101b95760405162461bcd60e51b815260206004820152602560248201527f4f6e6c7920746865206f776e65722063616e207472616e73666572206f776e65604482015264072736869760dc1b60648201526084015b60405180910390fd5b6001600160a01b03811661020f5760405162461bcd60e51b815260206004820152601d60248201527f4e6577206f776e657220697320746865207a65726f206164647265737300000060448201526064016101b0565b600080546040516001600160a01b03808516939216917f8be0079c531659141344cd1fd0a4f28419497f9722a3daafe3b4186f6b6457e091a3600080546001600160a01b0319166001600160a01b0392909216919091179055565b604080516001600160a01b038416602482015260448082018490528251808303909101815260649091019091526020810180516001600160e01b031663a9059cbb60e01b1790526102bc9084906102c1565b505050565b60006102d66001600160a01b03841683610324565b905080516000141580156102fb5750808060200190518101906102f991906104e8565b155b156102bc57604051635274afe760e01b81526001600160a01b03841660048201526024016101b0565b60606103328383600061033b565b90505b92915050565b6060814710156103605760405163cd78605960e01b81523060048201526024016101b0565b600080856001600160a01b0316848660405161037c919061050a565b60006040518083038185875af1925050503d80600081146103b9576040519150601f19603f3d011682016040523d82523d6000602084013e6103be565b606091505b50915091506103ce8683836103da565b925050505b9392505050565b6060826103ef576103ea82610436565b6103d3565b815115801561040657506001600160a01b0384163b155b1561042f57604051639996b31560e01b81526001600160a01b03851660048201526024016101b0565b50806103d3565b8051156104465780518082602001fd5b604051630a12f52160e11b815260040160405180910390fd5b60006020828403121561047157600080fd5b5035919050565b60006020828403121561048a57600080fd5b81356001600160a01b03811681146103d357600080fd5b808202811582820484141761033557634e487b7160e01b600052601160045260246000fd5b6000826104e357634e487b7160e01b600052601260045260246000fd5b500490565b6000602082840312156104fa57600080fd5b815180151581146103d357600080fd5b6000825160005b8181101561052b5760208186018101518583015201610511565b50600092019182525091905056fea2646970667358221220d680965d3ca4f9d48db3426be48770bd41023008068b448e1f84a3e1e1a0f5d864736f6c63430008180033a26469706673582212207dcfc44a0a5147a8eefe40d0e8af885704098ec274ba76526a3c9a219164083164736f6c63430008180033",
  "linkReferences": {},
  "deployedLinkReferences": {}
}