{
  "_format": "hh-sol-artifact-1",
  "contractName": "ClaimToken",
  "sourceName": "contracts/ClaimToken.sol",
  "abi": [
    {
      "inputs": [
        {
          "internalType": "address",
          "name": "_usdcsTokenAddress",
          "type": "address"
        }
      ],
      "stateMutability": "payable",
      "type": "constructor"
    },
    {
      "inputs": [],
      "name": "ReentrancyGuardReentrantCall",
      "type": "error"
    },
    {
      "anonymous": false,
      "inputs": [
        {
          "indexed": true,
          "internalType": "address",
          "name": "claimers",
          "type": "address"
        },
        {
          "indexed": false,
          "internalType": "uint256",
          "name": "amount",
          "type": "uint256"
        },
        {
          "indexed": false,
          "internalType": "uint256",
          "name": "fee",
          "type": "uint256"
        }
      ],
      "name": "Claim",
      "type": "event"
    },
    {
      "stateMutability": "payable",
      "type": "fallback"
    },
    {
      "inputs": [],
      "name": "MAX_CLAIM_AMOUNT",
      "outputs": [
        {
          "internalType": "uint256",
          "name": "",
          "type": "uint256"
        }
      ],
      "stateMutability": "view",
      "type": "function"
    },
    {
      "inputs": [],
      "name": "claimFee",
      "outputs": [
        {
          "internalType": "uint256",
          "name": "",
          "type": "uint256"
        }
      ],
      "stateMutability": "view",
      "type": "function"
    },
    {
      "inputs": [],
      "name": "claimXTR",
      "outputs": [],
      "stateMutability": "payable",
      "type": "function"
    },
    {
      "inputs": [
        {
          "internalType": "uint256",
          "name": "",
          "type": "uint256"
        }
      ],
      "name": "claimers",
      "outputs": [
        {
          "internalType": "address",
          "name": "",
          "type": "address"
        }
      ],
      "stateMutability": "view",
      "type": "function"
    },
    {
      "inputs": [
        {
          "internalType": "address",
          "name": "",
          "type": "address"
        }
      ],
      "name": "hasClaimed",
      "outputs": [
        {
          "internalType": "bool",
          "name": "",
          "type": "bool"
        }
      ],
      "stateMutability": "view",
      "type": "function"
    },
    {
      "inputs": [],
      "name": "owner",
      "outputs": [
        {
          "internalType": "address",
          "name": "",
          "type": "address"
        }
      ],
      "stateMutability": "view",
      "type": "function"
    },
    {
      "inputs": [
        {
          "internalType": "uint256",
          "name": "_amount",
          "type": "uint256"
        }
      ],
      "name": "transferXTRContract",
      "outputs": [],
      "stateMutability": "nonpayable",
      "type": "function"
    },
    {
      "inputs": [
        {
          "internalType": "uint256",
          "name": "_newFee",
          "type": "uint256"
        }
      ],
      "name": "updateClaimFee",
      "outputs": [],
      "stateMutability": "nonpayable",
      "type": "function"
    },
    {
      "inputs": [],
      "name": "usdcsToken",
      "outputs": [
        {
          "internalType": "contract IERC20",
          "name": "",
          "type": "address"
        }
      ],
      "stateMutability": "view",
      "type": "function"
    },
    {
      "stateMutability": "payable",
      "type": "receive"
    }
  ],
  "bytecode": "0x60806040526551dac207a00060055560405161084238038061084283398101604081905261002c9161005f565b6001600081905580546001600160a01b039092166001600160a01b0319928316179055600280549091163317905561008f565b60006020828403121561007157600080fd5b81516001600160a01b038116811461008857600080fd5b9392505050565b6107a48061009e6000396000f3fe6080604052600436106100845760003560e01c806399d32fc41161005657806399d32fc414610132578063b20b840314610156578063be1667c614610176578063e362b4f714610196578063f8b7f9a0146101b357005b806373b2e80e1461008d5780638da5cb5b146100d25780638f2248001461010a57806399ae559d1461011257005b3661008b57005b005b34801561009957600080fd5b506100bd6100a836600461069e565b60036020526000908152604090205460ff1681565b60405190151581526020015b60405180910390f35b3480156100de57600080fd5b506002546100f2906001600160a01b031681565b6040516001600160a01b0390911681526020016100c9565b61008b6101d3565b34801561011e57600080fd5b506100f261012d3660046106ce565b6104e5565b34801561013e57600080fd5b5061014860055481565b6040519081526020016100c9565b34801561016257600080fd5b5061008b6101713660046106ce565b61050f565b34801561018257600080fd5b5061008b6101913660046106ce565b61053e565b3480156101a257600080fd5b50610148680ad78ebc5ac620000081565b3480156101bf57600080fd5b506001546100f2906001600160a01b031681565b6101db610674565b3360009081526003602052604090205460ff161561024b5760405162461bcd60e51b815260206004820152602260248201527f596f75206861766520616c726561647920636c61696d65642058545220546f6b60448201526132b760f11b60648201526084015b60405180910390fd5b6001546040516370a0823160e01b8152306004820152680ad78ebc5ac6200000916001600160a01b0316906370a0823190602401602060405180830381865afa15801561029c573d6000803e3d6000fd5b505050506040513d601f19601f820116820180604052508101906102c091906106e7565b10156103225760405162461bcd60e51b815260206004820152602b60248201527f496e73756666696369656e742058545220746f6b656e7320617661696c61626c60448201526a6520666f7220636c61696d60a81b6064820152608401610242565b6005543410156103745760405162461bcd60e51b815260206004820152601960248201527f496e73756666696369656e74206665652070726f7669646564000000000000006044820152606401610242565b33600081815260036020526040808220805460ff19166001908117909155600480548083018255938190527f8a35acfbc15ff81a39ae7d344fd709f28e8600b4aa8c65c6b64bfe7fe36bd19b90930180546001600160a01b0319168517905554905163a9059cbb60e01b815291820192909252680ad78ebc5ac620000060248201526001600160a01b039091169063a9059cbb906044016020604051808303816000875af115801561042a573d6000803e3d6000fd5b505050506040513d601f19601f8201168201806040525081019061044e9190610700565b5060055460405133917f34fcbac0073d7c3d388e51312faf357774904998eeb8fca628b9e6f65ee1cbf79161049491680ad78ebc5ac62000008252602082015260400190565b60405180910390a26002546005546040516001600160a01b039092169181156108fc0291906000818181858888f193505050501580156104d8573d6000803e3d6000fd5b506104e36001600055565b565b600481815481106104f557600080fd5b6000918252602090912001546001600160a01b0316905081565b6002546001600160a01b031633146105395760405162461bcd60e51b815260040161024290610722565b600555565b6002546001600160a01b031633146105685760405162461bcd60e51b815260040161024290610722565b600081116105b85760405162461bcd60e51b815260206004820152601f60248201527f5472616e73666572206d7573742062652067726561746572207468616e2030006044820152606401610242565b6001546040516323b872dd60e01b8152336004820152306024820152604481018390526001600160a01b03909116906323b872dd906064016020604051808303816000875af115801561060f573d6000803e3d6000fd5b505050506040513d601f19601f820116820180604052508101906106339190610700565b6106715760405162461bcd60e51b815260206004820152600f60248201526e151c985b9cd9995c8819985a5b1959608a1b6044820152606401610242565b50565b60026000540361069757604051633ee5aeb560e01b815260040160405180910390fd5b6002600055565b6000602082840312156106b057600080fd5b81356001600160a01b03811681146106c757600080fd5b9392505050565b6000602082840312156106e057600080fd5b5035919050565b6000602082840312156106f957600080fd5b5051919050565b60006020828403121561071257600080fd5b815180151581146106c757600080fd5b6020808252602c908201527f4f6e6c79206f776e657220616464726573732063616e20706572666f726d207460408201526b3434b990333ab731ba34b7b760a11b60608201526080019056fea264697066735822122022f99fca9d26f9ad915721a5e9da9ab1b38588a311823592e3c94a38388e813e64736f6c63430008180033",
  "linkReferences": {},
  "deployedLinkReferences": {}
}